:1000000000B0032039BD010071B6010071B60100D6
:1000100071B6010071B6010071B6010071B6010040
:1000200071B6010071B6010071B6010071B6010030
:0C00300071B6010071B60100A7E90000E4
:100040002DE9F04FA1B045F2DC01C2F200010968D0
:10005000044619B18847002800F02E8545F234483F
:1000600045F6ED69C2F20008C2F2000999F80000F5
:1000700098F8021098F801201591411E002C44F2C6
:10008000A44A119118BF01210028C2F2000A88F881
:100090000F101494129265D008F118040027062559
:1000A00017AE4FF0F8084FF0000B26E044F2A440E2
:1000B000C2F200000068294619AA0123B4460426AA
:1000C000009666461EF030F9002848BF4FF0010A3E
:1000D00045F6A350C2F2000080F800A044F2A44A02
:1000E000C2F2000A84F8008099F80000013705F593
:1000F0000065874204F10C042ED21598B842F3D063
:10010000DAF80000A91F324604231EF0BFFA179840
:1001100010F4403F40F00400C0B218BF0BF1010BD7
:100120007C28E1D145F2DC00C2F2000001688DF8C4
:10013000648049B1884700284FF00B0A18BF4FF080
:10014000000A0028B2D104E04FF0000A0120002884
:10015000ACD14FF00B0ABBE745F23448149CC2F215
:10016000000801E04FF0000B5FFA8BF10138884284
:1001700006D198F8050000284FF0000000F0E38455
:10018000002CA34608BF4FF0100B012400200A905A
:10019000CDF81CB01198000400F04284DDE911652F
:1001A000002000BF169098F80F00EF02002808BF4B
:1001B00088F80F40DAF80000394617AA04231EF029
:1001C00065FA1498F0B19DF85E0080071ED099F88A
:1001D000000054FA85F1B1FBF0F2013E02FB10156C
:1001E0004FF40060A8F8100098F80F0088F80D5040
:1001F000013888F80F003004169800F10100D1D1C1
:1002000000F00EBC0020169002E000BFCDE91165A1
:100210009DF85C00FE2470282ED045F2DC00C2F26E
:100220000000016870208DF8640099B188470028AB
:100230004FF00B0618BF002680B1DAF800003946EF
:1002400019AA0123042700971EF06EF8002848BF62
:10025000012604E0002601200028EED10B2645F6F9
:10026000A350C2F20000067036B905EB450008EB5A
:1002700080007021817500BF1599DAF80000C9026D
:1002800017AA04230E911EF001FA9DF85C00FE28C7
:100290002CD045F2DC00C2F2000001688DF8644009
:1002A00099B1884700284FF00B0618BF002680B18F
:1002B000DAF800000E9919AA0123042700971EF00E
:1002C00033F8002848BF012604E00026012000285A
:1002D000EED10B2645F6A350C2F2000006702EB9EF
:1002E000159800EB400008EB8000847545F2DC00B7
:1002F000C2F2000001688DF86440A9B18847002867
:100300004FF00B0618BF002690B10E99DAF80000E6
:1003100041F0060119AA0123042700971EF004F8F2
:10032000002848BF012604E0002601200028ECD167
:100330000B2645F6A350DDF854B0C2F2000006705B
:100340000BEB4B0108F1160000EB810703913946D6
:1003500001F8024F08914FF40061A8F8101005EB66
:10036000450100EB8104E088DDF84890A8F8120010
:10037000FF2088F80E0043F270400026C2F2000011
:100380004FF4006188F80CB088F80D90A8F814605C
:100390001EF0A2FB45F6A350C2F20000067037F82B
:1003A000060FE6881090B9EB0B00B0FA80F04B46D0
:1003B0004FEA5010029704900AD1DDF81CB045F6C0
:1003C000ED69149F1D460124C2F2000980E100BFBF
:1003D00098F80F0045F6ED61C2F200012844097853
:1003E000013890FBF1F202FB1100C0B20190002035
:1003F0001390DDF840904FEAC32B00200DF1640804
:10040000129309900BE000BF264417F001004FF053
:1004100003001CBF00200020032800F04481139833
:10042000C00740F01781B4B2162C40F2E48045F6C4
:10043000A350C2F200000078002840F02381F51F8D
:10044000DAF800001BFA85F1424607231EF01EF978
:100450009DF867209DF8680002F03F029DF86A1041
:10046000920142EA9007B1F1960A07F1100218BF13
:100470004FF0010AA242A5EB070447D8962945D1BF
:100480009DF86920CDE90F598101C14644F2A44885
:10049000069641EA92010D973E1D00F0FC000027F0
:1004A000C2F2000805920B918DF863000C9400BF16
:1004B000B5B2202D28BF2025D8F800001BFA84F102
:1004C0004A462B461EF0E2F8F8B249462A461CF08E
:1004D000CDFE761B074630042C44E9D138460DF199
:1004E000630101221CF0C2FE0B99DDF84090C9B2F5
:1004F00088420FD10598002100F0030040EA0A006D
:10050000023818BF01200F9E08E000BF013E012104
:10051000002007E006980121461E00200DF1640826
:10052000DDE90C4744F2A44AC2F2000A91B3B0B22A
:1005300016284FF0000788BF01271728FFF465AF82
:1005400001270F9608E000BFB0B216284FF0000751
:1005500088BF012717284CD3B0B2A6F1160436285D
:1005600088BF2024361BDAF80000A5B21BFA86F1FA
:1005700042462B461EF08AF8002DE5D018FA84F08A
:1005800010F8010C96283FF43FAF013C2004F5D150
:10059000DAE700BF50BBFB1D13FA89F5B5F5006F14
:1005A00004D9012107360220139135E743F2704147
:1005B0001FFA89F0C2F20001081AC01A00F50062A1
:1005C000DAF800001BFA84F11EF060F8099813991C
:1005D000013009904FF60000CFF6FF7010FA85F059
:1005E000B0FA80F040090143A9461391F61B0020A0
:1005F00012E70F9E09E7099845F23448129D00283A
:10060000C2F20008CDF840901EBF05EB450008EB94
:1006100080008683019845F6ED69149FA842C2F2D6
:1006200000094CD099F80000691CB1FBF0F202FB04
:10063000101303EB430008EB8000868B1598C01A5B
:10064000B0FA80F04FEA501004907FF4D2AE1293CB
:10065000DDB234E00998CDF8409045F6ED69149F7D
:10066000DDF81CB0C2F200094FF0010458B3129D2E
:1006700045F2344805EB4500C2F2000808EB800063
:10068000868325E045F2344845F6ED69149FDDF890
:100690001CB01020C2F20008C2F200090124102888
:1006A00040F0E68008E2CDF84090129D45F23448D3
:1006B00045F6ED69149FC2F20008C2F20009DDF8A8
:1006C0001CB0012404E0129D45F23448C2F2000837
:1006D00045F6A350C2F20000007820B11020102887
:1006E00040F0C680E8E145F2DC00C2F2000001689B
:1006F000B346F9B1884700284FF00B0618BF002613
:10070000E0B110990427C1F50060A1F1100343F294
:100710007041C2F2000111FA80F20E99DAF800007D
:1007200041F010019BB200971DF0FEFD002848BF6C
:10073000012604E0002601200028E2D10B2645F620
:10074000A352C2F20002107804993043C9075E46F2
:1007500010700FD099F8000012990144013991FBF3
:10076000F0F202FB1010C5B2690051FA80F008EBFC
:100770008000868B10980299A8F81000088098F8DD
:100780000D006FF0D24119918DF8660045F2DC0042
:10079000C2F200000168B8F81200DDF81CB0A8F839
:1007A000146088F80E50ADF86400A9B1884700289D
:1007B0004FF00B0518BF002590B10E99DAF8000034
:1007C00041F0080119AA0423042700971DF0ACFD8D
:1007D000002848BF012504E0002501200028ECD1B5
:1007E0000B2545F6A350C2F20000057098F80E00E4
:1007F0006FF0D24119918DF8660045F2DC00C2F22B
:1008000000000168B8F81400ADF86400A9B1884789
:1008100000284FF00B0518BF002590B10E99DAF8AB
:10082000000041F00C0119AA0423042700971DF0D1
:100830007BFD002848BF012504E000250120002899
:10084000ECD10B2545F6A350C2F200000570B0B202
:1008500017284FF00000149F38BF01201099002284
:1008600089B2B2EBD12F18BF0230102800F02481DA
:100870005FB1B8F81000C0F5006058454FF00000B7
:10088000A8BF01200A9901430A91B8F81000C0F5E9
:10089000006058451CDA45F2DC00C2F20000016835
:1008A00078208DF8640081B3884700284FF00B054D
:1008B00018BF002568B3DAF800000E9919AA0123C1
:1008C000042700971DF030FD002848BF012521E0D6
:1008D00045F2DC00C2F2000001687C208DF8640063
:1008E00001B3884700284FF00B0518BF0025E8B179
:1008F000DAF800000E9919AA0123042700971DF0C9
:1009000013FD002848BF012511E000250120002823
:10091000D1D10B2545F6A350C2F200000570A5B950
:1009200078200EE0002501200028E1D10B2545F6B6
:10093000A350C2F2000005703DB9159888F8030075
:100940007C20039908EB8101887508F057FB98F823
:100950000F100746081A45F2DC01C2F200010968CF
:1009600088F80F004FF0FC008DF86400B1B18847A3
:1009700000284FF00B0518BF002598B10E99DAF842
:10098000000041F0060119AA0123042600961DF07B
:10099000CBFC002848BF012505E000BF0025012051
:1009A0000028EBD10B25169898F8022017FA80F151
:1009B00099F800001144B1FBF0F245F6A353C2F2DE
:1009C00000031D7002FB1013089AFC211170591CC2
:1009D000B1FBF0F298F80E6002FB101106EB460234
:1009E00008EB8202928B1296102A159388F8023037
:1009F00088F8011006D112990131B1FBF0F202FB27
:100A000010101290149800281198A0EB0700119074
:100A10003FF4C0AB0A9880F00100C0077FF4BAAB86
:100A200099F80000A0B1002519AE0024DAF8000002
:100A30002946324604231DF029FE9DF864007C28D7
:100A400007D099F800000134844205F50065EDD324
:100A5000FF24E0B2FF2835D199F80000A0B10025AD
:100A600019AE0024DAF800002946324604231DF0AE
:100A70000DFE9DF864007E2807D099F8000001342F
:100A8000844205F50065EDD3FF24E0B2FF2819D1BB
:100A900098F8014004EB440008EB8000807DFF28BB
:100AA0000CD098F8020099F800100844013890FB27
:100AB000F1F202FB110405E0002044E020467E2113
:100AC00015F0BEF8E0B2400050FA84F008EB800068
:100AD000808B88F80340A8F8060045F2DC00C2F2DB
:100AE0000000016898F80240FE208DF8640091B182
:100AF00088470B25002818BF002580B1DAF80000D0
:100B0000E102042719AA012300971DF00DFC00281B
:100B100048BF012504E0002501200028EED10B2567
:100B200045F6A350C2F2000005702DB904EB440055
:100B300008EB8000FE218175B8F81010002088F8BD
:100B40000500C1F5006000B221B0BDE8F08F70472C
:100B50002DE9F04F89B004460068002800F01584A4
:100B6000E76897F83300810717D4396840F002002E
:100B70004D1E87F833000120294600BF11F8012FD0
:100B80000138002AFAD140B1464200BF226815F868
:100B9000011F20469047013EF8D140F27630C0F266
:100BA0000200013806904FF69050C0F201004FF657
:100BB000FF7A4FF000090138059004E040F008008A
:100BC00087F8330050E0F98AB88A814206D23A8B1E
:100BD0000B1A1A44120405D1C9E300BF0A1A120401
:100BE00000F0C583814203D14FF0000B0BE000BF42
:100BF000411C3A8B8BB2B3FBF2F33E6903FB12113B
:100C000016F800B0B98297F83300010758D497F866
:100C100032101B2908BFBBF15B0FCFD0BBF10D0F0A
:100C200000F2A580012000FA0BF010F41C5F00F028
:100C30009E80D4F80C80BBF10A0F98F8320008BFF0
:100C40000D2811D0BBF10D0F08BF0A280CD0ABF155
:100C50000800052800F2F680DFE810F0F8006301D4
:100C60000C00060006000C00204610F055FF87F827
:100C700032B0A8E7204608F039FD4FF6C1560025EE
:100C8000C0F201062268715D204690470135022DB1
:100C9000F8D1B8F82000002800F04383E668308CD3
:100CA000002800F03E83D6F81C90002119F801209E
:100CB000202A40F03A8101318842F7D131E300BF68
:100CC000ABF14000C0B23E28CED8E068ABF14102A3
:100CD00090F83310D2B201F0F701012A80F83310F6
:100CE000C2D8D4F80C80B8F80C000028BCD0B8F8F2
:100CF0000A10BBF1410F5AD18142B5D0B8F830107B
:100D0000D8F800004E1E01380D4610F8011F0136BC
:100D1000002905F10101F7D1226820460D219047F5
:100D200036B100BF2268204620219047013DF9D10D
:100D3000226820460D219047D8F800000021451E6A
:100D400002202A46A8F830100E4612F8011F01387A
:100D5000002906F10101F7D1012806D0226815F813
:100D6000011F20469047013EF8D101205DE0BBF114
:100D70007F0F3FF45EAFABF12000C0B25F28BFF43D
:100D800073AFE068018C428C8B1C9342BFF46CAF54
:100D9000C26902F801B0018C01310184C06989B2D5
:100DA00000F8019022682046594690475CE70029E8
:100DB0003FF45AAFB8F83010D8F800004E1E013892
:100DC0000D4610F8011F0136002905F10101F7D188
:100DD000226820460D21904736B100BF2268204688
:100DE00020219047013DF9D1226820460D219047EE
:100DF000D8F800000021451E02202A46A8F830102D
:100E00000E4612F8011F0138002906F10101F7D141
:100E100001284FF6FF7008D0226815F8011F204600
:100E20009047013EF8D14FF6FF70B8F80A10084419
:100E300081B2A8F80A0019B1B8F80C00884220D293
:100E4000002132E0BBF17F0F7FF40EAFB8F8200035
:100E5000002862D022682046082190472268204658
:100E6000202190472268204608219047B8F82000AA
:100E7000D8F81C100138A8F8200080B201F80090C2
:100E8000F2E6D8F804004FF6FF7240B100220129C3
:100E900040F0AD8091B2415C002908BF524691B24A
:100EA000B1EB0A0118BF10FA82F140F2FE200029CE
:100EB000C0F2020008BF0146002000BF0A5C0130FA
:100EC000002AFBD1461ED8F81C00B5B22A461DF0F8
:100ED000F1FED8F81C0000214155D8F81C00A8F8F4
:100EE0002060451E02202A460E4612F8011F0138D6
:100EF000002906F10101F7D1012806D0226815F872
:100F0000011F20469047013EF8D1B8F82000A8F80C
:100F10003000204610F000FEA6E6BBF1090F7FF47A
:100F2000A3AE204608F0E2FB9EE6002519F8050076
:100F300001350028FAD1308904968542CDF8048025
:100F400000F2EC80B9F1000F00F08880B289002A2D
:100F50001146029200F08280D6F804804FF0010E14
:100F6000CDF80C90009000BFB8F1000F4FF6FF7065
:100F70004FF6FF7C21D05FEA0E404FF6FF701CD089
:100F80001FFA8EF10020012911D0012206E000BFD6
:100F9000013293B28B4200F1010008D083B218F8FD
:100FA0000360002EF5D143445B78002BF0D181B271
:100FB00018F80110002908BF604681B24FF6FF7291
:100FC000B1EB020A18BF18FA80FA03995046F146AD
:100FD00004F0BAF9F8B1CE4609F1010E02991FFAF0
:100FE0008EF08842C0D9049E4FF0000A15E001231C
:100FF00006E000BF9EB28E4202F101023FF44AAF0A
:1010000096B2855D002DF5D106447678002E3FF42A
:1010100041AF0133EEE7049ECE46009BDDF80C9015
:10102000BAF1000F1AD00299012201391FFA8EF08D
:1010300012FA81F28242B18110D000201AF8001019
:1010400001300029FAD108EB0301A1EB0A010A1AC9
:101050000AEB000150461DF02FFE049EB6F80C80EE
:10106000B8F1000F45D00498D0F804A0B0F808C03B
:10107000CAF1000EBAF1000F4FF6FF721ED01FFA30
:1010800088F30022012B11D0012605E00136B0B211
:10109000984202F1010209D090B21AF8001000291A
:1010A000F5D1504440780028F0D100BF90B21AF832
:1010B000000000284FF6FF7008BF024690B24FF6BE
:1010C000FF71401A18BF1AFA82F00EEB0002431E9D
:1010D00013F8010F01320028FAD1ACEB0200A8424C
:1010E00007D2A8F101085FEA08400498A0F80C8034
:1010F000C0D10499DDF80480888920B14968481975
:101100001DF0DAFD0499486849462A461DF0D2FDD3
:10111000049E4FF6FF7AB0890130B081328C2AB339
:101120000020002100254FF000090DE0002D04BF34
:1011300000231370B9F1000F4A4618BF0122114372
:10114000328C0130904214D2F269135C0244202B9D
:10115000ECD0B9F1000F07D011F0010318BF13460E
:10116000002D08BF1D46EBE79146E9E74FF0000967
:101170000025F069B9F1000F10444FF000014170F3
:1011800000F0CF80B08D002865D0049900EB80007E
:10119000D1F8248086004FF0000A00BF58F80A10EA
:1011A000484604F0D1F820B10AF1140A5645F5D1A9
:1011B00051E008EB0A00016900294CD0007A0028B0
:1011C00018BF002D00F094804FF0000E00224FF069
:1011D000000800234FF00009A8F1010C1146EE5C55
:1011E000002E00F0838018460A46C9070AD1431C26
:1011F0005C2E4FF00101F2D0222E05D18EF0010EAF
:10120000002619E0002217E05FEACE7114D14FF6F4
:10121000A663202EC0F201030BD04FF6A663202157
:10122000C0F2010321B113F8011FB142FAD100E06D
:101230000023002B18BF4E4600F1010336B9B8F168
:10124000000FCBD015F80C000028C7D005F80860B7
:1012500008F10108C0E7606870B1049E07A996F81C
:101260003300CDF81C9040F0100086F8330062681F
:101270002046089590474AE0069DDDF80480122636
:101280004FF6FF7A226815F8011F20469047013E6D
:10129000F8D1A9F10105022000222946164611F8CD
:1012A000012F0138002A06F10102F7D1012806D0EA
:1012B000226815F8011F20469047013EF8D1059E8F
:1012C000302500BF226816F8011F20469047013DD7
:1012D000F8D100254FF6C150C0F201002268415DEF
:1012E000204690470135022DF4D11AE025F80890E8
:1012F000049E96F83300716A40F0100086F83300BF
:1013000001EB0A00D0E9032320462946984796F8C6
:101310003300DDF8048000F0EF004FF6FF7A86F826
:101320003300D8F81C000021A8F820100170D8F86C
:101330000000A8F83010451E02202A46A8F80A101E
:101340000E4612F8011F0138002906F10101F7D1FC
:1013500001284FF000093FF487AC00BF226815F860
:10136000011F20469047013EF8D1FFF77DBC97F85A
:101370003300C00709D0F96900203884087097F855
:10138000330000F0FE0087F8330009B0BDE8F08FAD
:101390002DE9F04F97B046F6AB45C2F20005044682
:1013A000287845F6A357C2F200070328387040F0AA
:1013B000E9830020287038700CA81DF033F948B973
:1013C00001200C9045F6DC00C2F200000CA918F0D8
:1013D00035F820B10120287017B0BDE8F08F45F234
:1013E0003446C2F20006304646211DF075FB4FF030
:1013F000FF30B0823061F0601BF09CF80020214685
:1014000018F0DCFD44F2A44145F6B054C2F20001EC
:10141000C2F20004086021461DF09CFBD4E90112D1
:1014200045F6ED68B1FBF2F0C2F20008C0B2042844
:1014300028BF0420B2F5006F307088F80000C9D1D1
:10144000C2028A42C6D844F2A441C2F2000109682D
:101450000029BFD045F234420024C2F20002FF2529
:101460004FF4006100285471D570D18000F02781BD
:10147000FF200190FF200390FF200490FF200290A6
:1014800000200A900020069000200790002043F2E0
:10149000704B099000204FF0000AC2F2000B0021AF
:1014A00008900020059006E098F800000AF1010A73
:1014B000824580F0FA8044F2A445C2F20005286813
:1014C0004FEACA260B9131460FAA042344461DF069
:1014D000DDF82868371D394616AA04231DF0D6F812
:1014E000286806F10808414615AA04231DF0CEF825
:1014F000286806F10C09494614AA04231DF0C6F811
:101500000F986FF06F0151FA80F10E2906D8012271
:1015100002FA01F145F20112114203D1C1B2FE39C2
:10152000022904D242F28351B1EB904F27D05FFAE7
:101530008AF007F0D0F845F6A3510028C2F2000166
:10154000087040F0E28044F2A445C2F20005286829
:1015500031460FAA04231DF099F82868394616AAC7
:1015600004231DF093F82868414615AA04231DF0B2
:101570008DF82868494614AA04231DF087F845F21F
:1015800034410AEB4A00C2F2000101EB80070F98D8
:1015900007F11605C1B22870020AC0F3014078763F
:1015A0009DF85A00FD29FA75387603D91020A04617
:1015B00031E000BFBDF858004FF6FF718842A046E9
:1015C0006FF0030427D144F2A440C2F20000006887
:1015D00031465A464FF400634FF400661DF056F84A
:1015E00014FA86F6B0B25BF800104A1C01D1032849
:1015F000F6D80122012300BFCCB2FF2CDCB218BF09
:101600001A46090A042C03F10103F5D34BF8001024
:1016100056FA82F080B29DF85610B883BDF8540097
:10162000B9769DF85210F8832878F976BDF85020E5
:10163000A0F170010E293A8411D8DFE801F00B08FF
:101640000808080808081B080808200827000B9944
:10165000013129E70A980B9901300A9024E7FE2806
:101660001CD0FF28F3D105980B9901300590CDF8D7
:1016700004A019E706980B990130069014E7079823
:101680000B9901300790CDF80CA00DE71FFA8AF0F6
:10169000049009980B990130099005E708980B9977
:1016A00001300890CDF808A0FEE645F6A357DDE925
:1016B00003A9DDE901B5059CC2F2000710E0002195
:1016C0000891002109910021079100210691002134
:1016D0000A9100214FF0FF094FF0FF0A4FF0FF0B76
:1016E00009064FF0040159D1089AD2B2012A55D8FF
:1016F0000A9AD2B2012A51D8099AD2B2012A4DD8F7
:10170000E1B2814206D1002148E045F6A357C2F27A
:10171000000737E20A9945F234460906C2F200068C
:1017200004D00899090606D0022137E00899090675
:1017300006D0012132E021061BD002215D462DE0BA
:10174000DDE906211143090627D0014658B106F10B
:10175000180200211378FE2B05D00131884202F1D6
:101760000C02F7D10146C9B2814280F00F820321F9
:1017700014E0014658B106F1180200211378FE2B3F
:1017800005D00131884202F10C02F7D10146CAB2FC
:101790000621824238BF032100E0042145F6F060B3
:1017A000C2F200000629017000F2EC81DFE811F0BE
:1017B00075000700290050006600EA01280001209A
:1017C00098F8001010FA85F0B0FBF1F245F23444BD
:1017D00002FB11001FFA8AF1C2F20004FF29A57072
:1017E000607040F0BC80B9F1FF0F40F0758100EBF4
:1017F000400104EB8101898BE070E180C2E100BF10
:10180000FEE7012498F8000014FA85F1B1FBF0F22C
:101810005FFA85F802FB101045F23441C2F2000174
:10182000487040468D7006F056FF387045F2DC0077
:10183000C2F200000168FE2000298DF83C0000F093
:10184000BF8088470B260028044618BF0026B8E052
:1018500098F80040002C00F0E08045F23440C2F2DD
:10186000000000F1180100200A78FE2A00F0D48060
:101870000130844201F10C01F6D1CEE098F800006D
:1018800058B10024E0B206F026FF3978013408434D
:1018900098F8001038708C42F4D345F23442C2F20A
:1018A0000002918B45F2DC0498F80000C2F20004BB
:1018B000D18021680138002590707E208DF83C0091
:1018C0005570D57029B188470B25002818BF002511
:1018D00000E0012078B144F2A440C2F200000068A8
:1018E00004260FAA0021012300961CF01DFD0028EC
:1018F00048BF012500E00B253D702DB945F234416C
:101900007E20C2F20001887545F23440C2F2000028
:1019100021688578FE208DF83C0029B188470B248A
:10192000002818BF002401E00024012078B144F20F
:10193000A440C2F200000068E90204260FAA0123B5
:1019400000961CF0F1FC002848BF012400E00B24A5
:10195000002C3C7040F0168105EB45000AE1480080
:1019600010FA8AF004EB8000808B84F803A018281A
:10197000E080C0F00781C11F5FFA8AF089B20FAA28
:1019800013F049FB9DF84700400741D5E188BDF8B9
:101990004A20E078891A0739002689B20FAA032362
:1019A000009604F003F9002840F0EC80BDF84810E0
:1019B000002900F0E7809DF84C000DF093F8E1E07D
:1019C000002684B144F2A440C2F2000000684FEA4D
:1019D000C82104240FAA012300941CF0A5FC0028B0
:1019E00048BF012600E00B263E705EB94FEA480072
:1019F00045F2344150FA85F0C2F2000101EB80005B
:101A0000FE21817545F234410120C2F20001487186
:101A10000020FEF715FBB5E0C4B245F2344504EBF7
:101A20004400C2F2000505EB8000408B2C73A5F842
:101A30000D0007F0E3FA98F800102044B0FBF1F233
:101A400002FB110000F10102B2FBF1F3A87003FBED
:101A500011206870C9B100240FAD002644F2A440E3
:101A6000C2F20000006821462A4604231CF00EFE44
:101A70009DF83C007C280BD098F800000136864287
:101A800004F50064EAD3FF2003E02C46FF2004E0C5
:101A9000F0B245F23444C2F20004FF283BD198F87A
:101AA000000010B300240FAD002644F2A440C2F29F
:101AB0000000006821462A4604231CF0E7FD9DF83B
:101AC0003C007E2813D098F800000136864204F5C9
:101AD0000064EAD3FF200BE009EB490004EB80002F
:101AE000808B84F80390E0804CE0FF2004E0F0B2AB
:101AF00045F23444C2F20004FF280CD1FF2017F055
:101B0000C7FCFF2807D1782017F0C2FC0146607897
:101B1000FF2918BF084600EB400104EB8101898BC7
:101B2000E07045F2DC00C2F20000E1800168A478B8
:101B3000FE208DF83C0029B188470B25002818BFEE
:101B4000002501E00025012078B144F2A440C2F252
:101B500000000068E10204260FAA012300961CF091
:101B6000E3FB002848BF012500E00B253D704DB97F
:101B700004EB440045F23441C2F2000101EB800065
:101B8000FE218175387817B0BDE8F08F200605D0AA
:101B9000B078FE2114F054F80121CFE50621FDE5CF
:101BA0002DE9F04F8DB0DFF8E4B69BF8838019F093
:101BB000D3FCDFF8DC1608608121DFF8D806B8F125
:101BC000020F017003D1DFF8D006FF210170DFF8AA
:101BD000CC16DFF8CC560020DFF8CC66B8F1010F48
:101BE00008702880DFF8BC0600783070DFF8BC068B
:101BF0000068077A2DD190F90910002900F11982A7
:101C000061F30A2709096FF0030261F34102DFF86B
:101C1000A0161744CA89B9B2914200F20A820A306A
:101C20000BF0CBFBDFF88C16288805221CF0C3FED6
:101C300006F110001CF076FC28886FF0020106F116
:101C4000140206F1130311FA87F906F112010530A7
:101C50001EE0DFF85C164FF6FE703844C98980B28A
:101C6000884200F2E681DFF84C060422016806F1A2
:101C7000100008311CF056FC28884FF6FB7106F165
:101C8000130206F1120307EB010906F111010430FA
:101C900028801F78DFF824361278DFF81C46097890
:101CA0001B78227041EA0722C7F3011AB2801BB9E0
:101CB000BAF1020F00F0BD81BAF1030F00F0B98153
:101CC00001F0070713B1002F00F0B381DFF8F0E552
:101CD000042F9EF8001008BF002900F0AA813BB134
:101CE000DFF8E0351B78862B02D1022F40F0A1816E
:101CF000930410D402F00702022A08BF00291BD067
:101D0000DFF8C0050078862805D10020744619F058
:101D10005BFC2178A646307800284DD000294BD1B5
:101D2000012800F08681032840D0022844D1B088E1
:101D3000400740F07E813FE09BF88310022900F0CD
:101D40009080DFF870150122A046096811FA80F032
:101D500000F108010DF113001CF0E4FB28880130AC
:101D600028801CF057FD0546DFF8580500788628C6
:101D700074D1DFF86C45206808B91CF0F9FA9DF9B8
:101D80001300002100271AF024FE216848779DF8EF
:101D900013008F77C87728461CF0CDFEB18898F8DD
:101DA000000001F0100117F01FFB5AE0B08800F0AE
:101DB0000700032840F03D81B188080708D511F4D9
:101DC000405F00F036819BF83820002A00F0318116
:101DD0008A0402D48A0500F12C8106F11207B8F1B9
:101DE000010F3A4608BF06F113021278C2F38104CC
:101DF000012C00F01E814FEA921CBCF1010F00F093
:101E00001881BAF1010F0FD841F0020303F0070364
:101E1000032B09D114B93F2A40F20B81DFF8A83413
:101E20001B78234300F00581BAF1020F03971BD101
:101E3000DFF89C341F5D13F80C3003EB070A002316
:101E4000402AB4FA84F238BF012352091A404B06E3
:101E500018D4002A08BF0AF1020A17E028461CF02D
:101E60006AFE1BF08DFEE6E0DFF86034402A1F5D5D
:101E700013F80C3003EB070A08D34A0648BFAAF14F
:101E8000020A03E0002A18BF4FF0020AC1F3002142
:101E90005FFA8AF71FFA89F37A1A71709A4200F38F
:101EA000C8803A464944CDF808C07746891A914619
:101EB00099220028F18058BF7422501880B21BF07C
:101EC000FDFD0028F06000F0B4807421CDF804A07E
:101ED000A2461CF001FE0020DFF8C013B070387875
:101EE00018B9307900F020000870707809785746EA
:101EF0000029039920D0F8B9B08800F00700032822
:101F000004D0012818D19BF88200A8B1B8F1010FC4
:101F100008D0DFF8C003007820B11CF019F903994C
:101F2000FE2807D019F0FCFA039918B91BF0A8FB9A
:101F3000039908B10120B070F46804F17400606086
:101F4000A065F288A4F85C202281B288130713D51B
:101F50007278B8F1010FC2F10302A4F85C2018BF37
:101F600006F1110192B21CF0DDFAF468B4F85C00DD
:101F7000A26D1044B288A065A281FF20CE4B84F8E8
:101F80003A70DDF808A096F802C0727C96F812E06C
:101F9000F77CA07370781B7884F830A0002818BFF5
:101FA000002384F849302B88181AB8F1010F2880D3
:101FB00008BF724618BF7746019902F07802C7F34E
:101FC00001131A4409066CF38202227400F05B814B
:101FD000B8494A46A6F808900DF113099BF883709A
:101FE000096811FA80F000F1080148461CF09AFADD
:101FF000308929884FF0120A012F0297084428805F
:1020000008BF4FF0130AF16816F80A000A7CC0F303
:102010008108C0F3011302F04004B8F1000F0393EC
:102020004FD0022B15D1A4B1B1F844200DF1130902
:1020300017E01CF041F91CF0EDFB9E4900240A68F2
:1020400013681C7112680A601CF075FD0DB0BDE8C4
:10205000F08FBDF8132009F10209A1F84420A1F87E
:1020600042209D4F92B2FB899A4204D04FF6FF73F3
:102070009A4240F0B980B8F1030F12D101F1320059
:1020800049461CF0B2FDF068F91C32301BF054F9DF
:10209000039B002800F0A88016F80A0009F108093F
:1020A0000FE039F8022B4A86B9898A4208D06FF0CE
:1020B0000301039B033189B28A4240F0958000E01E
:1020C000039B40281DD3022B04D158EA04010BD1F5
:1020D000F16803E0F1680A7C520605D4B9F80020E3
:1020E00009F10209A1F84220C02805D3F068494649
:1020F00028301CF07AFD03E0B9F80000F16808858B
:10210000039B7149B088097800F00700A1B1012B49
:1021100012D8012804D1B8F1000F06D001200DE03B
:10212000032808BFB8F1000F06D16B49F268C989CE
:10213000B2F842208A4257D1032804D0012811D195
:102140009BF8820070B1F06817F06CFA50B900206B
:10215000F17CB070B07CC1F3011100F0780008444C
:10216000F1680874F0688189090776D53289806D35
:102170000DF113011CF0D6F9F16830898A6D024423
:102180008A65B1F85C2010440122A1F85C0049493D
:1021900028881CF010FC0DF112001CF0C3F92888EF
:1021A0009DF8121001302880F068806D01709DF854
:1021B0001200F16810F00702C0F3C10081F824207A
:1021C000B1F85C2081F8250002F10102A1F85C2041
:1021D0008A6D02F101028A6506D04049085C021D41
:1021E000F0883281904204D20CF079FB15F09EFD0C
:1021F00021E7304928880DF127071CF0DCFB384621
:102200001CF090F9F068DDF8271032898161298887
:10221000052A114429800BD31C30391D053A1CF0C6
:1022200081F93289D01910F8011CF06880F8261065
:10223000806D0DF127011CF075F93189F088CA43D2
:102240001044F268F080936D10810B449365B2F8EE
:102250005C3019440844A2F85C000298012812D1AD
:102260001648007810B1039801280CD80B497078F3
:10227000097841B138B91048B1780078002918BF01
:10228000042113F0C1F901F01BFFD4E6884F0020B0
:10229000885E0020F85E0020FD5E0020FB5E0020CE
:1022A000DE5E0020FA5E0020606A0020BC5E002036
:1022B000186B00200C5E0020075F0020F0640020F7
:1022C000065F0020005F0020F55E0020CC050200C4
:1022D000C8050200BF6C0020745D00204C0602009F
:1022E000786C0020F0B591B045F6D020C2F2000025
:1022F0001CF02EFA08B111B0F0BD45F6EE60C2F246
:102300000000007816F0C6F90028F4D0044646F61E
:102310006C40C2F200000768002F00F010832078A4
:102320000138122800F20B8304F13206A51CDFE805
:1023300010F01300570070008E00A500C400DE00EE
:102340000B010D01340136014C016A017D010603C8
:102350008B019E01A601B9013868002800F0EF82C8
:1023600000218DF81810CDE90411CDE90211CDE955
:10237000001168682A68CDE9002094F90A000291EA
:10238000ADF80C10C107C1B21CBF01228DF80820A6
:102390008A0744BF01228DF809204A0744BF012261
:1023A0008DF80A200A0744BF01228DF80B20490648
:1023B00044BF01218DF80C10B0F1FF3FDCBF0120BC
:1023C0008DF80D00D4F80B00D4F81210D4F80F20BB
:1023D000CDF81510CDF81220CDF80E003968ACE21A
:1023E0007868002800F0AB820020CDE90200D4F824
:1023F0000B20A368CDE9000060786188CDF80B2040
:10240000029362688DF8000001927A68ADF80210BC
:1024100086E1B868002800F0928200200490CDE99F
:102420000200D4F80B20CDE9000028686968A37A7F
:10243000CDF80920D4F80F200191CDF80D20D4F863
:1024400012108DF808300491B968009075E2F868B0
:10245000002800F074820020ADF80C000290CDE955
:102460000000A17A607802298DF800008DF80A102A
:1024700040F021812888ADF8020022E13869002867
:1024800000F05D82684640211CF026FBA178E278CE
:10249000606800298DF800108DF8012000F0CB81D4
:1024A000002800F0F881017A02298DF80C1040F024
:1024B000CD810188ADF80410CCE17969002900F0E4
:1024C0003E820020CDF80F00CDE90200D4F80A20AA
:1024D000CDE9000028686B680292D4F80E200193C1
:1024E0000392D4F811200090CDF80F2025E2B869AE
:1024F00008B300200690CDE90400CDE90200CDE943
:102500000000B4F801002279ADF80000E0786946D7
:102510008DF80200081D8DF80320611D11221CF0AA
:10252000C9FBA07D00288DF815001CBFA06906908E
:10253000B96968468847A178A0690029002800F099
:10254000FE811CF08FFBFAE1F96991E0396A0029FC
:1025500000F0F5810020ADF81000CDE90200CDE9D2
:102560000000607862888DF800002079ADF80220C4
:102570008DF80400D4F80E006279A379CDF80E002E
:10258000D4F80B008DF80520CDF80B00D4F8070027
:102590008DF80630CDF80700CFE1796A47E0B86AD8
:1025A000002800F0CC816E46304624211CF094FABD
:1025B000A17A607802298DF800008DF80A1040F0A9
:1025C00085802888ADF8020085E0396BA1B1002034
:1025D0000490CDE90200CDE90000B4F80100ADF8A7
:1025E0000000D4E90202CDE90102208A6269ADF857
:1025F0000C006846049288476068002800F09F81BC
:102600001BF0CDF89BE1786B002800F098816D46B7
:10261000284644211CF060FA94F8300002288DF816
:10262000080061D1208DADF8000061E0B96B002990
:1026300000F085810020ADF800006078A2788DF868
:1026400000008DF8012078E1F86A002800F0778119
:102650000020ADF80C00CDE90100A17A009002291C
:102660008DF808104ED12888ADF800004EE0396C86
:10267000002900F0648160788DF800005DE1F86B5E
:10268000002800F05C816D46284644211CF024FAA5
:1026900094F8300002288DF8080044D1208DADF860
:1026A000000044E07B6C002B00F0498100200021F9
:1026B0002A46984743E1684669682A6802304160C3
:1026C0000260A089ADF80C00F96836E169682A68F3
:1026D000B01C41600260207D02288DF8140030D1CA
:1026E000A089ADF80C0030E0E06AA16ACDE90010E5
:1026F00094F83A0002288DF8120038D13088ADF8ED
:102700000A003AE068682968CDE90010A17BA08939
:102710000029ADF80A0018BF0121FA6A8DF80C10E3
:10272000684690470BE1E06AA16ACDE9001094F891
:102730003A0002288DF812004BD13088ADF80A001B
:102740004DE02069E168CDE90310E08A217EADF813
:102750001600206A8DF818100890D4F81D00B96A88
:10276000CDF81D00D4F81900CDF81900E5E0716826
:10277000326805F10A0041600260E06BD4F8421053
:102780000590B4F84000D4F84620E36CADF818008A
:10279000B4F85000CDF81A10CDF81E20ADF8220084
:1027A0000993A07B616D8DF8280094F852000B917D
:1027B0008DF82900D4E90701D4F82320CDE90C01D4
:1027C000CDF837202089ADF8400060680F90796B14
:1027D000B3E07168326805F10A0041600260E06BA5
:1027E000D4F842100590B4F84000D4F84620E36CC9
:1027F000ADF81800B4F85000CDF81A10CDF81E202E
:10280000ADF822000993A07B616D8DF8280094F843
:1028100052000B918DF82900D4E90701D4F8232048
:10282000CDE90C01CDF837202089ADF84000606873
:102830000F90F96B81E0002868D0017A02298DF8A9
:102840000C103ED10188ADF804103EE041680268EA
:10285000CDE901214189ADF80E108189ADF8101044
:10286000817B8DF81210C17B8DF81310017C8DF8DF
:102870001410417C8DF8151041690691017E8DF888
:102880001C10D0F81910D0F81D20006ACDF81D10CA
:10289000CDF821200990207A8DF82800607A8DF8F3
:1028A0002900A07A8DF82A00E07A8DF82B00207B91
:1028B0008DF82C00607B8DF82D00E089ADF82E009E
:1028C0003AE041680268CDE901214189ADF80E1076
:1028D0008189ADF81010817B8DF81210C17B8DF8C5
:1028E0001310017C8DF81410417C8DF8151041698E
:1028F0000691017E8DF81C10D0F81910D0F81D201B
:10290000006ACDF81D10CDF821200990217AE068E9
:1029100011F00702C1F302118DF828208DF8301054
:102920001CBF0B9000EB4200002918BF0D90207CCB
:102930008DF8380060690F903969684688472046ED
:102940001AF02DFF11B0F0BD2DE9F04F99B046F609
:102950009A48C2F20008B8F80000C0072FD046F627
:10296000AF40C2F20000007810BB002505A900208E
:10297000059514F0B5FF08A818F022F946F6C944E9
:10298000C2F2000468B10598002111F02BFB18F089
:1029900036F9014608A8002204F0CCFD0120207081
:1029A00006E005980021257011F01CFB17F0E7FEEA
:1029B00046F69A40C2F2000001211BF035FAB8F841
:1029C0000000400608D51BF0A5FB46F69A40C2F26F
:1029D000000040211BF028FAB8F80000000608D5D6
:1029E0001BF087FC46F69A40C2F2000080211BF0E3
:1029F0001BFAB8F8000044F24C264FF6FF77800728
:102A0000C2F2000640F1DC804FF000080DF1140A1C
:102A100008AD4FF0000B14E036F80B000221ADF8C2
:102A2000200028468DF828100EF0EAFE012040F024
:102A30000400042840F0B9800BF10C0BBBF5167FA5
:102A40005DD036F80B10B942F6D006EB0B09B9F899
:102A50000A40E007F0D0600430D414F4104F2BD0BB
:102A600002208DF81000ADF8081002A82946CDE923
:102A70000588CDF81C8010F0B7FB00281CBFDDE9ED
:102A80000910CDE9061046F6A641C2F2000136F85B
:102A90000B000988ADF81600ADF81410C4F300312E
:102AA000504604F038FCB9F80A0044F6FE410840EC
:102AB000A9F80A000020BAE7A0041ED499F805205E
:102AC00003208DF8140003200123CDF800A00AF0A4
:102AD0003BFA0028A0D0B9F80A0040F48050A9F8C9
:102AE0000A0040F6B83017F0A6FB45F21871C2F2A2
:102AF000000108680130086098E7042097E700208B
:102B000044F6FF7104E000BF0C30B0F5167F09D029
:102B1000325ABA42F8D032185389DD071CBF0B4035
:102B20005381F1E706F10A04002500BF34F80A1CBE
:102B3000B9421CBF20885FEAC07008D10135322D30
:102B400004F10C04F2D13225322D2AD02DE00320DD
:102B500014F8052C8DF8140003200123CDF800A0F3
:102B60000AF0F2F988B1208840F48050208040F6C5
:102B7000B83017F060FB45F21871C2F20001086826
:102B800001300860322D0CD00FE0022034F80A1C0E
:102B90008DF8280008A8ADF820100EF031FE322D77
:102BA00003D142F2107017F046FB46F69A40C2F28B
:102BB000000002211BF038F946F69A48C2F20008DC
:102BC000B8F80000400732D5002040F2013103E0A0
:102BD0000C30B0F5167F0CD0325ABA42F8D0321809
:102BE000538903EA01058D4204BF23F440735381E6
:102BF000EEE7002004E000BF0C30B0F5167F0BD0EC
:102C0000315AB942F8D031184A8902F44072B2F50B
:102C1000807FF1D121B970E10021002900F06D81A0
:102C200046F69A40C2F2000004211BF0FDF8B8F805
:102C3000000000074FD546F69A40C2F20000082176
:102C40001BF0F2F845F21874C2F20004208F0A213A
:102C50008DF814101CF02CF8218F8DF81500084603
:102C60001CF024F846F6B741C2F2000109788DF84D
:102C7000160001292BD108AC204640211BF02CFF67
:102C800002208DF82C0046F6A64046F6B641C2F268
:102C90000000C2F2000100880A78ADF82A00501C3A
:102CA0001E2A88BF0020087042F0A0008DF82D0079
:102CB0000020ADF82E000320ADF84C0005A81290BE
:102CC00004F130001AF085FF20461BF0A3FF42F20A
:102CD000107017F04AFA02F0A1FC07F037F8B8F8C4
:102CE0000000C00563D545F6DC611220C2F2000188
:102CF00008AC0D888DF81400204640211BF0ECFE36
:102D000002208DF828008DF82C0046F6A64046F6E5
:102D1000B641C2F20000C2F2000100880A78ADF8A4
:102D20002A00501C1E2AADF8205088BF00200870D1
:102D300042F080008DF82D0040F20110ADF82E0019
:102D40000120ADF84C0005A8129004F130001AF0F3
:102D500040FF20461BF05EFF08BB46F6CC40C2F2A7
:102D600000000178AB224A43520A02EB42028A1A5F
:102D7000D3B25B0053FA82F245F66013DDE90865D1
:102D8000C2F2000303EB820743F82260BDF828205B
:102D90009DF82D3001317D603A81BB72017046F69D
:102DA0009A40C2F200004FF480711BF03DF8B8F871
:102DB0000000800540F198801BF092FD46F6B84275
:102DC00045F65461C2F20002C2F20001127808AD69
:102DD0004FF6242643F6704946F6B648086014219B
:102DE00005F13007CFF6FF76C2F200094BF6EF6A25
:102DF0000224C2F200088DF814108DF81520CDF8C9
:102E0000160030E0B0F8DCB5284640211BF064FE27
:102E100046F6A640C2F20000008898F80010ADF80F
:102E20002A00481C1E298DF82840ADF820B08DF8E6
:102E30002C4088BF002088F8000041F080008DF809
:102E40002D0040F20110ADF82E000620ADF84C0028
:102E500005A8129038461AF0BCFE28461BF0DAFE90
:102E600080B10F3634D009EB0600B0F8E9155145B2
:102E7000F7D190F8E6150129C4D090F8E81501299A
:102E8000C0D0EEE746F6CC4CC2F2000C9CF8000035
:102E9000AB214143490A01EB4101411ACAB2520038
:102EA00052FA81F1089A45F66014C2F2000404EB6C
:102EB000810344F82120BDF82810099A19819DF852
:102EC0002D10013002245A6099728CF80000C8E776
:102ED00046F69A40C2F200004FF400711AF0A4FFC7
:102EE00046F69A48C2F20008B8F80000002808BF69
:102EF000FFF7F8F919B0BDE8F08F002040F201317A
:102F000005E000BF0C30B0F5167F3FF489AE325AB1
:102F1000BA42F7D0341863890B40012BF2D102205A
:102F20008DF82800ADF8202008A81F2142F2107269
:102F30004FF47A730CF02FFC00287FF471AE608997
:102F400020F4407000F58070608169E62DE9F04F53
:102F50008DB0DFF8FC84824698F88300012840F0A9
:102F6000B980DFF8F0040068416E05A88847DFF8F3
:102F7000E874386808B91BF0FBF91BF04BFCDFF86C
:102F8000244505462078002800F0F58028461BF0EF
:102F9000D2FDDFF8C80401210170DFF8C4143868DD
:102FA000456895F80090097829B90120002113F0AF
:102FB00081F838684568068919F0FEFD2888000701
:102FC00008D5207830B12846314612F0F7F80028AD
:102FD00040F03882284631460AF0EFF90DF113012E
:102FE000642017F0EDFB207838B1DFF8C8040078D2
:102FF00017F0DCFA002800F02282DFF8BCB4B41C21
:103000000DF11201E920ABF8104017F0D9FB9DF843
:103010001200002808BF341D1822A6B2002805F8A7
:10302000024DC6F3022108BF08228818DFF84C14AD
:103030006870E0B2097851B13968097D39B1BBF8DF
:10304000100019F069FB002800F023812878C0F3F4
:10305000401130460FF05EFC9DF813300021CA4A43
:10306000DFF80044CBF81C50DFF85074ABF80210C6
:10307000002B08BF02F5B252089121690A903A610B
:10308000CBF8182021B1DFF8D00300680C30884756
:10309000A06808B180470B90DFF82464DFF824545F
:1030A000002009F0200470806880687B00F0F00048
:1030B000033068731BF0AEFBDFF8D833BAF1050FAD
:1030C000039000F2E880DFE80AF003F5E6E8F5F4A3
:1030D0003546EFE0DFF87C83D8F80000416E05A8A4
:1030E0008847DFF874B3DBF8000008B91BF040F93B
:1030F000DFF8680301210170DFF86403007818B974
:103100000120002112F0D6FFDBF800004468058999
:103110002078C0F3401128460FF0FCFBDFF8449301
:103120000A90D9F8101019B1DBF800000C3088476C
:10313000D9F8080008B180470B90CB48007878B3E5
:10314000D9F8201041B38847C9490028C94B0A461D
:1031500008BF023212781A708DF83020CA1C00287D
:1031600018BF4A1C10788DF83100C0481978022920
:1031700008BF023011E0CC48017821B9CB49097869
:1031800000293FF403AFCA4902220A70007883285D
:103190007BD116F0ABF878E0B448018801310180AA
:1031A00015F026FEB548B44E0078F57350B1DBF843
:1031B0000000007D30B1284614F07CF819F0ACFA1C
:1031C000002866D00027346177801BF023FB05467A
:1031D000BAF1000F7780089705D0BAF1010F2ED110
:1031E000A748A849C161A648A349027B437BC47D87
:1031F00041604F60478002F0F002027303F0F0027A
:103200000232427304F0F0020432C2754A7B22F0AB
:103210000F02531C4B73DBF800305C682478A40663
:1032200007D5994C42F002024C605B689B784A7368
:10323000A373964E7060707B00F0F000707394483A
:10324000D8F800100822934B0C6D00210068CDE9DE
:10325000002105AA3146A0478F49B0F1FF3F088001
:1032600007DD8E48844901608D4801780131017085
:103270000BE0D9F8004034B1DBF800000021002257
:1032800000230C30A0471BF0A5FB28461BF053FC85
:10329000D8E0E120D4E05D460CE098F853001D46EC
:1032A00017F01CFEC07B2B46864D022818BF5D46DA
:1032B00000E0854B9BF80D004FF00009CBF804901F
:1032C00020F00F00411C8BF80D100CB9022741E0D3
:1032D00040F00200A7F80290DFF8F091AA214FF425
:1032E0007A76CBF804701C468BF80D00387B00F022
:1032F000F0000730387399F80000B1FBF0F1B6FB2D
:10330000F0F2511A48438000B86098F8530016F064
:10331000B1F96749862223460A70624940F22C724D
:10332000097800294FF4F47108BF4FF4F67208BF12
:103330009821042808BF114699F800004FF0200991
:10334000B6FBF0F2114448434FF47A6101EB800080
:1033500038625F4FDFF844815E493F4EDDF80CA0D4
:10336000D8F80000884211D049495B480968028AB0
:10337000B1F84840944209D1C089B1F84610814261
:1033800004D1287B2C4612E00E7A5555524C5349F5
:103390000020012260800A70C4E90150617B207B1B
:1033A00001F0F00120F00F0002312073617300F092
:1033B000F000002120733B48A1600078A0B1306884
:1033C00090B1007D35280FD022481D460068C06BA3
:1033D0008047217B2B46A060059001F0F00102316F
:1033E000217301218DF818101A49294809680068CD
:1033F0000D6DCDE9007905AA2146A8472649B0F10F
:10340000FF3F088007DD2648C8F800B00178013189
:10341000017050463AE7134804682CB1002000219F
:1034200000224FF08073A04750461BF084FB1D48DC
:10343000007850B1306840B1007D352805D11A20A0
:103440000AF000FB0DB0BDE8F08F1BF0C3FAF9E7FE
:10345000884F0020845E0020786C0020C16C002022
:10346000AC6C0020F8FE0100106A0020305D0020E6
:10347000FC5D0020F25E0020885C0020B56C00201E
:10348000105A0020006A1800F45C0020E86A00204E
:10349000AC6B002041500000E65E0020146A002062
:1034A0000D6A0020F0640020F85E0020FB5E002022
:1034B000005F0020F65E0020305A0020EC5700200C
:1034C000945B0020785B0020E9B80000FC5E0020DF
:1034D00002004300585C0020705C00200B6A002052
:1034E0002DE9F84305460C46480413D4A00024D423
:1034F000A0075CD460057ED4200500F1048120077C
:1035000000F13781600040F1F48014F015FB24F0E5
:103510008044EEE01BF07EF9DFF810140F6D3FB130
:10352000D7E90A1202F0E04201F00A01891849D0F5
:103530001BF001FB24F48044DBE0B948DFF8F073B2
:10354000016841F080010160B878012804D10420AD
:1035500018F01EFA0020B8701BF05CF90646042033
:103560001BF084FBDFF8CC130A68904219D12A7E45
:10357000BAB1FA68AAB1DFF8B403806C002800F091
:103580009580C16840F603020988914206D0C06860
:1035900040F604010088884240F0888005F114005C
:1035A00086E040F6C4120860C5E9042282E007F014
:1035B00083FCDFF87803006C002840F09B8024F047
:1035C000020496E0D7E90A65D7E90A12AA43B14393
:1035D000C7E90A121BF0AFFAB8680028AAD056EA69
:1035E0000500A7D0D7F808C03869B7F930103246BF
:1035F0002B46E0479EE71BF00DF9054619F0B2FC9B
:10360000002800F0B380C948876B002F00F0AE801F
:10361000DFF81C830420C849002288F81800C3483A
:103620001AF08CFD1BF0A2FAC4481BF07EFA1AF0C7
:1036300099FDC8F810000125042088F8025018F000
:1036400019FD386990F82810C8F80400490703D517
:10365000436A042100229847012015F0EDFAD8F8BA
:103660000400457610F05CF8D8F8040081680B4639
:103670001A465B684BB11E88A6F60306072EF7D8DC
:1036800005FA06F616F0830FF2D0537B03F0F00331
:10369000013353730023FD6853602D88A5F603059D
:1036A000012D00F28880C8F810309DE005F110006F
:1036B00017F0D8FB30461BF03EFA18F0F3FC78B157
:1036C0002E6A28466FF4807100224FF00073B047D5
:1036D0009648806B10B114F02FFA01E044F0020418
:1036E000EE692846002100224FF08063B04724F0A5
:1036F000005434B1944821462830BDE8F8431AF00C
:1037000087BBBDE8F8838A4EB078012804D1042035
:1037100018F03EF90020B07018F0C4FC38B17068A1
:103720006FF4807100224FF00073056AA84730697A
:1037300040B11AF017FD32697168801A000BC86039
:1037400000203061794D7F49002228461AF0F6FCAE
:1037500002203076286C20B17B48022128301AF0F4
:1037600057FB14F0E9F924F40064C2E71BF0FEF9FA
:1037700041E01BF04FF8054619F0F4FBA0B1DFF86B
:10378000B08198F8000000070ED498F900000028D6
:103790000AD4684610F00CF908B1009820B1DFF89F
:1037A000AC9199F8610048B31BF0E0F914F0C4F94A
:1037B00024F008049DE7034633F8385FA5B190F87C
:1037C000445090F8456005F0F00580F8445006F04C
:1037D000F005013580F8455000255360C5634587E5
:1037E000507B00F0F000507355480022C261016028
:1037F000012019F0D5FE24F480647AE70026012721
:10380000602E0FD009EB0600817A31B18772407AC1
:1038100007FA00F0C0B218F0D5F82036F0E700BF84
:10382000CC210840032088F8180044481BF07DF99B
:103830001BF09CF9424F3D4D0022786900207861D1
:10384000F968F860284642491AF078FC1AF08AFCB8
:10385000D8F80C10D8F82020411A02EB1130B0EB48
:10386000113F38BF4FF0FF3098F82410C8F82000FF
:1038700021B1D8F80810B0EBC12F20D919F0A0FE63
:10388000B8B140F60900414621F83C0F00204880BD
:103890004A7B02F0F00201324A730A7B02F0F00226
:1038A0000A734860F8613960B8F83E0010F4406F60
:1038B000FAD00020C8F82000012088F8240016F073
:1038C00059FB2448002101600220002119F068FE04
:1038D000022018F05DF810200EF0C2FF98F80100E9
:1038E00020B9D8F8040050301BF0D4F91A48807879
:1038F00010B90D200EF0B4FF98F8250028B1002073
:1039000088F82500052018F043F8002088F81800F2
:103910001248C8F81C000220B5F85610B5F854201B
:10392000914208BF072013F0EDFB3FE7EC66002053
:103930005C650020FC6B002041CF01007C5400201E
:1039400000100440E1EF00002C6600201050002021
:103950009D7B0100000004600C050200E5EB000007
:103960002DE9F04F89B0002A039300F0DE818046F4
:1039700005A891460E46103000274FF0200A02900D
:1039800002E000BF01378146484610F8011B252997
:103990000CD0002900F0C281022EF3D3B8F1000F41
:1039A000A6F1010618BF08F8011BEBE799F8011012
:1039B0002D2925D199F8021009F103090124302994
:1039C00023D04FF0000C0B462A2B24D0A3F130005B
:1039D00009282FD83D46A9F101004FF0000B00BF88
:1039E0000BEB8B0203EB420210F8013FA2F1300B0C
:1039F000A3F130070A2FF3D300F101092F461BE092
:103A000009F1020900243029DBD119F8013B4FF0FC
:103A1000010C2A2BDAD1039B1868021D1A60D0F81A
:103A200000B0BBF1000F44BF0124CBF1000B19F82B
:103A3000013B01E04FF0000B2E2B049412D14846BD
:103A400010F8013B2A2B40F06080039B1868021D90
:103A50001A60006899F8013020EAE07E09F1020955
:103A600002E000BF4FF0FF3E302903F0DF0008BF47
:103A7000DC464C2808BF19F8013BA3F16300152868
:103A800000F2AB80DFE800F0A35BA9A9A9A95BA9BC
:103A9000A9A9A9A90BB3A9A9D9A90BA9A90B039AEB
:103AA00001971068782B00F1040111604FF00807AE
:103AB000006808BF1027752B08BF0A27F445714618
:103AC000C8BF6146029D40F2C13A0023C0F2020A1B
:103AD000B0FBF7F4013304FB170201391AF8022096
:103AE000874205F8012D2046F2D9E645C8BFF446C5
:103AF000019F634504DA6D1A284630221AF0A2FFAE
:103B000002984FF0200A401BBAE0A3F13002092AC4
:103B100059D83D46A9F101004FF0000E0EEB8E0280
:103B200003EB42028378A2F1300EA3F130070A2F93
:103B300000F10100F2D300F102092F4694E7039A45
:103B4000E6451068019700F104011160D0F800A06B
:103B5000C8BFF446BAF1000F504648BFCAF1000092
:103B60000CEBEA7C029D4CF6CD4E40F2C1340023B2
:103B70006146CCF6CC4EC0F2020400BFA0FB0E7230
:103B8000D20802EB8207A0EB4707E75D013305F897
:103B9000017D013909281046F0D8634504DA6D1A11
:103BA000284630221AF04EFF019FBAF1FF3F04DC95
:103BB0002D2000EAEA7005F8010D0298049C401BD4
:103BC0004FF0200A5DE04FF0000E81464CE7039A6B
:103BD0001068011D1160006804E0022EA9F10101C6
:103BE0004AD308788DF81400012005AD48E0039B06
:103BF000129A1868049C011D1960016840F2C133D3
:103C0000029DC0F202036FF00700002A01F00F02CC
:103C10009A5C090905F8012D00F10100F6D1C11DDA
:103C200005D305444142284630221AF00BFF4020BC
:103C300005F8010D0298401B23E0039B129A1868B7
:103C4000002A00F104011960056840F20060002DAF
:103C5000C0F2020008BF0546002000BF295C013009
:103C60000029FBD1411E8E45084638BF70461EF123
:103C7000010208BF084603E0002005AD894600BFE9
:103C8000049CABEB0001B4B13A4658B3034603E0E1
:103C9000013B05F101050BD0022EF9D3B8F1000F5D
:103CA000A6F101061CBF2F7808F8017BF0E700BFE2
:103CB0008718DCB968E601292EDB0BEB070202E06E
:103CC0000139002909DD022EFAD3B8F1000FA6F15F
:103CD000010618BF08F801ABF2E7121A4FF0FF31E6
:103CE0000028D3D11746002C3FF44EAE0129FFF631
:103CF0004BAE10444A1C02E0013A012A0ADD022EB2
:103D0000FAD3B8F1000FA6F1010618BF08F801AB0D
:103D1000F2E700BF471837E60139B5E7B8F1000F01
:103D20001CBF002088F8000000E00027384609B0DA
:103D3000BDE8F08F2DE9F04F81B0D0F80C9004462B
:103D4000B9F82CA0BAF1000F21D071B1087860B198
:103D50004A1C012001E000BF013212F8013C002B97
:103D6000FAD1137813B10130F6E7002080B248B3DE
:103D7000012840F09D8000294FF6FF7000F0B280CE
:103D80000B780022002B08BF4FF0FF32ACE040F26E
:103D9000A520C0F20200451E152600BF226815F8B6
:103DA000011F20469047013EF8D14FF6C15600252D
:103DB000C0F201062268715D204690470135022D50
:103DC000F8D17AE1B9F82C00002800F0768140F2B1
:103DD0005060C0F202004FF6C1574FF0000BA0F147
:103DE0000108C0F2010706E0B9F82C000BF1010B45
:103DF000834580F062810325464600BF226816F89D
:103E0000011F20469047013DF8D1D9F824000BEB63
:103E10008B0A50F82A000022461E0220314600BFBD
:103E2000154611F8012F0138002A05F10102F7D1DA
:103E3000012806D0226816F8011F20469047013D50
:103E4000F8D100252268795D204690470135022D82
:103E5000F8D1D9F8240000EB8A0040680028C3D0CC
:103E60002268204609219047D9F82400002200EB5F
:103E70008A004068461E0220314600BF154611F8F0
:103E8000012F0138002A05F10102F7D1012806D0DF
:103E9000226816F8011F20469047013DF8D1002501
:103EA0002268795D204690470135022DF8D19BE7C5
:103EB0004FF62360C0F20100451E2D26226815F83A
:103EC000011F20469047013EF8D14FF6C15600250C
:103ED000C0F201062268715D204690470135022D2F
:103EE000F8D1EAE04FF6FF7293B2B3EB000B18BFC4
:103EF00011FA82FBD9F82480BAF1010FD8F800003A
:103F00004FF0010659464FF0010988BF564601F0AF
:103F10001BFAB0B108F11405012700BFBE4218D04A
:103F200055F8140B594601F00FFA002807F1010764
:103F3000F4D1781E4FF00009504538BF4FF0010909
:103F400000E0002000EB800008EB8000D0F8048047
:103F500007E057454FF000094FF0000838BF4FF019
:103F60000109B9F1000F18BFB8F1000F1CD1B9F168
:103F7000000F67D040F2A520C0F20200451E1526B2
:103F8000226815F8011F20469047013EF8D14FF6F0
:103F9000C1560025C0F201062268715D2046904797
:103FA0000135022DF8D188E040F25060C0F20200E5
:103FB000451E0326226815F8011F20469047013E42
:103FC000F8D1ABF101050120294600BF11F8012FFE
:103FD0000138002AFAD140B1464200BF226815F8E4
:103FE000011F20469047013EF8D14FF6C1550026EB
:103FF000C0F201052268A95D204690470136022ED5
:10400000F8D12268204609219047A8F10106012035
:10401000314600BF11F8012F0138002AFAD140B112
:10402000474200BF226816F8011F20469047013F13
:10403000F8D100262268A95D204690470136022E5D
:10404000F8D13AE040F27630C0F20200451E122666
:10405000226815F8011F20469047013EF8D1ABF1C8
:1040600001050120294600BF11F8012F0138002A5F
:10407000FAD140B1464200BF226815F8011F204620
:104080009047013EF8D14FF69050C0F20100451E16
:10409000302600BF226815F8011F20469047013ED8
:1040A000F8D14FF6C1560025C0F201062268715DB5
:1040B000204690470135022DF8D101B0BDE8F08FC0
:1040C0002DE9F04186B0C24EC24CC34D3088216804
:1040D000EA88084400F10801E868806D1AF022FAC5
:1040E000EA68E8883188DFF8F482936D0144318012
:1040F000184490652068012298F8837010FA81F0C6
:1041000000F108010DF113001AF00CFA30880130AB
:10411000022F308013D1216801221AF060FC68461A
:104120001AF000FA308821680122013030801AF03C
:1041300056FCAB481AF0F6F930880130308021681F
:1041400005AC04221AF04BFC20461AF0EBF930883B
:10415000042104303080204618F0FCFB059019F053
:10416000BBFCE968C863059819F05AFAE968A1F838
:1041700040009C48007818B118F096FDE968C863C3
:10418000EA2018F0DDFD9848426812B1E868012184
:10419000904702219548022F017009D19448007878
:1041A00030B1A87C800916F021FE08B10120A8706A
:1041B000E968A8780A7C002818BF42F004029DF93B
:1041C000130000240A74002118F003FC0146E8687B
:1041D00080F846109DF81310B0F85C2080F8474036
:1041E00080F8481000F1740181650189511A426814
:1041F0000A44818942608B0513D40B071CD501F05A
:104200000703032B0AD053B912F8033F382404EAFA
:10421000530403F0070304EB43031A4401324261E1
:104220000AE012F0B5FBE868416E11B1B0F8681011
:1042300079B1416841618189090711D490F8601012
:10424000D1B114F00DFBE868C16CA9B1B0F8500011
:1042500090B905F10C001AF0FAFB0020E86038E094
:1042600007F05EF9E9684870E8688169416540785F
:1042700010B1F22018F064FD5E4C2078002800F0A8
:104280009D80E868828902F00701022904D15A4B17
:104290001B780BB94378FBB1584B1E780123002ED5
:1042A00000F0878002F44052B2F5005F40F0818058
:1042B0004278A2F1DB03182B62D8012606FA03F339
:1042C0004F4E33425CD0012903D1042181730AF09F
:1042D00009FD13F02BFD78E000218DF8121000F19C
:1042E00028010DF10A001AF080FCE8680A2200F1AA
:1042F000280168461AF016F9434E636A0DF112025E
:104300000421308801303080E868406E984730B929
:104310003E48006818B19DF8121080F86810E868EF
:1043200090F83010022911D12830002108EB010348
:10433000425C93F820309A4208D101310229F5D12C
:1043400008F116010DF10A001AF04FFC3048007810
:1043500086280AD17088E9680130898970802D48E3
:1043600001F01001007815F03FF8207818B1A16C29
:1043700009B1E868884705F10C001AF068FB20E0F5
:10438000002AA6D11F499DF81320AB780A701E4958
:104390008A880132002B8A8000F1280100F11C027A
:1043A00018BF0423184615F049FC2378002B18BFCA
:1043B00001231BB1A16C09B1E8688847E8680AF0DD
:1043C00091FC0020E86019F0DBFB06B0BDE8F0814D
:1043D000DE5E00200C5E0020606A0020884F002016
:1043E000FD5E0020C76A0020F8FE0100F85E002094
:1043F000BF6C0020F0640020065F0020FB5E002000
:104400001F220001055F0020085D0020786C00205D
:10441000005F0020075F00202DE9F04F8FB083463A
:10442000C0891446073086B230460F4606F05CF865
:104430000546FF280FD13046FBF702FEB0420ADAEC
:1044400045F6A350C2F200000078002808BF0520FE
:104450000FB0BDE8F08F45F6A350C2F200008046D1
:10446000007845F23446C2F200060697E8B91CB15E
:10447000022C1AD1FF2D18D19BF80800DBF804207C
:104480008DF82400F078F18808923546002607AAB6
:10449000032300962E4601F089FB9DF82C00BDF801
:1044A00028108BF81000ABF80C10F77844F2A440F9
:1044B000C2F2000000684FEAC72AB6F806900EAABA
:1044C000514604231AF0E2F89DF8380045467E284C
:1044D0002ED145F2DC00C2F2000001687C208DF88C
:1044E0003100B9B188470B24002818BF0024A8B1B7
:1044F00044F2A440C2F20000006804250DF131022C
:10450000514601230095454619F00EFF002848BF8B
:10451000012404E0002401200028E9D10B242C70A0
:1045200034B907EB470006EB80007C21F7708175FA
:104530009DF838007C2863D1BBF80E60F01D19FA95
:1045400080F8B8F5006F5DD8CDE9040783B2BBF8F9
:1045500006009BF80810C0F3012242EA81018DF8A1
:104560003110BBF804108DF8320088088DF8330044
:10457000C6F3851040EA81108DF83400B0000C2B92
:1045800006EB090B8DF8350042D845F6A457C2F268
:104590000007069938463246CDE902381AF08AFB00
:1045A000DDF831009DF8351007EB0608B851701D95
:1045B00088F8041082B200203946002418F056FE14
:1045C0009DF8351041EA9011800002308DF83600D8
:1045D00096208DF83510DDF831108DF8370045F252
:1045E000DC00C2F20000B95101680D980029C8F83A
:1045F000030044D088470B24002818BF00243FE064
:10460000012000E00520287028780FB0BDE8F08F69
:10461000069900203246002718F028FE0DF13101DE
:10462000052218F023FE9DF8351045F2DC0441EA1E
:104630009011C2F200048DF835108000216802301C
:104640008DF8360096208DF83700C1B388470B27C8
:10465000002818BF0027A8B344F2A440C2F200000B
:104660000068069A0AEB09014FF0040C3346CDF8B6
:1046700000C019F059FE002848BF012723E001209F
:1046800045F23446DDF80C80C2F2000698B144F2DF
:10469000A440C2F20000006845F6A452029B0AEB57
:1046A00009010427C2F20002009719F03DFE00281C
:1046B00048BF012400E00B2405982C702FE0012056
:1046C0000028C9D10B27216845F23446C2F2000602
:1046D0002F70B9B188470B24002818BF0024A8B157
:1046E00044F2A440C2F2000000681AFA8BF10427D9
:1046F0000DF131020723009719F016FE002848BF7C
:10470000012404E0002401200028E9D10B242978A9
:10471000059841EA040211062A707FF475AFF28809
:1047200004991144F180297800EB400206EB8202E3
:104730000029A2F81C803FF467AF1FFA8BF10AF042
:10474000D1F961E72DE9F04F8FB0DFF80C83054612
:1047500098F80A00C0001AF087FA00280C9000F0C0
:104760006F811AF057F800900DF13A01822005F0A0
:10477000B3FBBDF83A004FF6FF7988BB00264FF037
:10478000FF3708AC0020B8F8041082B2ADF83A0048
:104790008A4220D2ADF820000020CDE90A77ADF89A
:1047A0002690ADF8249098F80A10884209D20C9906
:1047B00041F830600C9901EBC0010130A1F8049080
:1047C000F1E7D42021468DF8346002F07FFBBDF87C
:1047D0003A000130D7E70DF13A01822002F076FB72
:1047E000281D019008A80830029005F115000390DB
:1047F00004AE0020F71CB8F80810ADF83A0080B2FB
:10480000884280F01F814FF0000A012498F80BB015
:10481000DA4527D2BDF83A0031468DF812A0ADF83E
:104820001000D02005F058FBC8B99DF81C40012CA1
:1048300007D19DF81B0020B9384619F079FB0028F4
:104840006ED1287D844209D1002C4FF009023846F0
:1048500008BF0522039919F07BF840B900240AF13A
:10486000010AD3E7002C5BD1E87F002858D0002450
:10487000B8F80600844251D2BDF83A003146ADF88E
:104880001240ADF81000D12005F026FB78B9BDF834
:10489000140048450BD0ADF82000D42008A905F03D
:1048A0001BFB002840F0BB801AF09EF808B90134C9
:1048B000DEE728680990DA452AD2287B98F80AE0D2
:1048C000BDF83AC00C9A8DF834000020864500F0FF
:1048D000A680034602EBC0008188494502D0581CDF
:1048E0006145F3D1286942F833000C9800EBC3000E
:1048F000A0F804C0D42008A902F0E8FAA87F9DF827
:104900001610814208D08DF81600D120314601E002
:10491000D42008A902F0DAFAB8F80600844203D0DD
:10492000BDF83A00013066E7B8F80400002681B20D
:10493000B4B28C427BD2ADF82060D42008A905F037
:10494000CBFA00286BD1029819F0F2FA18B91AF0D4
:104950004BF800285FD0286898F80A300C99039625
:1049600000260990287B8DF83400BDF83A00B34248
:1049700060D0324601EBC606B7884F4502D0561CC0
:104980008742F4D1DA4534BF2B69002341F8323035
:104990000C9901EBC20108228880DDE9011019F0B1
:1049A000C1FD2E48007830B12C48026D1AB1BDF817
:1049B0002010019890470027B8F80600BEB2864242
:1049C00023D2BDF83A00ADF81270ADF81000D12036
:1049D00004A905F081FAE82805D0BDF8140048457F
:1049E00001D00137E8E7BDF82000ADF81400002041
:1049F0008DF81700A87F8DF81600D42008A902F0C2
:104A000065FAD12004A902F061FAB8F804008642E0
:104A1000039E02D20BE0B8F80400013687E71AF0D3
:104A2000A2F80C9808B11AF01DF9192011E080B213
:104A3000844207D11AF097F80C9808B11AF012F9CD
:104A40001A2006E01AF08FF80C9808B11AF00AF94B
:104A500000200FB0BDE8F08F186B0020F06400203C
:104A60002DE9F047AC481D46144690F88300012814
:104A700028D1AA481FFA81FA0121A94EAC4F017032
:104A80000020F0703878832802D1706919F0F8FEA0
:104A9000A8064FF6FE783BD415F0E04F6CD096F99F
:104AA0000600012802DBB0790138B0719E484268E7
:104AB00005F08070002A77D000287AD000200021ED
:104AC000904772E095480121954E0170002005F055
:104AD000E041F07004F002004018924807682AD0C4
:104AE00096F90600012802DBB0790138B07196F919
:104AF0000500012802DB7079013870718A4842682C
:104B000005F0807022B378B300200021904720E0A8
:104B10008848A6F80A80007883281CBF8320387054
:104B20008548007820B13169002957D00020884796
:104B3000A6F80AA052E0600231D4E00300F19780A9
:104B4000A00340F1A0800020387115F00DFD9AE01F
:104B500050B196F90700012802DBF0790138F071B5
:104B60000120307119F06CFB0020387113F0DEF871
:104B70007079002874D18CE014F4860F00F0A580C1
:104B800084F48030A6F80AA0C6E90645284325D15A
:104B90006A484088B0F5505F00F0AA801EE000200F
:104BA000387113F0C3F86EE018B10120307119F0BC
:104BB00047FBF07E400703D519F042FBC6E90645E6
:104BC0007089504508BF13F0B1F8A6F80A8096F92D
:104BD0000500012802DB707901387071A00733D518
:104BE000DFF8589143F20141B9F80200884209D038
:104BF00043F20441884205D0544940F609024988ED
:104C0000914251D1707A0130707296F906000128F4
:104C100002DBB0790138B07113F088F818F056FA59
:104C20000020A6F80A80A9F802004348007810B1D5
:104C30004748007808B919F003FB96F905000128E8
:104C400002DB707901387071B07908B90020B0705A
:104C5000707900B304F0020005F0E04140181ED066
:104C600096F9050000281ADC19F082FB17E02F489E
:104C7000007820B1052012F01DFB16F03FFF002048
:104C80003871FCF78DFFA00648BF1AF02DF8707937
:104C900028B90020B0700020002111F00BFA1F4845
:104CA00000210170BDE8F08796F90610012902DBAA
:104CB000B1790139B1717189514523D1B07E10F0BC
:104CC000410F25D0FCF76CFFAAE71F4804423FF4D0
:104CD00085AF84F08060A6F80AA0C6E9064528439F
:104CE0007FF47CAF1548408840F002000228ABD129
:104CF000144913480022096800684B690FFA8AF1C9
:104D00009847A1E743F6040188423FF487AF87E75D
:104D100013F00CF884E700BF884F0020AC6C002033
:104D2000086A0020BC5E0020F8FE0100B56C00207F
:104D3000F85E0020005F0020F0640020EC570020A7
:104D4000AC6B0020845E002000000C8C585C0020BE
:104D5000FB5E00202DE9F04F87B00446007D92F8FD
:104D600008A0994693468846352805D004F170007E
:104D700059460A2219F0D6FBE08A0821AD4B01EA18
:104D80009001DE8C217641076FF07F0158BF102122
:104D90006176C10693F8341048BF0021A1764FFA1E
:104DA00088F1B1F1FF3FD8BF4FF0FF362021D4F892
:104DB00004E001EA401100F0080041EA4000217DD2
:104DC0008A1E0A2A0CD80C2908BF00F508500C3995
:104DD000B1FA81F140F0030049094FEA410C0AE0C1
:104DE0000D2905D314BF40F0010040F0020000E09F
:104DF00008434FF0000C94F88C100746002918BFA8
:104E000047F008073A0707D493F83820002A18BF5C
:104E1000384621D1A1B91FE091B193F8380078B19B
:104E200004F12403204659464A46CDF810C00CF040
:104E30001FFC38B105466070F32017F081FFF5E0E4
:104E4000DF25F2E0E08AD4F804E07A4BDDF810C008
:104E500000F0040047EA8000216DCDF818A019B9D0
:104E6000A16D002900F0878040F408504FF0020C3B
:104E7000714908F07F0ACDF81490097851B96F494B
:104E8000097839B194F86B10042904BF4FF0020C73
:104E90006CF31F3040EA8839BAF1030F10D0BAF131
:104EA000020F11BFAEF1010793F82B000EF8010CB1
:104EB00093F82A0004BF0EF8020CAEF103070CE0D1
:104EC000AEF1080003F144011F466546F04619F0B3
:104ED0008CFE3B46AC46A8F10907109DBCF1020FC1
:104EE00008D1BAF1000F17D00698B0B9B0B24FEAA6
:104EF00010282CE0BAF1000F08D0069830B10599BF
:104F0000B0B2884202D149F0400905E0BAF1000F81
:104F10001CBF27F8016C023F069849EA8029D0B1EE
:104F2000059E03284FEA16280AD002280FD19BF8C5
:104F3000010038709BF8000007F8010C023F06E002
:104F4000F81F59469A4619F050FE5346083F07F895
:104F5000016C07F8028915B149F4807932E0207DAF
:104F6000B0B10D281DBF93F82200411C83F8221018
:104F700019F0E6FC24E093F85110012910D12189A1
:104F80008908762914D810F008013FF471AF0FE0BA
:104F9000206D90B193F83900411C83F839100FE06F
:104FA000020705D402297FF463AF40F4005001E00A
:104FB00040F480504FF0010C5AE7187D411C1975E0
:104FC00007F8010927F8019D606821896760C01B07
:104FD00051FA80F020815FEA097025D5A06D00B1FB
:104FE00020621648007810B1207D0D281CD1606A1F
:104FF00010F1150102D119F0BBF9606A816A4A1CEF
:105000008262A162D4E90835208994F88C20FE1AC6
:105010000644B6B28DE8490005F115003B460BF099
:105020000BFD08B1054600E000256570284607B075
:10503000BDE8F08F884F0020F55E0020F06400206E
:105040002DE9F84FDFF88C828A4683460120A24979
:105050001D46144688F80000002008709F4991F80A
:10506000831001291AD19F4E306808B919F080F9D0
:105070009D48076817B1A54819F0F0FBA00731D487
:1050800015F0E24F5FD09A48017801390170A448C9
:105090000078862823D115F067FADFE09049914E19
:1050A0000870306808B919F063F98F48076817B1BC
:1050B0008E4819F0D3FB15F0E24F36D08C480178BA
:1050C000013901708948406818B18A48C1890131A5
:1050D000C181306840680078800600F1B48016F025
:1050E00011FEBBE0DFF80892002199F800000138BA
:1050F00089F800007A480170854843F20A414088E7
:1051000040F002028A4205D0824A528842F00203ED
:105110008B4265D100200AF06FFE99F8000000284C
:1051200000F0A68099F900009DE0200719D46F488F
:10513000406818B16F48C1890131C1816C4801785C
:105140000139017087E004F4860005F02001401861
:1051500000F081805846514622462B46FFF780FCDE
:105160007CE0634C42F205422078013820706248AE
:10517000418841F00400904218D15C48406818B161
:105180005C48C2890132C2815A4842890132428157
:1051900042F20542E120914208BF1C2008F052FC77
:1051A0002078002864D094F900005CE04F4842F673
:1051B00006024188914226D0B1F5105F45D1406981
:1051C0005149086015F07CFC4C480078002845D017
:1051D0004C480168013138BF0160002101813DE088
:1051E0004A4943F604034988994218BF9A4248D174
:1051F0004C48007800F0FE0002287FF48BAF0020BE
:1052000008F020FC38E0406818B13A48C189013103
:10521000C1813A48007808B339480421007802284F
:10522000344808BF0621425A01324252354841688B
:10523000013138BF41600189428901318BB201815E
:10524000934288BF4181E92006E0406818B12948AF
:10525000C1890131C1811D2008F0F4FB2448017887
:1052600031B190F90000002806DC19F081F803E064
:105270000020002110F01EFF002088F80000BDE88B
:10528000F88F43F604029042B2D0234840F6090258
:1052900040889042ACD0B1F5505F10D11F481A49F8
:1052A000006800F5C07008601D48007886280CD1A1
:1052B0005846514622462B4614F0E6FC07E0080506
:1052C00005D51D2008F0BEFB01E015F0F9FB18F034
:1052D000B7FFC3E7AC6C00200B6A0020884F0020AA
:1052E000C16C0020786C0020F8FE0100885C002072
:1052F0000D6A0020305D0020105A0020106A002046
:10530000F25E0020BC5D00209C5E0020305A002030
:10531000945B0020785B0020705C00202801002155
:10532000005F0020035F002004490A6802604A68A9
:1053300042608A688260C968C1607047404502580F
:10534000A2EB0300704700BF02780B78012A28BF48
:105350009A42F5D16DE9044540EA0104CDE90267BE
:105360006FF0000C4FEA447212B380EA010414F0AB
:10537000070F6AD100F0070420F0070004F00305CE
:1053800021F007014FEAC505F0E8042314F0040FEB
:10539000F1E804670CFA05F462EA040266EA04061E
:1053A0000AD063EA0403624667EA0407664603E03C
:1053B000F0E80423F1E8046782FA4CF582EA060477
:1053C000A4FA8CF46CBB83FA4CF583EA0705A5FAC2
:1053D0008CF595B950E9022351E9026782FA4CF540
:1053E00082EA0604A4FA8CF483FA4CF583EA0705F2
:1053F000A5FA8CF52543DBD09CB92DBAB5FA85F416
:1054000024F0070427FA04F1DDE9026723FA04F324
:1054100003F0FF0001F0FF01FDE80445A0EB0100EF
:10542000704724BAB4FA84F424F0070426FA04F18D
:10543000DDE9026722FA04F202F0FF0001F0FF0149
:10544000FDE80445A0EB0100704714F0030F3CD1C8
:1054500010F0030428D150F8082B51F8083B82FAC9
:105460004CF582EA0305A5FA8CF55DB950F8042CD9
:1054700051F8043C82FA4CF582EA0305A5FA8CF552
:10548000002DE8D02DBAB5FA85F424F0070423FAEC
:1054900004F122FA04F202F0FF0001F0FF01FDE83E
:1054A0000445A0EB010070474FEAC40420F003005C
:1054B00050F8082B21F0030151F8083B0CFA04F4D2
:1054C00062EA040263EA0403C9E710F003041AD095
:1054D000A1EB040120F00300E40750F8042B06D0F0
:1054E0000FD28B785FFAA2F4E41A06D12BB1CB78F5
:1054F0005FFAB2F4E41A00D11BB920465DF8104BF4
:10550000704701F1040150F8042BCC0721F003018E
:1055100051F8043B48D824D222F07F4482FA4CF55B
:1055200094EA1325A5FA8CF50AD165B951F8043B24
:1055300084EA0204B4EB036F0ED150F8042BEBE7BE
:105540004FEA132355E035F07F454DD10878FDE84B
:105550000445C0F1000070474FEA126203F0FF03F8
:1055600047E002EA1C4482FA4CF594EA1345A5FA96
:105570008CF50AD165B951F8043B84EA0204B4EB16
:10558000034F0CD150F8042BEBE74FEA134330E004
:1055900015EA1C4528D10B884FEA124229E04FEA50
:1055A000124203EA1C4324E002F0FF0482FA4CF5A5
:1055B00094EA1365A5FA8CF50AD165B951F8043B54
:1055C00084EA0204B4EB032F09D150F8042BEBE773
:1055D0004FEA13630DE015F0FF0F05D10B684FEA9A
:1055E000122223F07F4304E04FF00000FDE8044561
:1055F000704712BA1BBA82FA4CF482EA0304A4FA86
:105600008CF5B5FA85F402FA04F203FA04F34FEAD2
:105610001260FDE80445A0EB136070472DE9F041EE
:105620008EB046F69648C2F20008B8F80000C007EF
:1056300006D046F69640C2F20000012118F0F4FBB5
:10564000B8F80000800706D546F69640C2F2000082
:10565000022118F0E9FBB8F80000000740F11F81B3
:1056600046F6B440C2F2000000780138042800F287
:105670000F81DFE800F0315A0303980046F6B2408C
:10568000C2F200000078022800F2028146F6B0461D
:1056900046F6844146F6A247C2F20006C2F2000175
:1056A000C2F2000730780C683A885CB1214601E00C
:1056B000096839B18B7C8342FAD1CB8995B2AB4270
:1056C000F6D100E0002391B2994240F0AD80013262
:1056D0003A80002CEAD1F5E746F6B4210020C2F268
:1056E00000010A90CDF82500CDF82100CDF81D006D
:1056F000CDF81900CDF815000B46F0CB01AAF0C289
:105700001B78137040F20152ADF81520002200BF43
:10571000C308CB5C00F00707FB40DB0700F101008A
:1057200018BF01328128F3D126E046F6B4210020CB
:10573000C2F200010A90CDF82500CDF82100CDF885
:105740001D00CDF81900CDF815000B46F0CB01AACD
:10575000F0C21B7813704FF4A062ADF81520002240
:10576000C308CB5C00F00707FB40DB0700F101003A
:1057700018BF01328128F3D14FF48070ADF81A00C0
:10578000FF208DF81C0040F20910ADF81700002032
:10579000CDF81D00CDF82100099001A88DF8192041
:1057A00019F046FA74E046F68446C2F20006306804
:1057B0000024ADF8104003940294019430B100BF6E
:1057C000056819F0DFF8002D2846F9D134608DF80E
:1057D000114001AC04F10C01E12019F025FA502030
:1057E000214619F01DFA211DE22019F017FAA11C1B
:1057F000532019F015FA46F66844C2F200042068F6
:1058000018B1016809B101A8884746F6B240C2F252
:1058100000000178022933D1216804220270B9B353
:105820008968A9B3042032E046F6A440C2F2000021
:105830000188532018F046FC01AC2046342119F0B1
:105840004BF938883178ADF8080040F20910C0F6FD
:105850000F708DF80A10CDF80B0001200F21ADF864
:105860000F000020C3F6FF718DF811008DF81A00AB
:105870008DF83400CDE90A10204619F0DFF907E071
:1058800021680322027019B1896809B10320884791
:1058900046F69640C2F20000082118F0C5FAB8F8A2
:1058A000000040071AD54120002118F001FC46F6FF
:1058B0006840C2F20000006846F6B241C2F2000140
:1058C00006220A7018B1816809B10620884746F699
:1058D0009640C2F20000042118F0A6FA0EB0BDE80E
:1058E000F081704786B016F0B5FC18F093FF0446BF
:1058F00011F03EFC08B100BFFEE745F67866C2F243
:105900000006306800688047306802ADC1682846EC
:105910008847042031688DF808004A68002029462D
:10592000904745F64461C2F200010028086000F08B
:105930003B8112F039F80FF075FF18F0E6FE2046B3
:1059400019F0F9F811F0C8FE45F6E864C2F2000457
:1059500020784FF4804118F08DFF45F6545046F6FC
:10596000504545F6C85645F6EC6946F6C74A46F630
:10597000AE48C2F20000C2F20005C2F20006C2F256
:105980000009C2F2000AC2F2000800F1040B06E0AE
:105990002C605446C24646F6AE48C2F20008207853
:1059A00015F06EFC01462078296012F02FF814F0F3
:1059B000B7F92878800600F191806878000600F138
:1059C000CF80287801AFC00605D52E208DF80400C1
:1059D000384612F057FC2878C00705D025208DF8EE
:1059E0000400384612F04EFC2878800705D52620A2
:1059F0008DF80400384612F045FC2878400705D59C
:105A000027208DF80400384612F03CFC2878000767
:105A100005D529208DF80400384612F033FC28788B
:105A2000400605D52D20ADF80400384612F02AFCBA
:105A30002878000605D53020ADF80400384612F06D
:105A400021FC6878C00705D03520ADF80400384641
:105A500012F018FC6878400705D52320ADF8040043
:105A6000384612F00FFC6878800705D53620ADF86F
:105A70000400384612F006FC6878000705D5372088
:105A8000ADF80400384612F0FDFB6878D046C00639
:105A90002F4605D53820ADF8040001A812F0F2FB1E
:105AA0007878A24640063D4648BF15F023FF30688F
:105AB000002400283FF46CAF18F0ACFE316834606D
:105AC000029119F038F80298374647F8040F12F09F
:105AD000D9FB384615F098FA5AE700BF584617F038
