:1000000000B003209D8301002579010025790100BE
:100010002579010025790100257901002579010064
:100020002579010025790100257901002579010054
:0C00300025790100257901001FAC0000BB
:100040002DE9F04F8DB0DFF8E4B69BF8838017F010
:10005000C1FBDFF8DC1608608121DFF8D806B8F1B3
:10006000020F017003D1DFF8D006FF210170DFF825
:10007000CC16DFF8CC560020DFF8CC66B8F1010FC3
:1000800008702880DFF8BC0600783070DFF8BC0606
:100090000068077A2DD190F90910002900F1198222
:1000A00061F30A2709096FF0030261F34102DFF8E7
:1000B000A0161744CA89B9B2914200F20A820A30E6
:1000C0001BF0A6FEDFF88C16288805221BF094FC96
:1000D00006F110001BF0E4F928886FF0020106F128
:1000E000140206F1130311FA87F906F11201053023
:1000F0001EE0DFF85C164FF6FE703844C98980B206
:10010000884200F2E681DFF84C060422016806F11D
:10011000100008311BF0C4F928884FF6FB7106F176
:10012000130206F1120307EB010906F11101043075
:1001300028801F78DFF824361278DFF81C4609780B
:100140001B78227041EA0722C7F3011AB2801BB95B
:10015000BAF1020F00F0BD81BAF1030F00F0B981CE
:1001600001F0070713B1002F00F0B381DFF8F0E5CD
:10017000042F9EF8001008BF002900F0AA813BB1AF
:10018000DFF8E0351B78862B02D1022F40F0A181E9
:10019000930410D402F00702022A08BF00291BD0E2
:1001A000DFF8C0050078862805D10020744617F0D6
:1001B00049FB2178A646307800284DD000294BD144
:1001C000012800F08681032840D0022844D1B0885D
:1001D000400740F07E813FE09BF88310022900F049
:1001E0009080DFF870150122A046096811FA80F0AE
:1001F00000F108010DF113001BF052F928880130BD
:1002000028801BF0EDFA0546DFF8580500788628AF
:1002100074D1DFF86C45206808B91BF02DFD9DF9FD
:1002200013000021002719F010F8216848779DF885
:1002300013008F77C87728461BF0D3FCB18898F855
:10024000000001F0100114F079FF5AE0B08800F0CE
:100250000700032840F03D81B188080708D511F454
:10026000405F00F036819BF83820002A00F0318191
:100270008A0402D48A0500F12C8106F11207B8F134
:10028000010F3A4608BF06F113021278C2F3810447
:10029000012C00F01E814FEA921CBCF1010F00F00E
:1002A0001881BAF1010F0FD841F0020303F00703E0
:1002B000032B09D114B93F2A40F20B81DFF8A8348F
:1002C0001B78234300F00581BAF1020F03971BD17D
:1002D000DFF89C341F5D13F80C3003EB070A002392
:1002E000402AB4FA84F238BF012352091A404B065F
:1002F00018D4002A08BF0AF1020A17E028461BF0AA
:1003000070FC1AF09FFAE6E0DFF86034402A1F5DC7
:1003100013F80C3003EB070A08D34A0648BFAAF1CA
:10032000020A03E0002A18BF4FF0020AC1F30021BD
:100330005FFA8AF71FFA89F37A1A71709A4200F30A
:10034000C8803A464944CDF808C07746891A914694
:1003500099220028F18058BF7422501880B21AF0F8
:100360000FFA0028F06000F0B4807421CDF804A0EA
:10037000A2461BF003FC0020DFF8C013B0703878F1
:1003800018B9307900F02000087070780978574665
:100390000029039920D0F8B9B08800F0070003289D
:1003A00004D0012818D19BF88200A8B1B8F1010F40
:1003B00008D0DFF8C003007820B11AF0F9FD0399E6
:1003C000FE2807D017F0EAF9039918B919F0DEFEF4
:1003D000039908B10120B070F46804F17400606002
:1003E000A065F288A4F85C202281B288130713D597
:1003F0007278B8F1010FC2F10302A4F85C2018BFB3
:1004000006F1110192B21BF04BF8F468B4F85C00ED
:10041000A26D1044B288A065A281FF20CE4B84F863
:100420003A70DDF808A096F802C0727C96F812E0E7
:10043000F77CA07370781B7884F830A0002818BF70
:10044000002384F849302B88181AB8F1010F28804E
:1004500008BF724618BF7746019902F07802C7F3C9
:1004600001131A4409066CF38202227400F05B81C6
:10047000B8494A46A6F808900DF113099BF8837015
:10048000096811FA80F000F1080148461BF008F8ED
:10049000308929884FF0120A012F029708442880DA
:1004A00008BF4FF0130AF16816F80A000A7CC0F37F
:1004B0008108C0F3011302F04004B8F1000F039368
:1004C0004FD0022B15D1A4B1B1F844200DF113097E
:1004D00017E01AF067FE1BF083F99E4900240A68B2
:1004E00013681C7112680A601BF07BFB0DB0BDE83D
:1004F000F08FBDF8132009F10209A1F84420A1F8FA
:1005000042209D4F92B2FB899A4204D04FF6FF736E
:100510009A4240F0B980B8F1030F12D101F13200D4
:1005200049461BF0CDFBF068F91C323019F06AFC2B
:10053000039B002800F0A88016F80A0009F10809BA
:100540000FE039F8022B4A86B9898A4208D06FF049
:100550000301039B033189B28A4240F0958000E099
:10056000039B40281DD3022B04D158EA04010BD170
:10057000F16803E0F1680A7C520605D4B9F800205E
:1005800009F10209A1F84220C02805D3F0684946C4
:1005900028301BF095FB03E0B9F80000F1680885EE
:1005A000039B7149B088097800F00700A1B1012BC5
:1005B00012D8012804D1B8F1000F06D001200DE0B7
:1005C000032808BFB8F1000F06D16B49F268C9894A
:1005D000B2F842208A4257D1032804D0012811D111
:1005E0009BF8820070B1F06814F0ECFE50B9002066
:1005F000F17CB070B07CC1F3011100F078000844C8
:10060000F1680874F0688189090776D53289806DB0
:100610000DF113011AF044FFF16830898A6D02442C
:100620008A65B1F85C2010440122A1F85C004949B8
:1006300028881BF0E1F90DF112001AF031FF28882B
:100640009DF8121001302880F068806D01709DF8CF
:100650001200F16810F00702C0F3C10081F82420F5
:10066000B1F85C2081F8250002F10102A1F85C20BC
:100670008A6D02F101028A6506D04049085C021DBC
:10068000F0883281904204D21BF0C5FB13F042F98E
:1006900021E7304928880DF127071BF0ADF93846CE
:1006A0001AF0FEFEF068DDF8271032898161298892
:1006B000052A114429800BD31C30391D053A1AF044
:1006C000EFFE3289D01910F8011CF06880F826106E
:1006D000806D0DF127011AF0E3FE3189F088CA43DD
:1006E0001044F268F080936D10810B449365B2F86A
:1006F0005C3019440844A2F85C000298012812D129
:100700001648007810B1039801280CD80B4970786E
:10071000097841B138B91048B1780078002918BF7C
:10072000042110F073F802F025FAD4E6985D002059
:10073000246C0020926C0020976C0020956C0020A7
:100740007A6C0020946C0020A8780020586C00205F
:1007500090790020D86B0020A16C002064720020EA
:10076000A06C00209A6C00208F6C002000DA010041
:10077000FCD90100B87A00204C6B002084DA01001B
:10078000947A00202DE9F04F8DB0DFF8FC8482468A
:1007900098F88300012840F0B980DFF8F004006881
:1007A000416E05A88847DFF8E874386808B91BF07F
:1007B00063FA1BF015F8DFF8244505462078002879
:1007C00000F0F58028461BF00CFADFF8C804012180
:1007D0000170DFF8C4143868456895F8009009780E
:1007E00029B90120002110F0A1FE3868456806896A
:1007F00018F0C0FE2888000708D5207830B12846B8
:1008000031460FF011FD002840F03882284631466D
:100810001BF0FEFA0DF11301642015F0C7FF2078DC
:1008200038B1DFF8C804007815F04EFE002800F05B
:100830002282DFF8BCB4B41C0DF11201E920ABF840
:10084000104015F0B3FF9DF81200002808BF341DBA
:100850001822A6B2002805F8024DC6F3022108BFEF
:1008600008228818DFF84C146870E0B2097851B19A
:100870003968097D39B1BBF8100018F031FB002848
:1008800000F023812878C0F3401130460DF0B6FA0D
:100890009DF813300021CA4ADFF80044CBF81C5001
:1008A000DFF85074ABF80210002B08BF02F5B2520B
:1008B000089121690A903A61CBF8182021B1DFF83C
:1008C000D00300680C308847A06808B180470B90BF
:1008D000DFF82464DFF82454002009F0200470803D
:1008E0006880687B00F0F000033068731AF078FFCE
:1008F000DFF8D833BAF1050F039000F2E880DFE8A3
:100900000AF003F5E6E8F5F43546EFE0DFF87C831E
:10091000D8F80000416E05A88847DFF874B3DBF80B
:10092000000008B91BF0A8F9DFF868030121017085
:10093000DFF86403007818B90120002110F0F6FDFB
:10094000DBF80000446805892078C0F34011284690
:100950000DF054FADFF844930A90D9F8101019B149
:10096000DBF800000C308847D9F8080008B1804750
:100970000B90CB48007878B3D9F8201041B3884762
:10098000C9490028C94B0A4608BF023212781A70BA
:100990008DF83020CA1C002818BF4A1C10788DF82A
:1009A0003100C0481978022908BF023011E0CC4854
:1009B000017821B9CB49097800293FF403AFCA492E
:1009C00002220A70007883287BD114F039FB78E08A
:1009D000B44801880131018014F088F8B548B44E5C
:1009E0000078F57350B1DBF80000007D30B1284687
:1009F00012F07EF918F074FA002866D000273461EE
:100A000077801AF0EDFE0546BAF1000F778008975F
:100A100005D0BAF1010F2ED1A748A849C161A64857
:100A2000A349027B437BC47D41604F60478002F055
:100A3000F002027303F0F0020232427304F0F0029B
:100A40000432C2754A7B22F00F02531C4B73DBF851
:100A500000305C682478A40607D5994C42F0020265
:100A60004C605B689B784A73A373964E7060707B92
:100A700000F0F00070739448D8F800100822934BEF
:100A80000C6D00210068CDE9002105AA3146A04780
:100A90008F49B0F1FF3F088007DD8E48844901602F
:100AA0008D480178013101700BE0D9F8004034B174
:100AB000DBF800000021002200230C30A0471AF0D0
:100AC000B9FF28461BF08DF8D8E0E120D4E05D4660
:100AD0000CE098F853001D4616F072FAC07B2B46C6
:100AE000864D022818BF5D4600E0854B9BF80D003F
:100AF0004FF00009CBF8049020F00F00411C8BF858
:100B00000D100CB9022741E040F00200A7F8029056
:100B1000DFF8F091AA214FF47A76CBF804701C46E6
:100B20008BF80D00387B00F0F0000730387399F82F
:100B30000000B1FBF0F1B6FBF0F2511A484380001F
:100B4000B86098F8530014F065FC67498622234684
:100B50000A70624940F22C72097800294FF4F4714E
:100B600008BF4FF4F67208BF9821042808BF114649
:100B700099F800004FF02009B6FBF0F21144484309
:100B80004FF47A6101EB800038625F4FDFF84481F7
:100B90005E493F4EDDF80CA0D8F80000884211D025
:100BA00049495B480968028AB1F84840944209D132
:100BB000C089B1F84610814204D1287B2C4612E04E
:100BC0000E7A5555524C53490020012260800A701C
:100BD000C4E90150617B207B01F0F00120F00F009F
:100BE00002312073617300F0F000002120733B4854
:100BF000A1600078A0B1306890B1007D35280FD099
:100C000022481D460068C06B8047217B2B46A060B0
:100C1000059001F0F0010231217301218DF81810C7
:100C20001A492948096800680D6DCDE9007905AABF
:100C30002146A8472649B0F1FF3F088007DD264836
:100C4000C8F800B001780131017050463AE7134806
:100C500004682CB10020002100224FF08073A047CF
:100C600050461AF0BEFF1D48007850B1306840B1C0
:100C7000007D352805D11A2009F028F90DB0BDE80E
:100C8000F08F1AF0D7FEF9E7985D0020206C002065
:100C9000947A0020BA7A0020AC7A002060D101005A
:100CA00058780020086B0020C76B00208C6C002057
:100CB000606A0020B07A0020B0670020006A180047
:100CC000CC6A002060790020F4790020C937000048
:100CD000826C00205C78002055780020647200202F
:100CE000926C0020956C00209A6C0020906C002083
:100CF000D0670020B86500205069002034690020CA
:100D000065850000966C002002004300306A0020D8
:100D1000486A0020537800202DE9F04F9DB004462A
:100D2000DFF81C05406818B18047002800F04782B2
:100D3000DFF810A5DFF810B50E940DF13C099AF814
:100D40000000411E002C0C910BF1180418BF01216A
:100D50009BF80280002700258BF80F109BF80110EC
:100D60000D91C0B287421ED2B84517D0FEB2002105
:100D70004A46042330461AF05BFB0F9810F4403FBC
:100D800040F00400C0B218BF01357C2806D13046BF
:100D90000621F82219F022FCF82020709AF80000B1
:100DA0000C340137DDE7E9B201380022884204D172
:100DB0009BF80500002800F03F82CDF82C80DDF87C
:100DC0003880DFF87C94B8F1000F404608BF10204F
:100DD000069015AE00200290DDE90C740025380461
:100DE00000F0EF819BF80F0010B901208BF80F0085
:100DF000E0B200210FAA04231AF01AFB0F98B8F1F1
:100E0000000F19D010F4403F18D04FF400609AF84A
:100E100000100135013FABF810009BF80F000138BE
:100E20008BF80F00012050FA84F0B0FBF1F202FBC6
:100E300011048BF80D40D2E7002501E0CDE90C74D8
:100E4000C0B2702804D00D987021C0B216F032FFE5
:100E500005950B9D00210FAA0423ECB220461AF041
:100E6000E7FA9DF83C00FE2803D02046FE2116F04C
:100E700021FF20460621FE2219F0B0FB4FF400604E
:100E80000D9F0BF116018BF80C50ABF810000020F1
:100E9000ABF81400FF208BF80D708BF80E00F8B241
:100EA000400050FA87F001EB8000B0F806A0600027
:100EB00050FA85F001EB8005FE20ABF812A0294620
:100EC00001F8020FE14804914FF400611AF056FE58
:100ED0000020DC493B46099489F800009BF80F008C
:100EE000097850FA87F0013890FBF1F202FB11000B
:100EF000019035F8060F03955FFA83FB0A900D9376
:100F0000A34500F05681ABEB0400B0FA80F0400935
:100F10000890002007900020C00740F097801FFA3B
:100F20008AF4162C74D999F80000002840F0478103
:100F3000AAF10707584610AAB9B210F081F9BDF816
:100F40004E5005F11000A0423FD89DF84A00962867
:100F50003BD1A7EB05099DF8492029465B461FFABE
:100F600089F8404612F030FE78BB9DF84B00C1076F
:100F700001D1800706D40020CA46DDF83880DFF8AA
:100F8000C092C9E7E81D83B20A9813FA80F4B4F559
:100F9000006F01D90120F0E7AC4980B2081A414640
:100FA000C01A00F5006258461AF042FA079801305C
:100FB000B4F5006F079004D101204FF400610A914D
:100FC000DAE70020CA460A94D7E7AAF1010ADDF859
:100FD0003880DFF86C925446A0B216283BD93628E8
:100FE000A4F116055846324688BF2025641BABB2D3
:100FF000A1B21AF01DFA2804EED016FA85F010F806
:10100000010C962801D0013DF5E705EB040A82E7C3
:10101000079810B18C491AF01BFB0198C0B28345A8
:1010200000F0CB800D99012050FA81F085490978B4
:10103000B0FBF1F202FB1103834903EB430001EB28
:101040008000B0F81CA0DDE9094055E7079810B111
:101050007D491AF0FDFA002008900D980B9099F840
:101060000000002840F0AB800A9B7849C3F500607F
:1010700011FA80F2A3F11000102183B2099816F042
:10108000E9F999F80010084389F80000089890B130
:101090006C4800780BEB0001013991FBF0F202FB88
:1010A0001011C8B20B91400050FA81F0664901EB73
:1010B0008000B0F81CA0DFF890B10B980A99099C49
:1010C00001238BF80E000398ABF81010BBF9122027
:1010D000ABF814A001809BF80D10204617F0B6FD68
:1010E000BBF914209BF80E102046022317F0AEFD2A
:1010F000BBF81000B8F1000FC0F5006007D00699EA
:10110000DFF840A18842A4BF0121029101E0DFF88D
:1011100034A1069988424FF07C01B8BF7821099C20
:10112000204616F0C7FD09F009FB07469BF80F00A3
:101130000621FC22C01B8BF80F00204619F04EFA46
:101140000499FC209BF80E30087005989BF802105B
:101150000D9317FA80F001449AF80000B1FBF0F209
:1011600002FB10118BF802100B910131CAB2B2FBD5
:10117000F0F202FB10118BF8011003EB43010BEBB3
:101180008101898B102906D10D990131B1FBF0F253
:1011900002FB10100D900C98C01BB8F1000F0C90C2
:1011A0003FF41AAE029880F00100C0077FF414AE3D
:1011B00007E00120A346089051E701984EE700227E
:1011C0003AE07C2016F090FD0446FF281DD17E20D9
:1011D00016F08AFD0446FF2817D19BF8014004EB66
:1011E00044000BEB8000807DFF280AD09AF80000B5
:1011F0009BF802100144013991FBF0F202FB10143C
:1012000003E020467E2116F055FDE0B2FE218BF86A
:101210000340400050FA84F00BEB8000808BABF869
:1012200006009BF8020016F045FD00208BF8050033
:10123000BBF81000C0F5006210B21DB0BDE8F08F21
:1012400040760020876C002044620020804200200D
:101250002DE9F04F97B0DFF814650546DFF81075FB
:1012600030780328387040F04881002030703870A2
:101270000CA819F08DFF002840F03D8101200C9052
:1012800007F124000CA916F031FB002840F033814F
:10129000DFF8E0A4462150461AF070FC4FF0FF3012
:1012A000AAF81400CAF81000CAF80C0017F0E4FC01
:1012B0000020294614F0A4FD07F10C01B8601AF0D3
:1012C000A2FCD7E90402DFF8B044B0FBF2F1C9B2E6
:1012D000042928BF0421B2F5006F8AF8001021709C
:1012E00040F00981B0EBC12FC0F00581B86800283B
:1012F00000F001814FF40060DFF88864FF224FF0B6
:1013000000096FF00305AAF80600FF208AF8032001
:101310008AF8059004900020079000200A90002091
:1013200008900020069000200590002009900020E1
:101330000B90FF200190FF200390FF200290CFB27E
:10134000B94580F0DD805FFA89F700210FAA0423F8
:1013500038461AF06DF8DFF828443846002116AAFE
:10136000A0473846012115AAA0473846022114AAF1
:10137000A0470F996FF06F0050FA81F2C8B20E2AA1
:1013800006D8012303FA02F245F201131A4203D1EF
:10139000A0F1FE02022A04D242F28352B2EB914F34
:1013A0001ED038460EF036F9DFF8C4130028087056
:1013B00040F0AC81384600210FAA04231AF038F817
:1013C000DFF8BC433846002116AAA0473846012161
:1013D00015AAA0473846022114AAA0470F99C8B2FF
:1013E00009EB49020AEB820BC1F30142090A8BF8AF
:1013F00017109DF85A100BF11608FD288BF81920CC
:1014000088F800008BF8181001D910212BE0BDF8E6
:1014100058104FF6FF72914225D1384600213246CE
:101420004FF400634FF4006A1AF002F815FA8AFAD2
:101430001FFA8AF031584A1C01D10328F6D801223C
:101440000123D7B2042F06D8CFB2FF2F18BF1346FF
:101450000132090AF5E731505AFA83F0DFF814A394
:1014600081B298F80000ABF81C109DF85610702857
:101470008BF81A10BDF85410ABF81E109DF85210DE
:101480008BF81B10BDF85010ABF8201010D0BA4CE0
:10149000782812D07C2814D07E2818D0FE281DD0A1
:1014A000FF2821D10798CDF80890013007901EE061
:1014B0000998B14C0130099019E005980130059068
:1014C00015E00698CDF80C90013006900FE00898D2
:1014D000013008901FFA89F0019008E00A98CDF8D1
:1014E000109001300A9002E00B9801300B902178A7
:1014F00009F1010923E70120307017B0BDE8F08F32
:101500000B9800060BD10A98C0B2012807D8099899
:10151000C0B2012803D80898C0B2012810D9974852
:10152000934F042200250270CAB2E8B290420FD253
:101530000EF070F839780135084321783870F3E7F8
:101540000798C0B2B84219D1894F8C480022027066
:1015500000208AF803008AF80100481E7E218AF8DC
:101560000200BAF81C00AAF80600002016F0A2FB40
:101570009AF80200FE2116F09DFBC8E009980006CB
:1015800025D00A98049A000603D10798029A00060B
:1015900061D07A4802210126D5B28AF80220017072
:1015A00016FA82F0B0FBF7F101FB17008AF8010090
:1015B00028460EF02FF86E4FFE213870284616F0A0
:1015C00079FB00208AF80560FFF7A6FB9FE00A98E8
:1015D000000616D0049A69480121017011FA82F0C0
:1015E0008AF80220B0FBF7F101FB1700039989B2DA
:1015F0008AF80100FF2913D10199FF297DD15D49A6
:101600007DE0DDE905205C4C104300063FF487AF28
:1016100017F006FBB8427CD258480321017028E03D
:10162000039B4800534A10FA83F0D37002EB80000A
:10163000818B1829D18069D3039807390FAA89B201
:10164000C0B20FF0FDFD9DF84700400770D40020A8
:10165000FFF762FB5AE017F0E3FA0621B842474869
:1016600038BF03210329017003D0414F06297BD0E5
:101670004DE017F0D5FA3F4E0546307300EB4000C1
:1016800006EB8000408BA6F80D0009F057F83A49A8
:1016900028440978B0FBF1F202FB1100B070013070
:1016A000C2B2B2FBF1F202FB110070707C2016F0A6
:1016B0001BFBFF2812D17E2016F016FBFF280DD150
:1016C000FF2016F011FBFF2808D1782016F00CFB44
:1016D00001462848FF29407818BF0846C1B2254A6C
:1016E0004900D07051FA80F0FE2102EB8000808B1F
:1016F000D080907816F0DEFA08E01E490198C87094
:1017000000EB400001EB8000808BC880184F3878D8
:10171000F3E60798000624D0DFF858A0FE219AF8D7
:10172000020016F0C7FA144807780298049051E7AF
:101730001049BDF84A20002300930323C878C988C4
:10174000891A0FAA073989B205F09AF90028DDD164
:10175000BDF848100029D9D09DF84C0014F0D0F8FD
:10176000D4E7064806210170FEE700BFA57A0020F5
:101770004076002044620020876C00208A6C0020A4
:10178000FDB50100804200202DE9F84305460C46D6
:10179000480413D4A00024D4A0075CD460057ED4F0
:1017A000200500F10481200700F13781600040F13D
:1017B000F48011F0B5FF24F08044EEE01AF010F848
:1017C000DFF810140F6D3FB1D7E90A1202F0E042C2
:1017D00001F00A01891849D01AF003FA24F4804470
:1017E000DBE0B948DFF8F073016841F08001016087
:1017F000B878012804D1042016F0DEFA0020B87071
:1018000019F0EEFF064604201AF0B0FADFF8CC1308
:101810000A68904219D12A7EBAB1FA68AAB1DFF8F3
:10182000B403806C002800F09580C16840F6030284
:101830000988914206D0C06840F6040100888842B9
:1018400040F0888005F1140086E040F6C41208607C
:10185000C5E9042282E006F0ADFADFF87803006CF7
:10186000002840F09B8024F0020496E0D7E90A6546
:10187000D7E90A12AA43B143C7E90A121AF0B1F92B
:10188000B8680028AAD056EA0500A7D0D7F808C043
:101890003869B7F9301032462B46E0479EE719F019
:1018A0009FFF054618F088F8002800F0B380C9486B
:1018B000876B002F00F0AE80DFF81C830420C8493E
:1018C000002288F81800C34819F0EFFA1AF0B3F9AB
:1018D000C4481AF080F919F075FBC8F8100001250A
:1018E000042088F8025016F0C5FE386990F82810D8
:1018F000C8F80400490703D5436A04210022984729
:10190000012013F017F8D8F8040045760DF030F9EF
:10191000D8F8040081680B461A465B684BB11E88F4
:10192000A6F60306072EF7D805FA06F616F0830F7B
:10193000F2D0537B03F0F003013353730023FD68AF
:1019400053602D88A5F60305012D00F28880C8F8A4
:1019500010309DE005F1100015F0D8FA30461AF06D
:1019600040F916F09FFE78B12E6A28466FF4807118
:1019700000224FF00073B0479648806B10B111F011
:10198000CFFE01E044F00204EE6928460021002267
:101990004FF08063B04724F0005434B1944821469E
:1019A0002830BDE8F8431AF0FBB9BDE8F8838A4E49
:1019B000B078012804D1042016F0FEF90020B070A0
:1019C00016F070FE38B170686FF4807100224FF02D
:1019D0000073056AA847306940B119F0F3FA32691B
:1019E0007168801A000BC86000203061794D7F4912
:1019F0000022284619F059FA02203076286C20B1CE
:101A00007B48022128301AF0CBF911F089FE24F42A
:101A10000064C2E71AF00FF941E019F0E1FE054653
:101A200017F0CAFFA0B1DFF8B08198F800000007F6
:101A30000ED498F9000000280AD468460DF082FA06
:101A400008B1009820B1DFF8AC9199F8610048B373
:101A50001AF0F1F811F064FE24F008049DE7034643
:101A600033F8385FA5B190F8445090F8456005F020
:101A7000F00580F8445006F0F005013580F8455037
:101A800000255360C5634587507B00F0F00050731C
:101A900055480022C2610160012018F0E7FA24F4E1
:101AA00080647AE700260127602E0FD009EB06003C
:101AB000817A31B18772407A07FA00F0C0B216F02D
:101AC00095F92036F0E700BFCC210840032088F8C4
:101AD000180044481AF07FF81AF0ADF8424F3D4D17
:101AE0000022786900207861F968F8602846424948
:101AF00019F0DBF919F066FAD8F80C10D8F82020A4
:101B0000411A02EB1130B0EB113F38BF4FF0FF30FC
:101B100098F82410C8F8200021B1D8F80810B0EBCC
:101B2000C12F20D918F0B2FAB8B140F609004146E9
:101B300021F83C0F002048804A7B02F0F00201327D
:101B40004A730A7B02F0F0020A734860F861396058
:101B5000B8F83E0010F4406FFAD00020C8F820001A
:101B6000012088F8240014F027F92448002101609E
:101B70000220002118F07AFA022016F01DF9102038
:101B80000CF0E2F898F8010020B9D8F804005030C1
:101B90001AF002F91A48807810B90D200CF0D4F828
:101BA00098F8250028B1002088F82500052016F0B7
:101BB00003F9002088F818001248C8F81C00022019
:101BC000B5F85610B5F85420914208BF072010F020
:101BD00081FF3FE790750020D0720020407A0020FE
:101BE000959901008C620020001004405DB1000056
:101BF00070740020205E0020853701000000046022
:101C00001CD901005DAE00002DE9F04F89B082467D
:101C10000068002800F01A82DAF80CB09BF8330054
:101C2000810708D440F00200DBF800108BF8330085
:101C3000504618F0EBFB4FF000090124BBF81400EC
:101C4000BBF816100A1A81423CBFBBF818301A4480
:101C5000120400F0EB81814201D100270CE0DBF897
:101C600010100F5C0130BBF8181082B2B2FBF1F219
:101C700002FB1100ABF814009BF83300010772D48B
:101C80009BF832101B2908BF5B2F00F08D800D2FB1
:101C900000F28F8004FA07F010F41C5F00F08980D6
:101CA000DAF80C500A2F95F8320008BF0D2800F022
:101CB000B7810D2F08BF0A2800F0B281A7F10800F4
:101CC000052800F2C980DFE810F0CA00E000060035
:101CD000AB01AB01060050460CF052FEDE49504607
:101CE00018F094FB288C0595002800F08981DAF81B
:101CF0000C800021B8F82000884200F08181D8F8DB
:101D00001C60725C0131202AF6D0304619F0FBFCD1
:101D1000B8F808100130884200F2FE80CDE90110C9
:101D200008F10400002E069000F0CC80B8F80C10EA
:101D300000290846049100F0C58001250498A9B245
:101D4000814200F2BF8006980391D0F80090484687
:101D500019F0E2F83146044601F0B6FE002800F022
:101D600098800135EAE7A7F14000C0B23E2800F2B2
:101D70005781DAF80C00412F90F8331001F0F70189
:101D800080F8331018BF422F40F04A81DAF80C6017
:101D9000B089002800F044817189412F29D1814206
:101DA00000F03E81012429E040F008008BF8330068
:101DB00036E17F2F3FF474AFA7F12000C0B25E2858
:101DC00000F22E81DAF80C00018C428C8B1C9342BD
:101DD00080F02681C2695754018C01310184C069A9
:101DE00089B200F8019050463946DAF80020904751
:101DF00016E1002900F014814FF6FF745046351D9E
:101E000016F076F83168504618F000FB70892044CF
:101E1000708181B2284619F035FA054600288D48B0
:101E200008BF0546284619F06EFC84B28046F0696A
:101E30002946224619F0C4FFF06900F80490504684
:101E4000A6F82080F16918F0E1FA308C308650460F
:101E50000FF026FC0124E3E07F2F40F0E180288C86
:101E600080B119F0F1FDDAF80020504620219047AA
:101E700019F0EAFD288CE9690138288480B201F85C
:101E80000090CDE0092F40F0CB8050460CF078FD5B
:101E9000C6E0039BB4B1049801210138A8F80C00F6
:101EA00011FA80F098420DD00198254609EB000404
:101EB000284619F028FC2844C1430A19411C284629
:101EC00019F080FFB8F80C40DDF80890200418D015
:101ED0000698A1B219F0D6F9054619F014FCD8F805
:101EE00004102844401A421CB8F80800801A4845DB
:101EF00003D2013CA8F80C40E8E701EB090019F017
:101F000061FFD8F8040031464A4619F059FFB8F885
:101F10000C000130A8F80C0000254FF0000900214A
:101F20000020B8F8202090421CD2D8F81C301A1893
:101F30001B5C202B09D1B9F1000F04BF00231370E3
:101F4000002D14BF012100250AE045B111F0010365
:101F500018BF1346B9F1000F08BF994600E01546B7
:101F60000130DEE7D8F81C0000210124002D1044C8
:101F7000417045D0B8F82C00002400EB80008000B0
:101F800006900698A0421FD0D8F824602846315900
:101F900001F09AFD08B11434F3E73019016999B1E1
:101FA000007A20B148460FF071FFD8F8246098F805
:101FB0003300494640F0100088F833003019D0E96A
:101FC0000323504698470FE0DAF8040098B198F8D8
:101FD0003300CDE9075940F0100088F8330050462F
:101FE000DAF8042007A9904798F8330000F0EF00D2
:101FF00088F8330003E05046294616F0E5F801243E
:1020000005994FF00009C869A1F8209080F8009068
:10201000A1F80A90A1F830905046096818F0F6F936
:1020200050460FF03DFB8BF8327007E69BF833000B
:10203000C0070BD0DBF81C100020ABF820000870A4
:102040009BF8330000F0FE008BF8330009B0BDE8C8
:10205000F08F00BFCBD701000DD10100F0B59FB0CC
:10206000002800F0BE810446C06B002800F0B98152
:10207000B4F84010002900F0B481057804F1300074
:1020800019F066F9002800F0AC81207A03280AD103
:10209000204616F041FD4FF6FF71884200F0A18105
:1020A000208002202072A81E132800F29A81DFE807
:1020B00010F01400980151006D0098018A009A00F8
:1020C0009801980198019F00980198019801980142
:1020D00098019801BE009801C400B4F840000D2892
:1020E00040F07F81E56B2A786878A9788DF80C201C
:1020F00019F0BFFD8DF80D00E878297919F0B9FDC8
:10210000ADF80E006879A979EA792B7A19F0D1FA3D
:102110000490687AA97AEA7A2B7B19F0CAFA0590BA
:10212000204615F077FA28B1418921F4407101F574
:102130000071418194F9201003AA20460FF0BFF8E6
:10214000BD480421063018F06FFDB94841690131DE
:10215000416146E1B4F84000012840F04281204648
:1021600015F058FA68B14189CA040AD521F44051E2
:1021700001F50051418142F2107015F04DFD17F04C
:1021800029FDAB488168013181602AE1E76B03AE2C
:10219000682106F1080019F0F1FC3878D7F8011031
:1021A000D7F80520CDF80D108DF80C00B97A787AA3
:1021B000CDF8112019F05DFD0546ADF81600C007F9
:1021C00041D10B374CE0B4F84000022840F00981BF
:1021D000E06B41782046002918BF01211FB0BDE8FF
:1021E000F04012F088BD9248816901318161F8E0C8
:1021F000B4F84000022840F0F48003A9204610F013
:102200005BFB002800F0ED80E06B407816F05AF997
:102210000D209DF81B20BDF80E100223ADF80A001A
:102220000DF10A00009007200AF036FFD9E02046A1
:102230001FB0BDE8F0400CF075BF20461FB0BDE8F0
:10224000F0400CF01FBFF87A397B19F012FDADF8A1
:102250001800B97B787B19F00CFD0F37ADF81A0028
:10226000A80706D53878797819F003FD0237ADF85C
:102270001C0068070CD53878797819F0FAFCADF8AD
:102280001E00B878F97819F0F4FC0437ADF8200096
:10229000280740F18C8038787978664DA847ADF8EA
:1022A0002200B878F978A847ADF824003879797910
:1022B000A847ADF82600B879F979A847ADF8280005
:1022C000387A797AA847ADF82A00B87AF97AA84717
:1022D000ADF82C00387B797BA847ADF82E00B87B91
:1022E000F97BA847ADF83000387C797CA847ADF879
:1022F0003200B87CF97CA847ADF83400387D797D90
:10230000A847ADF83600B87DF97DA847ADF838008C
:10231000387E797EA847ADF83A00B87EF97EA847A6
:10232000ADF83C00387F797FA847ADF83E00B87F14
:10233000F97FA847ADF8400097F8200097F82110E2
:10234000A847ADF8420097F8220097F82310A84755
:10235000ADF8440097F8240097F82510A847ADF889
:10236000460097F8260097F82710A847ADF84800D0
:1023700097F8280097F82910A847ADF84A0097F871
:102380002A0097F82B10A847ADF84C0097F82C00BE
:1023900097F82D10A847ADF84E0097F82E0097F843
:1023A0002F10A847BDF816503037ADF85000E8069A
:1023B00008D5387819F011FB159017F8040F19F0AB
:1023C0000CFB169028060ED41948816901318161F1
:1023D00094F9201003AA204619F0F0F9204612F0D3
:1023E000C1F81FB0F0BD06F1500000217D1806298C
:1023F00003D02A7942540131F8E72879697919F034
:1024000038FCADF86200A879E97919F032FCADF832
:10241000640005F1090106F15B02287A8DF8660077
:102420000028D1D011F8013B013802F8013BF7E751
:10243000E464002073BC0100D474002070B592B035
:10244000DFF8A40319F051F9002840F0CB81DFF840
:102450009C03007811F072FF002800F0C38104464D
:10246000DFF88C030668002E00F0B981207801386F
:10247000122800F2B481DFE810F013002D004700AD
:102480005C006C009900A700CE00D000EA00EC00D0
:10249000FC0019012401B2012D0141014801530141
:1024A0003068002800F09B8100206D46CDE90200D5
:1024B00019F0A7FACDE90001A07A05F1080114F09E
:1024C00052FC05F10E0004F10B010B2219F078FC0F
:1024D000316823E17068002800F081810020211D0F
:1024E000CDE90200CDE9000060788DF80000608839
:1024F000ADF80200684628C9021D28C20B888978F9
:1025000091701380716869E1B068002800F06781FC
:1025100019F077FA6D460B22CDE90001A07A04F19B
:102520000B018DF8080005F1090019F049FCB168AC
:10253000F4E0F068002800F0528100200290CDE91C
:10254000000018F07BFE40F0F3800088ADF8020038
:10255000F4E03069002800F042816D4640212846B1
:1025600019F00CFBE178A0788DF801106168002863
:102570008DF8000000F0178111B1281D14F0F6F954
:10258000207A8DF82800607A8DF82900A07A8DF8DD
:102590002A00E07A8DF82B00207B8DF82C00607BE0
:1025A0008DF82D00E089ADF82E0015E17669002E3A
:1025B00000F0158119F025FA6D46CDE9000105F10D
:1025C000080004F10A01E8E0B069D8B10020CDE9C3
:1025D0000500B4F80100E1782279ADF80000684602
:1025E0008DF803208DF80210611D1122043019F0BE
:1025F000E7FBA07D8DF8150008B1A0690690B169D0
:1026000068468847A178A0690029002800F0E78083
:1026100019F0A8FBE3E0F16971E0366A002E00F0E2
:10262000DE80002021796279A3796D46ADF8000043
:1026300060788DF8000060888DF804108DF8063001
:102640008DF80520E11DADF80200E81DA5E0716AD6
:1026500038E0B66A002E00F0C2806D46162128468A
:1026600019F08CFA18F0EAFD6DD10088ADF802007F
:102670006EE0316B99B10020258A6669CDE90200D0
:10268000CDE90000B4F80100D4E902230496ADF8C6
:102690000C50ADF800006846CDE90123884760681A
:1026A000002800F09C8017F0C1FE98E0706B0028B5
:1026B00000F095806D46214628460BF053FC716B67
:1026C0002CE0B16B002900F08A80B4F80100ADF86D
:1026D000000082E0F16A002900F081800020ADF85E
:1026E0000C000290CDE90000A01CA27A022A8DF80D
:1026F000082036D10088ADF8000036E0316C0029A2
:102700006DD060788DF8000067E0F06B002866D02F
:102710006D46214628460BF025FCF16B28465DE00E
:10272000736C002B5BD0A21C00200021984756E060
:10273000694602684068023148600A60A089ADF8C5
:102740000C00F16849E002684068A91C48600A6012
:10275000207D02288DF8140011D1A089ADF80C005D
:1027600011E002684068CDE90020A089ADF80A00B8
:10277000A07B002818BF01208DF80C002DE0E06838
:102780002169CDE90301E08A04F11901ADF81600D1
:10279000207E8DF8180005F119000B2219F010FBAE
:1027A0002846B0471BE011B1281D14F0DFF8227A4B
:1027B000E068C2F3021112F007028DF830108DF8B4
:1027C00028201CBF0B9000EB420001B10D90207C33
:1027D0008DF8380060690F90316968468847204657
:1027E00017F024FE12B070BD70680020886C0020C5
:1027F000907A00202DE9F04F97B0DFF85883B8F8B1
:102800000600C1072AD098F8000000BB0024002071
:10281000049404A911F05AFF07A816F093F970B1B7
:10282000049800210EF04CFD14F06CFD014607A841
:1028300000220AF099FA012088F8030007E00498C2
:10284000002188F803400EF03BFD18F0D3FC08F19E
:102850000600012118F0DCF9B8F80600410608D599
:1028600018F09CFB08F10600402118F0D1F9B8F8E7
:102870000600010608D518F07BFD08F1060080214E
:1028800018F0C6F9B8F80600810771D5B24D0026D8
:102890004FF6FF7444F6FE4B4FF00009B9F5167F72
:1028A00039D035F80900A04232D005EB0907B7F856
:1028B0000AA05FEACA712BD05FEA4A414ED41AF4EB
:1028C000104F22D00221CDE904660696ADF804002F
:1028D0008DF80C1001A807A90FF0EEFF18B1DDE983
:1028E0000801CDE9050135F80900CAF30031ADF85A
:1028F0001200B8F80800ADF8100004A80FF0CFFCE3
:10290000788900EA0B00788102E05FEA8A4025D5E9
:1029100009F10C09C2E7002044F6FF71B0F5167FFB
:102920000AD02A5AA24205D02A185389DE071CBFB2
:102930000B4053810C30F1E70021B1F5167F08D030
:10294000685AA04203D068184289D20707D10C31D7
:10295000F3E742F2107015F05FF902E0384612F02A
:1029600049FE08F10600022118F052F9B8F80600F5
:10297000410726D5784D00204FF6FF7440F2013113
:10298000B0F5167F0DD02A5AA24208D02A185389D2
:1029900003EA01068E4204BF23F4407353810C30D6
:1029A000EEE74FF440704FF4807115F0F3FE00280D
:1029B00000F0A78008F10600042118F029F9B8F802
:1029C000060000073ED508F10600082118F020F99E
:1029D000624C0A208DF81000208F19F0EFF98DF865
:1029E0001100208F19F0E8F98DF8120098F8020014
:1029F000012823D107AC4021204619F0BFF898F8F0
:102A00000400411C1E2840F0A00088BF002188F867
:102A1000041002218DF828100321ADF8481004A9F4
:102A20008DF8290004F130001191B8F80810ADF8C4
:102A3000261018F024FA204619F060F942F21070BE
:102A400015F09CF807F064FC0AF05AFAB8F8060092
:102A5000C10513D51220002201238DF81C00404827
:102A6000018807A8009012200AF016FB08F1060062
:102A70004FF4807118F0CCF8B8F8060081053AD50B
:102A800018F020FF37498DF81E00384C384D4BF6B2
:102A9000EF66086014218DF81C10010E8DF82110CE
:102AA000010C8DF82010010A2F488DF81F100078B6
:102AB0008DF81D0007AFB4B12819B0F8E915B1427F
:102AC0000FD190F8E615012903D090F8E8150129F7
:102AD00007D1B0F8DC1514200022062300970AF075
:102AE000DBFA0F34E7E708F106004FF4007118F045
:102AF0008FF8B8F8060008B9FFF7A0FC17B0BDE8DA
:102B0000F08F002040F20131B0F5167F3FF452AF54
:102B10002A5AA24204D02E1873890B40012B01D0EF
:102B20000C30F1E70220ADF81C201F2142F2107298
:102B30004FF448738DF8240007A80AF07BF90028A9
:102B40007FF438AF708920F4407000F58070708198
:102B500030E700BFD47400205C500020E464002003
:102B6000786C0020F06B0020B17A002024FAFFFF7F
:102B7000804A00202DE9F04186B0C24EC24CC34DC0
:102B800030882168EA88084400F10801E868806D0F
:102B900018F086FCEA68E8883188DFF8F482936DE3
:102BA00001443180184490652068012298F88370B0
:102BB00010FA81F000F108010DF1130018F070FC1B
:102BC00030880130022F308013D12168012218F0A3
:102BD00036FF684618F064FC308821680122013015
:102BE000308018F02CFFAB4818F05AFC30880130C8
:102BF0003080216805AC042218F021FF204618F02F
:102C00004FFC3088042104303080204616F0DEFA74
:102C1000059017F0C3FDE968C863059817F086FAB8
:102C2000E968A1F840009C48007818B119F086F8CE
:102C3000E968C863EA2016F09DFD9848426812B121
:102C4000E8680121904702219548022F017009D1BF
:102C50009448007830B1A87C800914F01BF908B1C1
:102C60000120A870E968A8780A7C002818BF42F003
:102C700004029DF9130000240A74002116F0E5FAFD
:102C80000146E86880F846109DF81310B0F85C2003
:102C900080F8474080F8481000F17401816501898F
:102CA000511A42680A44818942608B0513D40B078C
:102CB0001CD501F00703032B0AD053B912F8033FC8
:102CC000382404EA530403F0070304EB43031A44D3
:102CD000013242610AE00FF0C1F9E868416E11B1BA
:102CE000B0F8681079B1416841618189090711D450
:102CF00090F86010D1B111F007FCE868C16CA9B17F
:102D0000B0F8500090B905F10C0018F0DEFE00207C
:102D1000E86038E005F084FBE9684870E86881699C
:102D20004165407810B1F22016F024FD5E4C207809
:102D3000002800F09D80E868828902F007010229DE
:102D400004D15A4B1B780BB94378FBB1584B1E7812
:102D50000123002E00F0878002F44052B2F5005F9C
:102D600040F081804278A2F1DB03182B62D8012663
:102D700006FA03F34F4E33425CD0012903D10421FC
:102D8000817308F0EBF810F0C5FD78E000218DF8B4
:102D9000121000F128010DF10A0018F091FFE86807
:102DA0000A2200F12801684618F07AFB434E636A54
:102DB0000DF112020421308801303080E868406E45
:102DC000984730B93E48006818B19DF8121080F855
:102DD0006810E86890F83010022911D128300021DD
:102DE00008EB0103425C93F820309A4208D101318C
:102DF0000229F5D108F116010DF10A0018F060FF63
:102E00003048007886280AD17088E96801308989BD
:102E100070802D4801F01001007812F08FF92078B1
:102E200018B1A16C09B1E868884705F10C0018F0E9
:102E30004CFE20E0002AA6D11F499DF81320AB7854
:102E40000A701E498A880132002B8A8000F128010D
:102E500000F11C0218BF0423184612F081FE2378EB
:102E6000002B18BF01231BB1A16C09B1E86888478A
:102E7000E86808F073F80020E86017F0E3FC06B09B
:102E8000BDE8F0817A6C0020D86B0020A878002083
:102E9000985D0020976C0020A17A002060D101008D
:102EA000926C0020B87A002064720020A06C002090
:102EB000956C00201F2200019F6C0020E06A00201A
:102EC000947A00209A6C0020A16C00202DE9F04F2C
:102ED0008FB0DFF80C83054698F80A00C00018F0A0
:102EE00043FF00280C9000F06F8118F079FC0090EF
:102EF0000DF13A01822004F023F8BDF83A004FF6B4
:102F0000FF7988BB00264FF0FF3708AC0020B8F8E7
:102F1000041082B2ADF83A008A4220D2ADF8200007
:102F20000020CDE90A77ADF82690ADF8249098F806
:102F30000A10884209D20C9941F830600C9901EBD3
:102F4000C0010130A1F80490F1E7D42021468DF8AA
:102F5000346001F05DFEBDF83A000130D7E70DF1B5
:102F60003A01822001F054FE281D019008A8083083
:102F7000029005F11500039004AE0020F71CB8F88C
:102F80000810ADF83A0080B2884280F01F814FF0FF
:102F9000000A012498F80BB0DA4527D2BDF83A00B0
:102FA00031468DF812A0ADF81000D02003F0C8FF14
:102FB000C8B99DF81C40012C07D19DF81B0020B911
:102FC000384617F0B5FE00286ED1287D844209D11D
:102FD000002C4FF00902384608BF0522039917F06C
:102FE0000BFB40B900240AF1010AD3E7002C5BD1A6
:102FF000E87F002858D00024B8F80600844251D257
:10300000BDF83A003146ADF81240ADF81000D120BD
:1030100003F096FF78B9BDF8140048450BD0ADF821
:103020002000D42008A903F08BFF002840F0BB80CB
:1030300018F019FD08B90134DEE728680990DA456F
:103040002AD2287B98F80AE0BDF83AC00C9A8DF88D
:1030500034000020864500F0A680034602EBC00045
:103060008188494502D0581C6145F3D1286942F84E
:1030700033000C9800EBC300A0F804C0D42008A9CA
:1030800001F0C6FDA87F9DF81610814208D08DF88A
:103090001600D120314601E0D42008A901F0B8FD86
:1030A000B8F80600844203D0BDF83A00013066E764
:1030B000B8F80400002681B2B4B28C427BD2ADF8DD
:1030C0002060D42008A903F03BFF00286BD10298B0
:1030D00017F02EFE18B918F0C6FC00285FD028683B
:1030E00098F80A300C99039600260990287B8DF8F1
:1030F0003400BDF83A00B34260D0324601EBC60658
:10310000B7884F4502D0561C8742F4D1DA4534BF08
:103110002B69002341F832300C9901EBC2010822DF
:103120008880DDE9011018F0BBF92E48007830B135
:103130002C48026D1AB1BDF8201001989047002765
:10314000B8F80600BEB2864223D2BDF83A00ADF808
:103150001270ADF81000D12004A903F0F1FEE828A8
:1031600005D0BDF81400484501D00137E8E7BDF8A7
:103170002000ADF8140000208DF81700A87F8DF80E
:103180001600D42008A901F043FDD12004A901F0C4
:103190003FFDB8F804008642039E02D20BE0B8F867
:1031A0000400013687E718F043FD0C9808B118F0C9
:1031B000D9FD192011E080B2844207D118F038FD02
:1031C0000C9808B118F0CEFD1A2006E018F030FD7A
:1031D0000C9808B118F0C6FD00200FB0BDE8F08FC4
:1031E00090790020647200202DE9F047AC481D461C
:1031F000144690F88300012828D1AA481FFA81FAC2
:103200000121A94EAC4F01700020F070387883285E
:1032100002D1706918F020FBA8064FF6FE783BD467
:1032200015F0E04F6CD096F90600012802DBB0796A
:103230000138B0719E48426805F08070002A77D04E
:1032400000287AD000200021904772E095480121A3
:10325000954E0170002005F0E041F07004F002008E
:103260004018924807682AD096F90600012802DB28
:10327000B0790138B07196F90500012802DB707948
:10328000013870718A48426805F0807022B378B3C3
:1032900000200021904720E08848A6F80A800078A6
:1032A00083281CBF832038708548007820B131699D
:1032B000002957D000208847A6F80AA052E06002F3
:1032C00031D4E00300F19780A00340F1A0800020FA
:1032D000387113F0D7F89AE050B196F90700012839
:1032E00002DBF0790138F0710120307117F0ECFE4B
:1032F0000020387110F00EFB7079002874D18CE03A
:1033000014F4860F00F0A58084F48030A6F80AA09B
:10331000C6E90645284325D16A484088B0F5505F84
:1033200000F0AA801EE00020387110F0F3FA6EE081
:1033300018B10120307117F0C7FEF07E400703D5A9
:1033400017F0C2FEC6E906457089504508BF10F067
:10335000E1FAA6F80A8096F90500012802DB7079E7
:1033600001387071A00733D5DFF8589143F201415D
:10337000B9F80200884209D043F20441884205D0DE
:10338000544940F609024988914251D1707A01307E
:10339000707296F90600012802DBB0790138B0712D
:1033A00010F0B8FA16F0CEFB0020A6F80A80A9F8B3
:1033B00002004348007810B14748007808B917F078
:1033C00083FE96F90500012802DB707901387071DF
:1033D000B07908B90020B070707900B304F0020031
:1033E00005F0E04140181ED096F9050000281ADCCF
:1033F00018F042FC17E02F48007820B105200FF0AC
:1034000077FC14F0C3FD00203871FCF719FEA0060C
:1034100048BF18F0EFFC707928B90020B070002088
:1034200000210EF083F81F4800210170BDE8F087ED
:1034300096F90610012902DBB1790139B171718960
:10344000514523D1B07E10F0410F25D0FCF7F8FD97
:10345000AAE71F4804423FF485AF84F08060A6F8D5
:103460000AA0C6E9064528437FF47CAF154840888A
:1034700040F002000228ABD1144913480022096829
:1034800000684B690FFA8AF19847A1E743F60401F7
:1034900088423FF487AF87E710F03CFA84E700BF2B
:1034A000985D0020AC7A002050780020586C0020F5
:1034B00060D10100B07A0020926C00209A6C00204C
:1034C00064720020B8650020F4790020206C002090
:1034D00000000C8C306A0020956C00202DE9F04F24
:1034E00087B00446007D92F808A099469346884626
:1034F000352805D004F1700059460A2217F0D0FF94
:10350000E08A0821AD4B01EA9001DE8C217641076B
:103510006FF07F0158BF10216176C10693F8341017
:1035200048BF0021A1764FFA88F1B1F1FF3FD8BF23
:103530004FF0FF362021D4F804E001EA401100F0FA
:10354000080041EA4000217D8A1E0A2A0CD80C2975
:1035500008BF00F508500C39B1FA81F140F00300C2
:1035600049094FEA410C0AE00D2905D314BF40F088
:10357000010040F0020000E008434FF0000C94F816
:103580008C100746002918BF47F008073A0707D4F0
:1035900093F83820002A18BF384621D1A1B91FE07E
:1035A00091B193F8380078B104F1240320465946CC
:1035B0004A46CDF810C009F0D5FD38B10546607017
:1035C000F32016F0D7F8F5E0DF25F2E0E08AD4F832
:1035D00004E07A4BDDF810C000F0040047EA8000F8
:1035E000216DCDF818A019B9A16D002900F08780D0
:1035F00040F408504FF0020C714908F07F0ACDF8F2
:103600001490097851B96F49097839B194F86B1061
:10361000042904BF4FF0020C6CF31F3040EA8839D4
:10362000BAF1030F10D0BAF1020F11BFAEF10107CA
:1036300093F82B000EF8010C93F82A0004BF0EF843
:10364000020CAEF103070CE0AEF1080003F14401F7
:103650001F466546F04618F033FB3B46AC46A8F1E2
:103660000907109DBCF1020F08D1BAF1000F17D065
:103670000698B0B9B0B24FEA10282CE0BAF1000FAA
:1036800008D0069830B10599B0B2884202D149F00D
:10369000400905E0BAF1000F1CBF27F8016C023F9A
:1036A000069849EA8029D0B1059E03284FEA1628DA
:1036B0000AD002280FD19BF8010038709BF8000057
:1036C00007F8010C023F06E0F81F59469A4618F029
:1036D000F7FA5346083F07F8016C07F8028915B15D
:1036E00049F4807932E0207DB0B10D281DBF93F8F8
:1036F0002200411C83F8221018F01AF924E093F8F4
:103700005110012910D121898908762914D810F087
:1037100008013FF471AF0FE0206D90B193F83900CC
:10372000411C83F839100FE0020705D402297FF409
:1037300063AF40F4005001E040F480504FF0010CC2
:103740005AE7187D411C197507F8010927F8019DF2
:10375000606821896760C01B51FA80F020815FEAB0
:10376000097025D5A06D00B120621648007810B10F
:10377000207D0D281CD1606A10F1150102D118F0CE
:103780007BFA606A816A4A1C8262A162D4E90835C8
:10379000208994F88C20FE1A0644B6B28DE84900C0
:1037A00005F115003B4608F055FE08B1054600E05E
:1037B00000256570284607B0BDE8F08F985D0020B1
:1037C0008F6C0020647200202DE9F84FDFF88C82A6
:1037D0008A4683460120A2491D46144688F8000007
:1037E000002008709F4991F8831001291AD19F4E3B
:1037F000306808B918F040FA9D48076817B1A54825
:1038000018F018F8A00731D415F0E24F5FD09A48AD
:10381000017801390170A4480078862823D112F07C
:1038200031FEDFE09049914E0870306808B918F019
:1038300023FA8F48076817B18E4817F0FBFF15F081
:10384000E24F36D08C4801780139017089484068D0
:1038500018B18A48C1890131C18130684068007857
:10386000800600F1B48014F095FCBBE0DFF808920C
:10387000002199F80000013889F800007A480170A9
:10388000854843F20A41408840F002028A4205D04E
:10389000824A528842F002038B4265D1002008F030
:1038A0007DF999F80000002800F0A68099F9000041
:1038B0009DE0200719D46F48406818B16F48C1894E
:1038C0000131C1816C4801780139017087E004F44D
:1038D000860005F02001401800F0818058465146CE
:1038E00022462B46FFF780FC7CE0634C42F2054207
:1038F0002078013820706248418841F004009042ED
:1039000018D15C48406818B15C48C2890132C28154
:103910005A4842890132428142F20542E1209142F5
:1039200008BF1C2006F0D2FA2078002864D094F951
:1039300000005CE04F4842F606024188914226D0E2
:10394000B1F5105F45D140695149086013F0CEF8D8
:103950004C480078002845D04C480168013138BFF8
:103960000160002101813DE04A4943F60403498892
:10397000994218BF9A4248D14C48007800F0FE00A6
:1039800002287FF48BAF002006F0A0FA38E04068F0
:1039900018B13A48C1890131C1813A48007808B369
:1039A0003948042100780228344808BF0621425AC9
:1039B0000132425235484168013138BF41600189C6
:1039C000428901318BB20181934288BF4181E92054
:1039D00006E0406818B12948C1890131C1811D2024
:1039E00006F074FA2448017831B190F900000028FB
:1039F00006DC18F041F903E0002000210DF096FDEF
:103A0000002088F80000BDE8F88F43F604029042D9
:103A1000B2D0234840F6090240889042ACD0B1F5BC
:103A2000505F10D11F481A49006800F5C070086047
:103A30001D48007886280CD15846514622462B4610
:103A400012F0B4F807E0080505D51D2006F03EFA8F
:103A500001E013F04BF817F037FBC3E7AC7A002016
:103A600053780020985D0020BA7A0020947A0020D4
:103A700060D10100606A002055780020086B0020AA
:103A8000B0670020587800208C6C00207C6B0020F0
:103A9000386C0020D0670020506900203469002075
:103AA000486A0020280100219A6C00209D6C0020AB
:103AB000B0B5024991E83C003CC0B0BDCCD7010094
:103AC000A2EB0300704700BF02780B78012A28BFE1
:103AD0009A42F5D16DE9044540EA0104CDE9026757
:103AE0006FF0000C4FEA447212B380EA010414F044
:103AF000070F6AD100F0070420F0070004F0030567
:103B000021F007014FEAC505F0E8042314F0040F83
:103B1000F1E804670CFA05F462EA040266EA0406B6
:103B20000AD063EA0403624667EA0407664603E0D4
:103B3000F0E80423F1E8046782FA4CF582EA06040F
:103B4000A4FA8CF46CBB83FA4CF583EA0705A5FA5A
:103B50008CF595B950E9022351E9026782FA4CF5D8
:103B600082EA0604A4FA8CF483FA4CF583EA07058A
:103B7000A5FA8CF52543DBD09CB92DBAB5FA85F4AE
:103B800024F0070427FA04F1DDE9026723FA04F3BD
:103B900003F0FF0001F0FF01FDE80445A0EB010088
:103BA000704724BAB4FA84F424F0070426FA04F126
:103BB000DDE9026722FA04F202F0FF0001F0FF01E2
:103BC000FDE80445A0EB0100704714F0030F3CD161
:103BD00010F0030428D150F8082B51F8083B82FA62
:103BE0004CF582EA0305A5FA8CF55DB950F8042C72
:103BF00051F8043C82FA4CF582EA0305A5FA8CF5EB
:103C0000002DE8D02DBAB5FA85F424F0070423FA84
:103C100004F122FA04F202F0FF0001F0FF01FDE8D6
:103C20000445A0EB010070474FEAC40420F00300F4
:103C300050F8082B21F0030151F8083B0CFA04F46A
:103C400062EA040263EA0403C9E710F003041AD02D
:103C5000A1EB040120F00300E40750F8042B06D088
:103C60000FD28B785FFAA2F4E41A06D12BB1CB788D
:103C70005FFAB2F4E41A00D11BB920465DF8104B8C
:103C8000704701F1040150F8042BCC0721F0030127
:103C900051F8043B48D824D222F07F4482FA4CF5F4
:103CA00094EA1325A5FA8CF50AD165B951F8043BBD
:103CB00084EA0204B4EB036F0ED150F8042BEBE757
:103CC0004FEA132355E035F07F454DD10878FDE8E4
:103CD0000445C0F1000070474FEA126203F0FF0391
:103CE00047E002EA1C4482FA4CF594EA1345A5FA2F
:103CF0008CF50AD165B951F8043B84EA0204B4EBAF
:103D0000034F0CD150F8042BEBE74FEA134330E09C
:103D100015EA1C4528D10B884FEA124229E04FEAE8
:103D2000124203EA1C4324E002F0FF0482FA4CF53D
:103D300094EA1365A5FA8CF50AD165B951F8043BEC
:103D400084EA0204B4EB032F09D150F8042BEBE70B
:103D50004FEA13630DE015F0FF0F05D10B684FEA32
:103D6000122223F07F4304E04FF00000FDE80445F9
:103D7000704712BA1BBA82FA4CF482EA0304A4FA1E
:103D80008CF5B5FA85F402FA04F203FA04F34FEA6B
:103D90001260FDE80445A0EB136070472DE9F04F79
:103DA00087B000240293002A00F03A81074603A856
:103DB00092460E464FF0200B10300190504610F8FE
:103DC000011B25290CD0002900F02781022EC0F00C
:103DD000D680013E002F00F0D18007F8011BCEE015
:103DE0009AF801002D2806D19AF802000AF103037F
:103DF0004FF0010C03E00AF102034FF0000C3028F1
:103E00000CBF13F8011B01462A2920D1029D2A6804
:103E1000111D2960D2F8009013F8011BB9F1FF3F82
:103E2000DCBFC9F100094FF0010C2E291ED11A4642
:103E300012F8011B2A291CD1029D2A68111D296034
:103E40009D1C126859782B4622EAE27821E04FF057
:103E50000009A1F13002092AE7D809EB890201EB38
:103E60004201A1F1300913F8011BF2E74FF0FF38CE
:103E70000FE04FF00008A1F13003092B08D808EB40
:103E8000880301EB4301A1F1300812F8011BF2E7AE
:103E9000134630284FF0000241F0200008BF4A4688
:103EA0006C2808BF13F8011B9A46692901D06429C0
:103EB00009D1029B1868011D196090456FF0090334
:103EC000C8BF42461BE075290AD0A1F16F0009283E
:103ED00058D8DFE800F005695F5F835F5F5F5F05CB
:103EE000029D2868031D2B6090454FF00803C8BF52
:103EF0004246782908BF1023752908BF0A23DDF838
:103F000004800168404665460EF0FAFBAC46054663
:103F1000A8EB0001A9EB0100BCF1000F0DD109E0F5
:103F2000022E05D3013E17B107F801BB00E00027C0
:103F3000013801340128F3DA01380A465AB1022E59
:103F400006D3013E1FB12B7807F8013B00E00027A4
:103F5000013A0135F2E70C44BCF1000F3FF42EAFFB
:103F60000128FFF62BAF022E05D3013E17B107F84B
:103F700001BB00E0002701380134F1E700270134DC
:103F800082461BE7632905D1029A1068011D116062
:103F9000006804E0AAF10100022E3AD300788DF8FF
:103FA0000C00012103ADB5E7029ADDF8048010236F
:103FB000CDF800C01068011D116010990822002979
:103FC000016840460EF09CFB05464FF04000DDF8CE
:103FD00000C005F8010DA8EB05019BE7029ACDF89A
:103FE00000C01068011D1160109905680E48002975
:103FF000002D08BF0546284617F09AFB804501466C
:1040000038BF414618F1010208BF0146DDF800C083
:1040100080E7002103AD82467CE70FB100203870B5
:10402000204607B0BDE8F08F3CDA01002DE9F84FDB
:104030008C49DFF834820446C0478C492046C0478B
:104040008B4D17F0E3FD8B492046C04717F0DEFD8E
:1040500089492046C047DFF824A217F073FDC0B29B
:10406000012869D1824D17F0D1FD17F0CFFD8449A9
:104070002046C04717F0CAFD8248844FDFF80892F7
:1040800001254BF6EF6B00F10D06652D16D030883B
:10409000584510D116F8030C18B116F8010C494612
:1040A00018B116F8020C394628B136F80D3C2046F6
:1040B0002A4611F037F90F360135E6E76C4D17F057
:1040C000A5FD73492046C04772492046C04717F0F6
:1040D00039FD814617F09AFD5FEA09402CD017F0B0
:1040E00031FD010428D0DFF888A100902046514618
:1040F000C04720465146C04767492046C047204632
:104100005146C0475F4FDFF894810020012607F138
:104110000C05652E12D0B5F80110594509D1297842
:1041200039B135F80C3C20464146324611F0FAF8D8
:1041300001200F350136ECE7BDE8F88F50B1594941
:1041400017F070FD534917F06DFD4C48006811F0F1
:104150009AFF01E0DFF848A12046514611F0E2F84D
:10416000514A02EB094001140B01A3EB204007EB7D
:104170000009B9F80D305B456BD1009802EB0042A5
:1041800013141D01A5EB224207EB0208B8F80D50ED
:104190005D455ED1C1EB011107EB010C9CF80A50A3
:1041A000002D56D0C3EB03133B44DD7A002D50D0D5
:1041B000DFF8F8E09D1C0026B6F5616F49D00EEBE4
:1041C0000603598C59450BD1D3F80E102A68D3F841
:1041D0001270686878405140084319D02436EBE7E4
:1041E000B9F800006968A3F822B02EF80600286824
:1041F000C3F81210DCF80610C3F80E00B8F800007F
:10420000C3F80A109880DCF80200C3F806001DE02D
:10421000B3F804E0B8F800601A46764518BF9680F7
:1042200053F8060FDCF80270DCF806105D68784081
:104230004D402843B9F8000005D11588A84202D1A5
:10424000764503D105E01F6010805960022007F019
:10425000D7FE074917F0E6FC15492046BDE8F84FA0
:1042600011F060B86CCF01002553010034CF01007C
:10427000CAD7010061D0010050D70100746C002042
:10428000E8CC0100804A00203CD80100FDD50100A7
:1042900098CC010078D501007DD301003ED7010004
:1042A0003DD6010088D101000000FFFF702C0020E6
:1042B000F5D801002DE9F0438BB0DFF82082D8F863
:1042C0000000416E03A88847864DDFF814922878D5
:1042D000D9F8044002280FD174B1002000240BF05B
:1042E00041FED8F80010D9F80400496888477E4894
:1042F0000121C9F8044001700120287000200690B7
:104300007A48806818B18047D9F804400990002C99
:1043100066D10DF03FFA002855D00DF03BFA012888
:1043200051D00DF037FA05284DD00DF033FA0C2896
:1043300049D00DF02FFA0A2845D00DF02BFA0D28A0
:1043400041D00DF027FA0B283DD00DF023FA0E28AE
:1043500039D00DF01FFA172835D00DF01BFA1928A7
:1043600031D00DF017FA1A282DD00DF013FA1B28B2
:1043700029D00DF00FFA1C2825D00DF00BFA1428C7
:1043800021D00DF007FA15281DD00DF003FA1E28D4
:1043900019D00DF0FFF9202815D00DF0FBF91F28DA
:1043A00011D00DF0F7F924280DD00DF0F3F92328E2
:1043B00009D00DF0EFF9122805D00DF0EBF9132814
:1043C00018BF17F059FCD8F8000018B917F054FCC2
:1043D000D8F80000464C016A204688474548E0610D
:1043E00016F0F8F9444F97F8530012F0E9FD05462E
:1043F00097F9420011F068FB411C03D03F4940EAA5
:10440000E07048833D4C0022D5E900016260628083
:104410002A89237B667B013A43F08003514323734F
:1044200006F0F0034FF47A7600EB51000133B0FB55
:10443000F6F06373208417F069FAD0B9A88930497F
:10444000B6FBF0F00870C0B22E49B6FBF0F0087071
:1044500097F85300022802D1A820022105E010F0AD
:10446000D9FF032805D15C200521274A1070274871
:104470000170D9F80400F8B1002000250BF072FD9E
:1044800099F8000097F85320D8F8001082420CD118
:104490000E6D0221D9F804000023CDE9001503AA0E
:1044A0002146B0471C48046011E0D9F8040049686F
:1044B00088470D48012101701548104A0C4B0168CE
:1044C000D8F8000004681348A047C9F8040097F81A
:1044D000530089F800000BB0BDE8F083206C002089
:1044E000F0790020856C0020B77A002060D10100AF
:1044F0001068002054F10080985D0020886500203D
:10450000966C00209E6C0020BB7A0020BC7A0020B4
:10451000506C0020405700205C7800202DE9F04FBF
:10452000ADF5077DD0F8008006461C4615468691FD
:10453000404617F0EFF84FF0000A08EB000900279B
:10454000CDF814A2C8453AD208F1010B8DF810A29B
:10455000CDF804A21BF8010C88B3252807D0294602
:10456000C6F800B0A0470BF1010B0137F2E70BF1E1
:1045700001088597C6F800809BF8000073288DF825
:10458000100207D186A9284685AA234600F01CF808
:10459000859F10E00DF1060B81A986AA584600F010
:1045A00033F8909B0246584629469847411C18BF4D
:1045B000384407468590781CC4D14FF0FF37384601
:1045C0000DF5077DBDE8F08F2DE9F04180460868C4
:1045D0001746021D0A6005688DB128461C4617F073
:1045E00099F806463868304438600027B742A8BFBB
:1045F000BDE8F081E85D4146A0470137F6E70020BD
:104600004146BDE8F04118472DE9FC4115460E46EC
:10461000002740F2FD1120220446009717F050FABF
:1046200004F5FE7084F8FD710190307B25284ED092
:1046300004F2FD18782803D0642818BF6F280DD124
:10464000694601AA30462B4600F046F80098A8B10A
:1046500001982D21002700F8011911E063280ED1DF
:104660002868011D296004F2FB110068019184F89B
:10467000FC01C0B2B0FA80F0470900E000270198C1
:10468000A8EB000125464FF4FF73621A0029D8BF3A
:10469000551C411C00220026284615F003FF0FB1CF
:1046A00000F8016BA04207D8211A013820220131FD
:1046B00017F006FA00202070291B2046202217F050
:1046C000FFF9204617F026F83844BDE8FC81252084
:1046D00020800120BDE8FC81F8B50D46077B194616
:1046E0001446064600F014F8317B642905D1B0F178
:1046F000FF3FDEBF0121296040420A2122466F2F81
:1047000008BF0821782F08BF1021BDE8F8400FE04E
:10471000007B642807D06F2805D0782803D0702844
:104720001CBF002070470868021D0A6000687047BF
:10473000F8B514460D46064620B92068411E216092
:1047400030210170094F66B13046294600F010F85B
:1047500021684A1E226000FB15620646BA5C0A7098
:10476000F1E72068BDE8F84016F0D4BFA7D70100F4
:10477000102904BF00097047082914BFB0FBF1F0ED
:10478000C00870472DE9F04F8DB004460020794DE8
:104790000F460B90CDE90900002FA96800F0E780D3
:1047A0001646002A00F0E380387821FA00F0C007AE
:1047B00027D0304600219B4617F0D2FA6E48C4E954
:1047C0000176006880B109A800900CA90BAA0AAB79
:1047D000304605F0D9F90B980B214FF6FF725023A4
:1047E00015F0A4FBFF280CD016F0FAFF634F064625
:1047F0007878012802D830B1012068E0304617F0FF
:10480000F0F90020B3E005F033F95D480DF104093B
:104810002860484616F08CFEDFF868A15B494A46DE
:104820009AF801009AF8005003905748283013F086
:1048300020F9574857494A4613F01BF9484616F0E5
:10484000A7FDDFF85481554A19214B460295404691
:1048500012F002FB524A08F11C001A214B4612F0DA
:10486000FBFA5048504917F075F95048504917F075
:1048700071F95048006810F4402F06D04E4A07F1F5
:1048800028000421002315F061F89AF8020010B105
:104890000D2008F073FF08F1400016F011FB08F13D
:1048A000380016F00DFB4549002007223876B88401
:1048B0003862386181F860200521C7E9021040495B
:1048C000F96138700420002115F0D0FB78782E496A
:1048D00041F8204001307870304617F082F9BBF182
:1048E000000F02D0DBF8000008E00DF1040B3549A1
:1048F0002022584617F064FA4FF0FF30DBF804200E
:10490000BBF81010DBE90635002AB2FA82F608BFC0
:1049100040F6C41220600120760961832563607629
:10492000294826764FF4FA766261C4E90362C4E945
:104930000700C4E90903DBF80C0000B12062DBF8D2
:10494000140000B16062DBF8080000B1E06104F11E
:104950003800C82117F012F904F15000002115F0B9
:10496000B5FB1A4904F1B80017F0F4F820460DB071
:10497000BDE8F08FCC210840087A0020D0720020DA
:10498000110000E01CD901007074002011A7010083
:10499000A864002039D800009075002085370100F8
:1049A000311D0100D0620020719901008C6200204D
:1049B000BDA601000400005085520100205E0020C9
:1049C0005DAE0000A8D20100A36D010061BC010032
:1049D00086B013F06FFF16F003FF04460EF0B0F838
:1049E00000B1FEE7824E3068006880473068C168D9
:1049F00002AD28468847042029468DF80800306813
:104A00004268002090477B490028086000F0EE8053
:104A10000EF0BEFD0BF0C4FF16F052FE204617F05C
:104A2000E0F80EF017FC744E4FF48041307816F029
:104A30000DFFDFF8CC81DFF8C4B1724CDFF8CC9108
:104A40000DF1040A08F10405307812F03BFD01462F
:104A5000CBF80C0030780EF0CDFD11F0F3F8DBF858
:104A60000C00810635D5284614F04BFE029070B339
:104A700016F0B6FE98F80C10013988F80C1017F0F3
:104A8000B0F802980178606042788DF80410A2F1C5
:104A9000DB03182B16D8012707FA03F35A4F3B42C2
:104AA00010D008F093FA9DF80400162806D102A849
:104AB00012F01CFB9DF804101629D4D0201D12F012
:104AC00015FBD0E7002AF7D10FF0CEF9F2E7DBF8BB
:104AD0000C0001041ED530780FF030FC0290B8B104
:104AE0000178D0290ED30AD18178D0E9022389F840
:104AF0000010B0F80310CBE90123ABF8001015F05B
:104B000095FCE8E716F0A5FF384612F0EFFAE2E769
:104B1000DBF80C00C10604D52E2016F07CFFDBF874
:104B20000C00C10704D0252016F075FFDBF80C003F
:104B3000810704D5262016F06EFFDBF80C00410734
:104B400004D5272016F067FFDBF80C00010704D519
:104B5000292016F060FFDBF80C00410604D52D205B
:104B600016F045FFDBF80C00010604D5302016F0E6
:104B70003EFFDBF80C00C10504D5352016F037FFE9
:104B8000DBF80C00410504D5232016F030FFDBF8DC
:104B90000C00810504D5362016F029FFDBF80C0047
:104BA000010504D5372016F022FFDBF80C00C10404
:104BB00004D5382016F01BFFDBF80C00400448BF7A
:104BC00013F0ACF82068002768B116F009FE2168E0
:104BD0002760029117F005F8029816F03AFF384660
:104BE000002712F083FACBF80C702DE7FEE700BF28
:104BF000146C0020E06B00207B6B002030790020DB
:104C00002C6B0020886B00201F220001866C002086
:104C1000F8B50C46A0F1D001052920D80FF2040008
:104C2000DFE801F0032E4C6378AC814920880A89C3
:104C3000904280F0C480A278CB7A9A4280F0BF8004
:104C40007A4B2C265D6A00FB0655561C2E71C97ADC
:104C500001FB0020996A0A2200EB800041E08428D1
:104C600000F0AF8072287ED0732800F08180712818
:104C700040F09180002C00F0A6806C48243075E054
:104C80006B4920880A89904280F09980CB8862889D
:104C90009A4280F09480654D2C276E6A00FB07666F
:104CA00036F80C7F974202D8531C3380CB8803FB25
:104CB0000020E96A01EB8000211D67E05C49208843
:104CC000098988427BD2A178012978D8574A2C25B6
:104CD000536A00FB05334D1C01EB40001D75116B41
:104CE000022201EB4000E11C51E051482588008977
:104CF000854264D24D4E2C27A11C1022706A05FB00
:104D00000700153016F0CCFB706A616905FB0700DF
:104D100081623EE0464F2088B98888424FD2434D99
:104D2000A28800EB8006696B21F826200822686BB8
:104D3000E18800EB8600418004F10801686B00EB1C
:104D40008600043016F0ACFB686BBA7A216900EB80
:104D50008600D200C06816F0A3FB686B217D00EBD3
:104D60008600017415E0A4B13048343021460DE0CE
:104D70007CB12E4821460822383008E020780128EE
:104D80001DD82A4901EB8000611C3830042216F03E
:104D900087FB0020F8BD7F30C0B20A2811D8254912
:104DA00001EBC0073B79FA8803B972B39A4204BF9A
:104DB000FB20F8BD25789D4228BFAA4225D2E820D5
:104DC000F8BDF420F8BD1A49184A00200023002439
:104DD0000D89AC42DDD2CD7AD2E90967654305EB96
:104DE000850507EB4505F550CF88556AD66A6743B8
:104DF0001D44013406EB8706AE60556A166B1D44F0
:104E0000064404302C332E61E2E711F830000749E4
:104E10000D1816F0E5FC7A8806462846214616F05D
:104E20003FFB304616F0DDFEB3E700BF68640020AC
:104E30009079002098CB01002DE9F04F93B012F04B
:104E4000C9FC7149714A0C78AA211268B1FBF4F6C9
:104E50004FF47A71A0EB020AB1FBF4F7B91B8A4553
:104E600005D96B484FEAA10A428A01324282DFF833
:104E7000A4B1DBF80000416E0BA88847664D674877
:104E8000296990F8839009B100208847AD680DB179
:104E9000A8471190DFF8888198F8000038B1614880
:104EA00090F90000002802D45F48007858B1002033
:104EB00088F80000564801890131018116F09AFFF7
:104EC00013B0BDE8F08F5249C8880130B9F1010F25
:104ED000C88013D10AEB060055490022381A6043F6
:104EE0008000C1E90120087B4A7B00F0700083301C
:104EF000087302F0F0000130487307E04B480021CE
:104F00000E91027B816002F0F00202734948012198
:104F100001704948007818B9012000210CF006FB07
:104F2000B9F1010F08BF14F025FB16F059FC044637
:104F30004248007868B13E48B9F1010F018A3B4808
:104F4000C07B08BF08460DF0D3FE13F0C9FF002850
:104F500047D0B9F1010F19D1DBF80000416E03A869
:104F600088470DB1A8470990314D002600210696CB
:104F7000288A08F043FF08903148DBF800100F6DD5
:104F800000680221CDE9001603AA10E0274D002693
:104F90000021E87B6E8008F031FF10902848DBF894
:104FA00000100F6D08210068CDE900160BAA254BF3
:104FB0002946B8472449002808801B4918D4832073
:104FC00008701B481949B9F1010F08BF01461F4875
:104FD00001601F48017801310170204616F001FE82
:104FE0006EE7002100224FF0805307F085FD67E750
:104FF0000020074988F80000088901300881204610
:1050000016F0EFFD5AE700BF966C0020246C0020DC
:10501000E06A0020206C002060D10100985D002033
:10502000956C00209A6C00208D6C0020606A002036
:10503000D0670020BA7A0020AC7A0020B07A002035
:10504000F4790020F9CA0000826C00205C7800200E
:10505000557800202DE9F04F8BB0DFF8C0B1704DCE
:10506000DBF80C00A84200F09D8016F0B9FB02901E
:105070006C48DFF8B49100266E800778D9F80000FC
:10508000416E03A888470320684CDFF8A881069684
:10509000002F8DF81C00664F08BF202408BF4FF476
:1050A000860798F80000800706D47D20002108F0CC
:1050B000A5FE8DF81C600646DFF87CA10896DAF89C
:1050C000141011B198F800008847DAF80C0008B104
:1050D000804709905949DBF80C200020A86029621C
:1050E000297B01F0F001297355498A420BD0554ABA
:1050F0000B8A1268B2F848609E4204D1CB89B2F89C
:1051000046209A4210D0464A012348800D468BF82B
:105110000330C1E90120087B4A7B00F0F0000873EE
:1051200002F0F000023048739BF80400002840D0E1
:105130004448D9F80010464B0E6D0068CDE9007464
:1051400003AA2946B04705464248B5F1FF3F05800E
:105150004EDD9BF806000021002401308BF806008C
:105160002F48CBF80C009BF8050001308BF80500A8
:1051700002200CF077FC38498BF804403748CA8C81
:105180000388C2814A8D44318281354A127843EACC
:10519000C21220F8032B082216F082F9029816F0AA
:1051A00020FD33E09BF8060000283FF45EAF0020AE
:1051B00031E01C48007818B998F800008006B7D58F
:1051C000214890F900000028B2D420480078002837
:1051D000AED1D9F80000C06B8047297BA86003904E
:1051E00001F0F0010231297301218DF810109FE7C1
:1051F000029816F0F6FCDAF8042012B10020002123
:105200009047022041F288310CF02CFC0020B5F1CF
:10521000FF3FC8BF01200BB0BDE8F08F50780020E1
:10522000B865002064720020206C0020200000017E
:1052300000004F8C936C002060D1010000C42264F8
:10524000306A0020F47900209A6C00208D6C0020D8
:10525000E9310000806C0020985D00204C6B00203C
:105260008F6C00202DE9F84F0568834695F84400BF
:10527000022837D18846754875499146D5E91267A5
:10528000DBF804405A469A4615F00FFE2178272095
:1052900015F050F930463946062208F04FF9F0B9BA
:1052A00027200DF0A5F8E96B686B6A4E49448142EE
:1052B00007D1A86B28B9D6F8800320F00200C6F801
:1052C00080030220C6F8FC02062013F051FC70B1E6
:1052D00040203060802030600020C6F8FC024FF093
:1052E000FF3401E06FF006042046BDE8F88F02208D
:1052F00013F0C0F905F1100015F0A6FB284615F0D3
:105300001BFCAAF1010295F85A1095F85B00B2FA5D
:1053100082F2520912F018FC95F85C1079B140F055
:1053200080602F46C6F84C0116F08AF857E906123D
:10533000C6F8D411C6F8D801C6F8D02104E0C6F8E2
:105340004C012F4616F07CF8686BE96B00220023B5
:10535000C6F85801012085F85C0085F8600001EB73
:1053600009004946E863404613F0DCF895F8590017
:105370000138012818D83868B0B1374814F07AFAE3
:10538000B0F1FF3F56DD272010F06EFA296B286C34
:105390000123CA6985F85D3010442864D1E902020E
:1053A000C9690B4613F0BEF895F85800042802D0DE
:1053B00027200DF0B7FA686BE96B814208D1A86B22
:1053C000296C884204D15846BDE8F84F0CF068BFFC
:1053D000DBF8005095F85800022822D0042827D185
:1053E0001D4814F047FAB0F1FF3FD9BF4FF0FF302E
:1053F0006865584605F01EF900206C6D85F8600060
:1054000095F85900082808D8012101FA00F010F495
:10541000C37F1CBF002085F85F00284612F07AFB8E
:1054200062E70E484FF0FF3116F036FB6C6D5BE71C
:10543000002459E7002085F86000C6F84C01284692
:1054400012F068FB272010F00FFA48E7FC680020F4
:1054500039E600000444025802000080AC610020DC
:105460002DE9F04F8DB00746C089144689460730B4
:1054700086B230460AF056FC0546FF280AD130466F
:10548000FBF74AFCB04205DA70480778002F08BFE6
:105490000527A3E06D4E3078C0B91CB1022C15D1A0
:1054A000FF2D13D1387A002203238DF81C00786871
:1054B000009206906648C188C07805AA01F0E0FA1B
:1054C0009DF824003874BDF82000B881DFF880B161
:1054D000002104239BF80340BBF806A00CAA204639
:1054E00015F0A6FF9DF830007E2805D120467C21CE
:1054F00012F0E0FB9DF830007C286BD1FD8905F1AE
:1055000007081AFA88F0B0F5006F65D8BB88C5F3B4
:1055100085120490F88849461FFA88F94FEA850CED
:105520008DF82DC042EA83128DF82A00C0F30120C5
:105530008DF82C209A088DF82B203A7A05EB0A0773
:10554000B9F10D0F40EA82008DF829004AD23F4898
:105550002A460197CDF80CC000F11806304616F027
:105560002FFCDDF8290071190022002702917051EB
:105570009DF82D000871681D81B2304616F042F981
:10558000DDF8291032464B46715196212F4D8DF88A
:105590002F10039916F047F802998DF82E000B98FA
:1055A000C1F803002046514611F054FF04EB4401BA
:1055B000049A28700BEB81018A83BBF806104144E2
:1055C000ABF8061050B1019881B2204610F098F95E
:1055D0002F7803E0012700E00527377038460DB02B
:1055E000BDE8F08F894608462946002216F00AF9E0
:1055F0000DF12901052215F099F896214A462B460E
:105600008DF82F109DF82D1016F00DF851468DF8DD
:105610002E00204611F01EFF3070B9B220460DF169
:105620002902072311F016FF317851EA000737707D
:10563000D4D104EB4400049900270BEB8000818354
:10564000BBF806004044ABF80600C7E740760020F0
:10565000446200202DE9FC47D0E900588246D8F882
:105660000000D0F8409019F4F06FC0F8449035D0A5
:105670005FEA495117D5D5E91401411A504613F094
:1056800095FBD8F800008169C90605D401688DF83A
:1056900007109DF80710F6E7296801312960A97BFA
:1056A00009B90121A973696C40684FF0004600F008
:1056B0000F0404EA0100B0FA80F126FA01F101407A
:1056C00005D02F6C1FB12A68AB6C5046B847B4FAAE
:1056D00084F026FA00F020404042A863D5F8580133
:1056E000D8F83C1009F0400740680068D0F804255D
:1056F0001140394347D0DAE9006450460EF093FD7B
:10570000D7B1F07C90B90BE0316F69B10068B16E30
:10571000B26F8854306FB16F01310138B1673067B3
:1057200020688169C906EFD5F07C28B1D6E914015B
:10573000411A504613F03AFB96F86400E0B1307914
:10574000022819D017B1B179012901D0316F99B967
:105750000024B16E0128346786F86440B46607D12E
:10576000B36CB26FD6F8CC6050460094B04703E0FB
:1057700006F17C0016F010FB504605F0DFFED5F870
:1057800058014068006800F204500068D8F83810EA
:10579000084228D0D5F8F80028B3DAE90076504658
:1057A0000CF050FA504608F0A5F87879012812D18B
:1057B000D7F8F40078B997F8E80060B1002087F8CE
:1057C000E800BB6CD7F8EC10D7F8FC20D7F85041B4
:1057D00000905046A047D7F8F80020B93068816B98
:1057E00041F4006181635FEA095023D5D8F80000D5
:1057F00081690907FCD4016B21F480710163297A66
:1058000091B10020287295F84400800606D52C6CD2
:1058100024B1AB6C504620210022A0475046012104
:1058200013F0FEFCD8F80000816B21F40061816365
:10583000687908B1BDE8FC8705F58070BDE8FC47D4
:1058400016F0AABA2DE9FC47DFF8C891DFF8C88145
:105850000446002699F8000098F88370B8B1D9F88A
:105860003820A2B1D9F8580088B10DF1070142F2F1
:105870001A009047D9F858008047002638B19DF8A3
:10588000070020B1A4F1E100B0FA80F04609012F31
:1058900004D198F8530011F093FB02E0002016F0B9
:1058A00079F9C07B0125DFF874A1022808BF05251E
:1058B000DAF80000002800F0AB80E92C28D01B2C7F
:1058C0001BD004B326BB1C2C00F09380E12C6AD1C2
:1058D00015F076FD0146DAF80000002963D0C18A90
:1058E000490760D498F83410817698F822104A1C41
:1058F00088F82220406881704EE0017D052905D09E
:1059000098F8821011B9002141704DE0002E4AD064
:10591000F12013F02FFFDAF80000817E51B3012F40
:1059200005D10189406816F073FADAF80000416881
:105930000988090706D599F8001019B111F0B8FBCC
:10594000DAF80000C18A4A070DD5037E027D03F014
:105950007F03032A037643D121F00401C182314938
:105960000A8801320A80817E0139817611F086FF32
:10597000BDE8FC8715F024FDDAF8001088B1C88A6C
:1059800040070ED498F83400887698F82200421C1C
:1059900088F8222049688870284600F09BFFBDE8FF
:1059A000FC874C7000E04470DAF8000009F032F92E
:1059B000DAF80000C08A00060AD599F8000018B984
:1059C00098F843000FF04EFD98F9420015F0AFFA39
:1059D0000020CAF80000102015F0DAFDBDE8FC87B1
:1059E000F02013F0C7FE0E49DAF800000968884776
:1059F000DEE70D4909680029DAD088470020CAF897
:105A000000000A48007818B9002000210BF08EFD34
:105A1000BDE8FC8764720020985D0020947A002025
:105A2000687A0020A87A00205C7A0020AC7A0020F6
:105A30002DE9FE4F1D4614460F46814615F0D0FE57
:105A4000DFF8C0A183464FF6FD78DAE9001049453A
:105A500018BF084660B1B83016F074F940B19AF832
:105A60002400CAF8209040F004008AF824009FE047
:105A700014F0DCFA002868D006466348CDF808B078
:105A8000DDE90CB816F0A7F8604908F0200EB1F86F
:105A9000540001306FF31F30A1F85400B5605C482A
:105AA0000025C6E903792268D4F80C8086F83250C4
:105AB000C6E908550BEA000C207C72632279C6E91E
:105AC00006CEC6F8408086F8440086F83820B1F843
:105AD000541086F83350D4E905533186A168C6E9DD
