:1000000000B00320FD91010089870100898701006C
:10001000898701008987010089870100898701009C
:10002000898701008987010089870100898701008C
:0C0030008987010089870100C7BE00001D
:10003C002DE9F04FADF5077DD0F8009006469B46B4
:10004C001546869148461CF02AFB4FF0000A09EB36
:10005C0000084FF0FF340027CDF814A2C14580F002
:10006C00D980839409F101048DF810A2CDE981AAFD
:10007C0014F8010C002800F0CD80252805D0294665
:10008C003460D84701340137F2E73460859781AC8E
:10009C003146204600F0C3F82046314686AA00F0CF
:1000AC00DAF830680178A1F168024FEA7202092A85
:1000BC002AD84FF0FF34DFE802F0050E123232324C
:1000CC001D3232210146819A11F8013F682B1ED155
:1000DC0042F400710BE0819941F4006111E001469A
:1000EC00819A11F8013F6C2B14D142F480718191EB
:1000FC00023013E0819941F4005102E0819941F4FE
:10010C0080510130819109E04FF0FF3407E042F05B
:10011C00200001E042F0400081900846017800F197
:10012C00010973298DF81012C6F8009022D0C2462E
:10013C006E292CD1819843F66071084020284AD052
:10014C0040284CD0B0F5005FD0464DD0B0F5007FC4
:10015C004ED0B0F5006F4FD0B0F5805F4FF0000A75
:10016C0033D0B0F5807F30D18698FA1702C8C1E938
:10017C0000722EE09DF8040240061DD4CDF800B0AC
:10018C0081A886AA294685AB00F02BF93CE00DF13D
:10019C00060881A986AA404600F076F9909B024693
:1001AC00404629469847411CD0464FF0000A18BFDC
:1001BC0038448590074628E0CDF800B081A886AA7F
:1001CC00294685AB00F0A6F81EE0869850F8041B73
:1001DC000F60869018E0869802C80F8002E086981F
:1001EC0002C80F60D0460CE0869802C80F6008E089
:1001FC00869802C80F7004E08698FA1702C8C1E905
:10020C00007286904FF0000A859F781C7FF426AF11
:10021C004FF0FF3738460DF5077DBDE8F08F0A68C3
:10022C001378202B0AD0232B0AD0302B0AD02D2B5D
:10023C000AD02B2B18BF7047022306E0042304E0DE
:10024C00082302E0102300E0012301320A60026857
:10025C001A430260E3E7FEB50446086816460D46ED
:10026C0003782A2B11D13068011D31600068B0F180
:10027C00FF3F606005DC40426060206840F0010098
:10028C0020602868471C2F6018E000210DF1020245
:10029C00303B092B07D843185F1C2F60475C5B78F9
:1002AC0057540131F4E70023471853549DF80200CA
:1002BC0020B10DF1020017F0D7F9606038782E28C4
:1002CC0027D1781C28607A782A2A08D13068011D39
:1002DC0031600068A060286801302860FEBD0020F5
:1002EC000DF10201303A092A07D83A18931C2B60F9
:1002FC00537892780B540130F4E700220A549DF89D
:10030C00020028B10DF1020017F0AEF9A060FEBD9D
:10031C00A260FEBD2DE9FE4F054610680C46011D7E
:10032C00116007680C9AE7B3AE6898469146002EA8
:10033C0004D438461CF010F9864203D338461CF01E
:10034C000BF90646D5F804B00195B246B345C8BFC3
:10035C00DA46D8F80000CDF808805044C8F8000000
:10036C00B3450FDD01980078C0070BD1AAEB060549
:10037C004FF00008A84505DA20202146C84708F1AF
:10038C000108F7E7DDF808800025B5420FDA57F8C9
:10039C002500B0F5807F1AD2C0B22146C84701357E
:1003AC00F3E70020214603B0BDE8F04F1047B345FA
:1003BC0015DD01980078C00711D0AAEB06050026C0
:1003CC00AE420CDA20202146C8470136F8E74FF040
:1003DC00FF30C8F800001CF0C1FB58210160BDE8DB
:1003EC00FE8F2DE9F84F054610680C46011D116073
:1003FC0006680A9ACEB3AF689A469046002F04D48A
:10040C0030461CF04CF9874203D330461CF047F9B8
:10041C000746D5F804B00095B946BB45C8BFD946C8
:10042C00DAF800004844CAF80000BB450DDD00981E
:10043C000078C00709D1A9EB070A0025554504DA55
:10044C0020202146C0470135F8E70025BD4204DADB
:10045C00705D2146C0470135F8E7BB4503DD0098C8
:10046C000078C00706D1BDE8F88F00202146BDE812
:10047C00F84F1047A9EB07050026AE42F3DA20200F
:10048C002146C0470136F8E72DE9FC4716464FF0E8
:10049C00000A0D46D1F8048040F2FD1120220446DA
:1004AC00CDF800A01CF0F6FA04F5FE7084F8FDA15E
:1004BC000190287BA0F16301152900F29F80012295
:1004CC005E4B8A401A4200F08580694601AA284694
:1004DC00334600F0B5F84FF0000A287BA0F16F010D
:1004EC004FF0000909294AD8012202FA01F140F221
:1004FC004322114243D0287804EB08072646C00754
:10050C00019808D104F2FD116A682646091A914235
:10051C00DCBF791A4E1C411C304600224FF4FF738D
:10052C004FF000081AF024FFBAF1000F01901CBF25
:10053C0000F8018B0190B84207D8391A01382022F3
:10054C0001311CF0A7FA002038702878C00605D4B9
:10055C00311B204620221CF09DFA35E0A64233D0F8
:10056C00311B2046302230271CF094FA009850EAB8
:10057C0009000FD1287840070CD4204610E05828E9
:10058C00B9D02868009900F00209002941D00198DF
:10059C002D214FE03178204600F8011B06F8017B35
:1005AC00297B41290CD0582905D0612908D07829FC
:1005BC0001D0702908D12A78120701D4612903D1FE
:1005CC00717841703020707020461CF068F85044EF
:1005DC00BDE8FC8791B93068011D3160006884F872
:1005EC00FC01C0B22968B0FA80F04FEA501A21F031
:1005FC000201296004F2FB1101916EE7252803D05A
:10060C0058283FF462AF69E7252020800120BDE81F
:10061C00FC87B9F1000F09D1400704D501982021BE
:10062C0000F8011901904FF0000964E701982B21A3
:10063C004FF0010900F8011901905CE742302400E9
:10064C00F8B50546806814460F46B0F1FF3F04DD4F
:10065C00286820F01000286001E00120A860287BA9
:10066C001026582807D0782805D0702803D06F287A
:10067C0014BF0A2608262846194600F053F8AA6823
:10068C004AB950EA010206D12878000749D52B7BDC
:10069C000020002112E02B7B642B04D16423B1F1E8
:1006AC00FF3F0BDC04E0692B08D1002906D5692338
:1006BC0001223A600022404262EB01013246009472
:1006CC0000F0AAF83021AA68904205DA22680130BD
:1006DC00531E23601170F6E7287B582818BF782822
:1006EC0010D1297809070FD521684A1E702822607D
:1006FC0008BF782008702068411E216030210170ED
:10070C00287B01E07028ECD06F280AD128780007EC
:10071C0007D520684178302903D0411E2160302153
:10072C000170F8BD027B702A3FD0006843F66073FD
:10073C001840B0F5005F18BF402812D1A2F1640038
:10074C00142830D8012303FA00F0324B18422CD174
:10075C0010F0210F27D00868021D0A600068C1172D
:10076C007047B0F5807F26D0B0F5007F3CD0B0F557
:10077C00006F20D0B0F5805FE0D02028DED1A2F150
:10078C006400142808D8012303FA00F0214B184206
:10079C0004D110F0210FDED1582A39D10868021D7E
:1007AC000A60008805E0582A32D10868021D0A60E8
:1007BC00006800217047A2F16400142808D80123B6
:1007CC0003FA00F0134B184204D110F0210F01D1A1
:1007DC00582A1DD10868073020F0070000F10802E4
:1007EC000A60D0E900017047A2F16400142808D80F
:1007FC00012303FA00F0074B184204D110F0210F2B
:10080C00A9D1582A04D10868021D0A600078D0E7E3
:10081C000020CEE700081200F8B505461148124E2C
:10082C00582B069F144608BF064655EA010011D105
:10083C003868421E3A60302202700BE0284622468D
:10084C0000F014F83A68531E3B6000FB1453054645
:10085C00F35C137055EA0100F0D138681BF01FFFF0
:10086C000138F8BD8A2002009B200200102A06D015
:10087C00082A09D1C00840EA4170C908704700092C
:10088C0040EA01700909704719B9B0FBF2F0002178
:10089C00704780B500231BF087FB80BD2DE9F04F1E
:1008AC008DB0DFF8E4B69BF8838017F0A3FEDFF879
:1008BC00DC1608608121DFF8D806B8F1020F017050
:1008CC0003D1DFF8D006FF210170DFF8CC16DFF87A
:1008DC00CC560020DFF8CC66B8F1010F08702880E8
:1008EC00DFF8BC0600783070DFF8BC060068077AC9
:1008FC002DD190F90910002900F1198261F30A2712
:10090C0009096FF0030261F34102DFF8A0161744E6
:10091C00CA89B9B2914200F20A820A3019F0E5FA9A
:10092C00DFF88C16288805221CF031F806F110002F
:10093C001BF062FD28886FF0020106F1140206F12B
:10094C00130311FA87F906F1120105301EE0DFF8E6
:10095C005C164FF6FE703844C98980B2884200F2AA
:10096C00E681DFF84C060422016806F1100008311C
:10097C001BF042FD28884FF6FB7106F1130206F1BD
:10098C00120307EB010906F11101043028801F78CE
:10099C00DFF824361278DFF81C4609781B782270B1
:1009AC0041EA0722C7F3011AB2801BB9BAF1020F50
:1009BC0000F0BD81BAF1030F00F0B98101F0070717
:1009CC0013B1002F00F0B381DFF8F0E5042F9EF88F
:1009DC00001008BF002900F0AA813BB1DFF8E03518
:1009EC001B78862B02D1022F40F0A181930410D4E6
:1009FC0002F00702022A08BF00291BD0DFF8C0054D
:100A0C000078862805D10020744617F02BFE21783B
:100A1C00A646307800284DD000294BD1012800F093
:100A2C008681032840D0022844D1B088400740F08A
:100A3C007E813FE09BF88310022900F09080DFF864
:100A4C0070150122A046096811FA80F000F1080126
:100A5C000DF113001BF0D0FC2888013028801BF00E
:100A6C0065FE0546DFF858050078862874D1DFF856
:100A7C006C45206808B91CF0F7F89DF913000021AB
:100A8C00002719F087FA216848779DF813008F77B3
:100A9C00C87728461CF0A3F8B18898F8000001F03C
:100AAC00100115F0EDF95AE0B08800F007000328AA
:100ABC0040F03D81B188080708D511F4405F00F083
:100ACC0036819BF83820002A00F031818A0402D448
:100ADC008A0500F12C8106F11207B8F1010F3A4694
:100AEC0008BF06F113021278C2F38104012C00F046
:100AFC001E814FEA921CBCF1010F00F01881BAF173
:100B0C00010F0FD841F0020303F00703032B09D1A7
:100B1C0014B93F2A40F20B81DFF8A8341B78234329
:100B2C0000F00581BAF1020F03971BD1DFF89C345A
:100B3C001F5D13F80C3003EB070A0023402AB4FAAC
:100B4C0084F238BF012352091A404B0618D4002AEC
:100B5C0008BF0AF1020A17E028461CF040F81AF008
:100B6C000FFEE6E0DFF86034402A1F5D13F80C300E
:100B7C0003EB070A08D34A0648BFAAF1020A03E0AE
:100B8C00002A18BF4FF0020AC1F300215FFA8AF75E
:100B9C001FFA89F37A1A71709A4200F3C8803A46A8
:100BAC004944CDF808C07746891A91469922002805
:100BBC00F18058BF7422501880B21AF063FD0028DF
:100BCC00F06000F0B4807421CDF804A0A2461BF0B4
:100BDC00C9FF0020DFF8C013B070387818B930792D
:100BEC0000F02000087070780978574600290399A6
:100BFC0020D0F8B9B08800F00700032804D00128F1
:100C0C0018D19BF88200A8B1B8F1010F08D0DFF819
:100C1C00C003007820B11BF059F90399FE2807D0C6
:100C2C0017F0CCFC039918B91AF056FA039908B1CD
:100C3C000120B070F46804F174006060A065F28863
:100C4C00A4F85C202281B288130713D57278B8F10E
:100C5C00010FC2F10302A4F85C2018BF06F11101C8
:100C6C0092B21BF0C9FBF468B4F85C00A26D10449E
:100C7C00B288A065A281FF20CE4B84F83A70DDF8D3
:100C8C0008A096F802C0727C96F812E0F77CA0736C
:100C9C0070781B7884F830A0002818BF002384F8E3
:100CAC0049302B88181AB8F1010F288008BF7246FA
:100CBC0018BF7746019902F07802C7F301131A4462
:100CCC0009066CF38202227400F05B81B8494A4633
:100CDC00A6F808900DF113099BF88370096811FAB6
:100CEC0080F000F1080148461BF086FB308929880A
:100CFC004FF0120A012F02970844288008BF4FF0CA
:100D0C00130AF16816F80A000A7CC0F38108C0F3D4
:100D1C00011302F04004B8F1000F03934FD0022BE3
:100D2C0015D1A4B1B1F844200DF1130917E01BF053
:100D3C00B3F91BF0FBFC9E4900240A6813681C7174
:100D4C0012680A601BF04BFF0DB0BDE8F08FBDF8C8
:100D5C00132009F10209A1F84420A1F842209D4F6B
:100D6C0092B2FB899A4204D04FF6FF739A4240F03C
:100D7C00B980B8F1030F12D101F1320049461BF0D2
:100D8C0097FFF068F91C323019F083FF039B0028A1
:100D9C0000F0A88016F80A0009F108090FE039F8EC
:100DAC00022B4A86B9898A4208D06FF00301039B53
:100DBC00033189B28A4240F0958000E0039B4028C1
:100DCC001DD3022B04D158EA04010BD1F16803E0C6
:100DDC00F1680A7C520605D4B9F8002009F1020921
:100DEC00A1F84220C02805D3F068494628301BF0F2
:100DFC005FFF03E0B9F80000F1680885039B7149B7
:100E0C00B088097800F00700A1B1012B12D8012895
:100E1C0004D1B8F1000F06D001200DE0032808BF63
:100E2C00B8F1000F06D16B49F268C989B2F84220BB
:100E3C008A4257D1032804D0012811D19BF8820093
:100E4C0070B1F06815F086F950B90020F17CB070E3
:100E5C00B07CC1F3011100F078000844F16808740B
:100E6C00F0688189090776D53289806D0DF11301FF
:100E7C001BF0C2FAF16830898A6D02448A65B1F8B8
:100E8C005C2010440122A1F85C00494928881BF021
:100E9C007EFD0DF112001BF0AFFA28889DF81210A0
:100EAC0001302880F068806D01709DF81200F168A7
:100EBC0010F00702C0F3C10081F82420B1F85C20C7
:100ECC0081F8250002F10102A1F85C208A6D02F183
:100EDC0001028A6506D04049085C021DF088328107
:100EEC00904204D21AF03FFD13F0E8FB21E73049A1
:100EFC0028880DF127071BF04AFD38461BF07CFAB9
:100F0C00F068DDF82710328981612988052A11449F
:100F1C0029800BD31C30391D053A1BF06DFA328930
:100F2C00D01910F8011CF06880F82610806D0DF1B6
:100F3C0027011BF061FA3189F088CA431044F2682A
:100F4C00F080936D10810B449365B2F85C301944BA
:100F5C000844A2F85C000298012812D116480078C7
:100F6C0010B1039801280CD80B497078097841B15D
:100F7C0038B91048B1780078002918BF042110F056
:100F8C00AFFC01F0C9F8D4E62C100220441F02205B
:100F9C00AD1F0220B21F0220B01F0220981F02209A
:100FAC00AF1F0220102C0220701F0220F82C0220F0
:100FBC00081F0220BD1F022074240220BC1F022027
:100FCC00B51F0220AA1F02208823020084230200DE
:100FDC002C2E0220A41E0220482402000C2E0220DB
:100FEC002DE9F04F8DB0DFF8FC84824698F8830031
:100FFC00012840F0B980DFF8F0040068416E05A8C4
:10100C008847DFF8E874386808B91BF02DFE1BF030
:10101C008DFBDFF8244505462078002800F0F5808C
:10102C0028461BF0DCFDDFF8C80401210170DFF855
:10103C00C4143868456895F80090097829B90120DE
:10104C00002111F0D7FA38684568068919F0C4F9FF
:10105C002888000708D5207830B12846314610F092
:10106C0091F9002840F038822846314618F03DFFAF
:10107C000DF11301642016F0F7F9207838B1DFF880
:10108C00C804007816F0E0F8002800F02282DFF89F
:10109C00BCB4B41C0DF11201E920ABF8104016F0F1
:1010AC00E3F99DF81200002808BF341D1822A6B2DF
:1010BC00002805F8024DC6F3022108BF0822881843
:1010CC00DFF84C146870E0B2097851B13968097DC9
:1010DC0039B1BBF8100018F0BFFD002800F02381D7
:1010EC002878C0F3401130460DF0DEFF9DF8133028
:1010FC000021CA4ADFF80044CBF81C50DFF85074CA
:10110C00ABF80210002B08BF02F5B252089121690E
:10111C000A903A61CBF8182021B1DFF8D0030068AF
:10112C000C308847A06808B180470B90DFF8246426
:10113C00DFF82454002009F0200470806880687B5C
:10114C0000F0F000033068731BF0F0FADFF8D833CE
:10115C00BAF1050F039000F2E880DFE80AF003F51E
:10116C00E6E8F5F43546EFE0DFF87C83D8F80000CC
:10117C00416E05A88847DFF874B3DBF8000008B9A6
:10118C001BF072FDDFF8680301210170DFF86403C6
:10119C00007818B90120002111F02CFADBF80000BE
:1011AC00446805892078C0F3401128460DF07CFF77
:1011BC00DFF844930A90D9F8101019B1DBF800004D
:1011CC000C308847D9F8080008B180470B90CB4801
:1011DC00007878B3D9F8201041B38847C949002862
:1011EC00C94B0A4608BF023212781A708DF83020AB
:1011FC00CA1C002818BF4A1C10788DF83100C04852
:10120C001978022908BF023011E0CC48017821B9C5
:10121C00CB49097800293FF403AFCA4902220A706E
:10122C00007883287BD114F0ADFD78E0B4480188B8
:10123C000131018014F0FEFAB548B44E0078F57314
:10124C0050B1DBF80000007D30B1284612F05AFC9A
:10125C0018F002FD002866D00027346177801BF05F
:10126C0065FA0546BAF1000F7780089705D0BAF1F8
:10127C00010F2ED1A748A849C161A648A349027BFA
:10128C00437BC47D41604F60478002F0F0020273E3
:10129C0003F0F0020232427304F0F0020432C27521
:1012AC004A7B22F00F02531C4B73DBF800305C6856
:1012BC002478A40607D5994C42F002024C605B6876
:1012CC009B784A73A373964E7060707B00F0F000AD
:1012DC0070739448D8F800100822934B0C6D0021C1
:1012EC000068CDE9002105AA3146A0478F49B0F12D
:1012FC00FF3F088007DD8E48844901608D480178E6
:10130C00013101700BE0D9F8004034B1DBF800007A
:10131C000021002200230C30A0471BF056FB28466E
:10132C001BF05DFCD8E0E120D4E05D460CE098F8C1
:10133C0053001D4616F0E0FCC07B2B46864D022860
:10134C0018BF5D4600E0854B9BF80D004FF000097F
:10135C00CBF8049020F00F00411C8BF80D100CB949
:10136C00022741E040F00200A7F80290DFF8F0916C
:10137C00AA214FF47A76CBF804701C468BF80D003A
:10138C00387B00F0F0000730387399F80000B1FB9F
:10139C00F0F1B6FBF0F2511A48438000B86098F8AF
:1013AC00530014F0FFFE6749862223460A706249F7
:1013BC0040F22C72097800294FF4F47108BF4FF4F5
:1013CC00F67208BF9821042808BF114699F800004E
:1013DC004FF02009B6FBF0F2114448434FF47A6108
:1013EC0001EB800038625F4FDFF844815E493F4E6D
:1013FC00DDF80CA0D8F80000884211D049495B48B0
:10140C000968028AB1F84840944209D1C089B1F800
:10141C004610814204D1287B2C4612E00E7A555599
:10142C00524C53490020012260800A70C4E90150DB
:10143C00617B207B01F0F00120F00F000231207362
:10144C00617300F0F000002120733B48A16000782C
:10145C00A0B1306890B1007D35280FD022481D46D0
:10146C000068C06B8047217B2B46A060059001F083
:10147C00F0010231217301218DF818101A49294805
:10148C00096800680D6DCDE9007905AA2146A847C9
:10149C002649B0F1FF3F088007DD2648C8F800B0A8
:1014AC0001780131017050463AE7134804682CB1B9
:1014BC000020002100224FF08073A04750461BF003
:1014CC008EFB1D48007850B1306840B1007D352846
:1014DC0005D11A2009F03EFD0DB0BDE8F08F1BF0D0
:1014EC0074FAF9E72C100220401F02200C2E022067
:1014FC002E2E0220202E0220AC1B0200A82B022034
:10150C00501E0220001F0220A71F02207C1D02205B
:10151C00242E0220341B0220006A1800EC1D02202D
:10152C00C82C0220782D0220BD3300009E1F022003
:10153C00AC2B0220A52B022074240220AD1F02200C
:10154C00B01F0220B51F0220AB1F0220541B02202B
:10155C003C190220D81C0220BC1C0220018E000069
:10156C00B11F02200200430018060020641D022057
:10157C00A32B02202DE9F84305460C46480413D44E
:10158C00A00024D4A0075CD460057ED4200500F113
:10159C000481200700F13781600040F1F48012F0E3
:1015AC0061FF24F08044EEE01BF0C0F8DFF810146B
:1015BC000F6D3FB1D7E90A1202F0E04201F00A01C7
:1015CC00891849D01BF00BFB24F48044DBE0B948AC
:1015DC00DFF8F073016841F080010160B8780128F0
:1015EC0004D1042017F0AAFA0020B8701BF09EF862
:1015FC00064604201BF0B8FBDFF8CC130A689042B7
:10160C0019D12A7EBAB1FA68AAB1DFF8B403806C9A
:10161C00002800F09580C16840F6030209889142C9
:10162C0006D0C06840F604010088884240F08880EB
:10163C0005F1140086E040F6C4120860C5E90422E6
:10164C0082E006F0B5FEDFF87803006C002840F06D
:10165C009B8024F0020496E0D7E90A65D7E90A12C8
:10166C00AA43B143C7E90A121BF0B9FAB8680028BB
:10167C00AAD056EA0500A7D0D7F808C03869B7F940
:10168C00301032462B46E0479EE71BF04FF80546DC
:10169C0019F0D8F8002800F0B380C948876B002FE8
:1016AC0000F0AE80DFF81C830420C849002288F8C3
:1016BC001800C3481AF07EFB1BF0AFFAC4481BF0AD
:1016CC0082FA1AF00DFCC8F810000125042088F8E5
:1016DC00025017F0E1FE386990F82810C8F80400A1
:1016EC00490703D5436A042100229847012013F0CF
:1016FC0041FFD8F8040045760EF042FBD8F8040000
:10170C0081680B461A465B684BB11E88A6F6030629
:10171C00072EF7D805FA06F616F0830FF2D0537B96
:10172C0003F0F003013353730023FD6853602D88DD
:10173C00A5F60305012D00F28880C8F810309DE055
:10174C0005F1100016F07EFA30461BF048FA17F03F
:10175C00BBFE78B12E6A28466FF4807100224FF0E0
:10176C000073B0479648806B10B112F07BFE01E01D
:10177C0044F00204EE692846002100224FF08063F9
:10178C00B04724F0005434B1944821462830BDE8C9
:10179C00F8431BF005BBBDE8F8838A4EB0780128EE
:1017AC0004D1042017F0CAF90020B07017F08CFE99
:1017BC0038B170686FF4807100224FF00073056AC5
:1017CC00A847306940B11AF08BFB32697168801AF6
:1017DC00000BC86000203061794D7F4900222846FB
:1017EC001AF0E8FA02203076286C20B17B480221EE
:1017FC0028301BF0D5FA12F035FE24F40064C2E751
:10180C001BF00BFA41E01AF091FF054619F01AF89B
:10181C00A0B1DFF8B08198F8000000070ED498F959
:10182C00000000280AD468460EF042FC08B100986B
:10183C0020B1DFF8AC9199F8610048B31BF0EDF9D9
:10184C0012F010FE24F008049DE7034633F8385FCD
:10185C00A5B190F8445090F8456005F0F00580F87B
:10186C00445006F0F005013580F8455000255360D2
:10187C00C5634587507B00F0F0005073554800223B
:10188C00C2610160012019F057FB24F480647AE7EF
:10189C0000260127602E0FD009EB0600817A31B1AA
:1018AC008772407A07FA00F0C0B217F061F920365F
:1018BC00F0E700BFCC210840032088F8180044480A
:1018CC001BF081F91BF0A9F9424F3D4D00227869BC
:1018DC0000207861F968F860284642491AF06AFAE3
:1018EC001AF0FEFAD8F80C10D8F82020411A02EBA6
:1018FC001130B0EB113F38BF4FF0FF3098F8241087
:10190C00C8F8200021B1D8F80810B0EBC12F20D9AD
:10191C0019F022FBB8B140F60900414621F83C0F02
:10192C00002048804A7B02F0F00201324A730A7BA5
:10193C0002F0F0020A734860F8613960B8F83E00B2
:10194C0010F4406FFAD00020C8F82000012088F86D
:10195C00240015F0D1F82448002101600220002158
:10196C0019F0EAFA022017F0E9F810200DF0E8FA65
:10197C0098F8010020B9D8F8040050301BF00AFA8E
:10198C001A48807810B90D200DF0DAFA98F8250075
:10199C0028B1002088F82500052017F0CFF800208A
:1019AC0088F818001248C8F81C000220B5F8561028
:1019BC00B5F85420914208BF072011F0CBFF3FE748
:1019CC0010280220E0240220C02D02202DA80100A6
:1019DC00CC1602200010044009C70000502702203A
:1019EC00B8100220D544010000000460142202004B
:1019FC0009C2000070B592B0DFF8A4031AF03AFEE9
:101A0C00002840F0CB81DFF89C03007813F03AFB00
:101A1C00002800F0C3810446DFF88C030668002E12
:101A2C0000F0B98120780138122800F2B481DFE887
:101A3C0010F013002D0047005C006C009900A7000B
:101A4C00CE00D000EA00EC00FC0019012401B20128
:101A5C002D014101480153013068002800F09B81A1
:101A6C0000206D46CDE902001AF09BFFCDE9000184
:101A7C00A07A05F1080115F0F5FF05F10E0004F14F
:101A8C000B010B221BF0A0F9316823E170680028D0
:101A9C0000F081810020211DCDE90200CDE900007C
:101AAC0060788DF800006088ADF80200684628C99F
:101ABC00021D28C20B88897891701380716869E1C6
:101ACC00B068002800F067811AF06BFF6D460B229E
:101ADC00CDE90001A07A04F10B018DF8080005F1A5
:101AEC0009001BF071F9B168F4E0F068002800F00F
:101AFC00528100200290CDE900001AF023FB40F047
:101B0C00F3800088ADF80200F4E03069002800F0A2
:101B1C0042816D46402128461BF024F8E178A078DC
:101B2C008DF80110616800288DF8000000F0178115
:101B3C0011B1281D15F0D8FD207A8DF82800607A97
:101B4C008DF82900A07A8DF82A00E07A8DF82B0008
:101B5C00207B8DF82C00607B8DF82D00E089ADF892
:101B6C002E0015E17669002E00F015811AF019FF90
:101B7C006D46CDE9000105F1080004F10A01E8E029
:101B8C00B069D8B10020CDE90500B4F80100E178C6
:101B9C002279ADF8000068468DF803208DF802100C
:101BAC00611D112204301BF00FF9A07D8DF815007A
:101BBC0008B1A0690690B16968468847A178A06908
:101BCC000029002800F0E7801BF0CAF8E3E0F16977
:101BDC0071E0366A002E00F0DE80002021796279F7
:101BEC00A3796D46ADF8000060788DF80000608830
:101BFC008DF804108DF806308DF80520E11DADF838
:101C0C000200E81DA5E0716A38E0B66A002E00F00B
:101C1C00C2806D46162128461AF0A4FF1AF092FADB
:101C2C006DD10088ADF802006EE0316B99B10020E7
:101C3C00258A6669CDE90200CDE90000B4F80100FF
:101C4C00D4E902230496ADF80C50ADF800006846B8
:101C5C00CDE9012388476068002800F09C8019F0CA
:101C6C004BFB98E0706B002800F095806D46214688
:101C7C0028460DF027FB716B2CE0B16B002900F0AE
:101C8C008A80B4F80100ADF8000082E0F16A002906
:101C9C0000F081800020ADF80C000290CDE900002E
:101CAC00A01CA27A022A8DF8082036D10088ADF843
:101CBC00000036E0316C00296DD060788DF80000A2
:101CCC0067E0F06B002866D06D46214628460DF083
:101CDC00F9FAF16B28465DE0736C002B5BD0A21C0B
:101CEC0000200021984756E069460268406802319E
:101CFC0048600A60A089ADF80C00F16849E0026800
:101D0C004068A91C48600A60207D02288DF81400E8
:101D1C0011D1A089ADF80C0011E002684068CDE942
:101D2C000020A089ADF80A00A07B002818BF012074
:101D3C008DF80C002DE0E0682169CDE90301E08A03
:101D4C0004F11901ADF81600207E8DF8180005F18C
:101D5C0019000B221BF038F82846B0471BE011B1D4
:101D6C00281D15F0C1FC227AE068C2F3021112F0B2
:101D7C0007028DF830108DF828201CBF0B9000EB5B
:101D8C00420001B10D90207C8DF8380060690F90F5
:101D9C00316968468847204619F0AEFA12B070BD1A
:101DAC00141C0220A31F0220082E02202DE9F04F44
:101DBC0091B0CDE90D31D7490292D1F8048098F851
:101DCC00304098F8505010A909F082FD824601303D
:101DDC000FD098F8160078B1012105F002054207E2
:101DEC004FEAD00218BF01EBD00203923DB9002795
:101DFC0017E04FF6FF7A82E14FF0000A7FE10E9870
:101E0C0098F81730D8F84C600AEB000101390AB287
:101E1C0002990B44013B1BB2B0470746BD48D0F8B2
:101E2C0004801A98CDF830A00695009098F814000C
:101E3C00002852D0012840F062811A990D98002494
:101E4C0021F0FF0920F0FF065FFA81FBC5B298F87C
:101E5C001700A1B2814280F0528102984FF0000A23
:101E6C0004EB00080C991FFA8AF0884227DA1098C4
:101E7C004FF47F43411C1091007806FB00F1C0F534
:101E8C00807202FB091102FB0BF215FB002003EA26
:101E9C001121C0F307204218069850B99D490E989D
:101EAC004968504400B209684B680FFA88F19847AA
:101EBC0002E001201146B8470AF1010AD2E7954821
:101ECC00DDF830A010990134D0F8048098F8160091
:101EDC00A0EB0A0008441090B9E70E984FF0000BE5
:101EEC0000224FF0000905945044079001380A90E5
:101EFC000020099000200F9098F8170091B28142B1
:101F0C0080F0B280029801920026104400220890C2
:101F1C00039990B2884280F0A18010984FF000088D
:101F2C000492411C109100780B90B8F1070F00F24D
:101F3C00928030B2504580F28E800B98C00707D14A
:101F4C00A5B9002C40F0808072490E981A9A04E0D2
:101F5C00002D4CD16F490E980D9A4968304400B24F
:101F6C0009684B68089909B298476DE05FEA0B4025
:101F7C0065D0002C5FD00F990798A0EB010A8CB2AA
:101F8C005FEA0B4052D00E98844205D01FFA8AF0BB
:101F9C001FFA8BF5854214D20C981FFA8BF50A9A0E
:101FAC000FFA89F195FBF0F012B2484403B259488C
:101FBC001AF033FD0D9907462846B8474FF0000B31
:101FCC00DEE754480A9940680AB20FFA89F10B46C9
:101FDC00C46C0F9800B2A0470D9907462846B84725
:101FEC000E98ABEB0A0B09F101090F90C3E70998A6
:101FFC00000406D02CB909981A9980B2B847002071
:10200C0009901FFA8BF1002C20460BF1010BB1FA51
:10201C0081F118BF012049090840DDE90E0118BF04
:10202C00311808980F9118BF81460DE0DDF830A0EB
:10203C00DDE9054503E00D991FFA8BF0B8470998C7
:10204C004FF0000B013009900B9808F10108013694
:10205C0040080B9069E7049A013259E72D48019A20
:10206C00D0F80480013247E7002D48D009980004CD
:10207C0005D024B90998009980B2B8473FE05FEACF
:10208C000B403CD0002C3FD00A9804B20F99079813
:10209C00A0EB01088EB25FEA0B4030D00E9886425E
:1020AC0005D01FFA88F01FFA8BF5854212D21FFA61
:1020BC008BF50FFA89F1224695FBFAF0484403B2EE
:1020CC0014481AF0AAFC0D990246284690474FF086
:1020DC00000BE0E70F480FFA89F122460B464068E7
:1020EC00C66C0F9800B2B0470D990246284690472F
:1020FC000E98ABEB080B09F101090F90C6E70FFA2C
:10210C008AF011B0BDE8F08F0D98CDF824B0009096
:10211C00B0E700BFF82B02202DE9F04186B0C24E8B
:10212C00C24CC34D30882168EA88084400F108018C
:10213C00E868806D1AF060F9EA68E8883188DFF8A1
:10214C00F482936D0144318018449065206801221B
:10215C0098F8837010FA81F000F108010DF113006A
:10216C001AF04AF930880130022F308013D12168DF
:10217C0001221AF02FFC68461AF03EF930882168CB
:10218C000122013030801AF025FCAB481AF034F9EA
:10219C00308801303080216805AC04221AF01AFC1A
:1021AC0020461AF029F9308804210430308020466A
:1021BC0017F09CFE059019F073FAE968C86305984E
:1021CC0018F04AFFE968A1F840009C48007818B163
:1021DC001AF0B0FDE968C863EA2018F0FDF99848D8
:1021EC00426812B1E8680121904702219548022FFC
:1021FC00017009D19448007830B1A87C800915F0A1
:10220C00C7FC08B10120A870E968A8780A7C0028EE
:10221C0018BF42F004029DF9130000240A74002137
:10222C0017F0B8FE0146E86880F846109DF81310C8
:10223C00B0F85C2080F8474080F8481000F1740139
:10224C0081650189511A42680A44818942608B0573
:10225C0013D40B071CD501F00703032B0AD053B979
:10226C0012F8033F382404EA530403F0070304EB89
:10227C0043031A44013242610AE010F09DFEE86803
:10228C00416E11B1B0F8681079B141684161818932
:10229C00090711D490F86010D1B112F0D9FFE86899
:1022AC00C16CA9B1B0F8500090B905F10C001AF04E
:1022BC00FBFB0020E86038E006F0FAFCE9684870A7
:1022CC00E86881694165407810B1F22018F084F912
:1022DC005E4C2078002800F09D80E868828902F02E
:1022EC000701022904D15A4B1B780BB94378FBB177
:1022FC00584B1E780123002E00F0878002F44052C8
:10230C00B2F5005F40F081804278A2F1DB03182B1C
:10231C0062D8012606FA03F34F4E33425CD00129F2
:10232C0003D1042181730AF0E9F812F0C7F978E0BF
:10233C0000218DF8121000F128010DF10A001AF09D
:10234C00B7FCE8680A2200F1280168461AF054F834
:10235C00434E636A0DF11202042130880130308043
:10236C00E868406E984730B93E48006818B19DF84F
:10237C00121080F86810E86890F83010022911D11A
:10238C002830002108EB0103425C93F820309A427C
:10239C0008D101310229F5D108F116010DF10A001D
:1023AC001AF086FC3048007886280AD17088E968D3
:1023BC000130898970802D4801F01001007813F0EC
:1023CC005FFD207818B1A16C09B1E868884705F168
:1023DC000C001AF069FB20E0002AA6D11F499DF8D9
:1023EC001320AB780A701E498A880132002B8A8030
:1023FC0000F1280100F11C0218BF0423184614F048
:10240C0029FA2378002B18BF01231BB1A16C09B149
:10241C00E8688847E8680AF071F80020E86019F06D
:10242C00AFF906B0BDE8F081981F0220081F02200A
:10243C00102C02202C100220B21F0220262C02206D
:10244C00AC1B0200AD1F02202C2E02207424022093
:10245C00BC1F0220B01F02201F220001BB1F022044
:10246C00001E02200C2E0220B51F0220BD1F0220D0
:10247C002DE9F04F85B005460868C8B1D5E901795A
:10248C000C461AF053F90646D7F8E800032103224C
:10249C00112838BF0122092838BF0022A068024247
:1024AC0002D16068024208D0304621741AF097FBC2
:1024BC000024204605B0BDE8F08FD7F8C0206AB1E3
:1024CC0097F8FC20002AEFD006212174D7F8C4100D
:1024DC00C7F8C4404C6197F800110DE000210522AB
:1024EC00C7E93044C7E93411C7E9361197F8001130
:1024FC00002908BF0122227400220129626109D13E
:10250C0002204FF4E02187F8000197F8FF0016F045
:10251C0003FF6068A4490138884205D8042016F0EE
:10252C00BBFF062016F0B8FF022016F0B5FF97F897
:10253C00FC0040B9D9F83C002168814203D297F8DD
:10254C000001002874D0D9F8000040F2FF1181641A
:10255C00816A41F4C0718162D5E90148D4E9361031
:10256C0009B118B900E028B31AF0DBFAD9F8000069
:10257C00816A41F00101816230461AF030FB97F814
:10258C00FC0008B1012494E707F16C06D7F8EC10B5
:10259C0030461AF056FA0028F4D0D7F8C0000321C0
:1025AC00017428460EF0DAFB3046002100241AF0A4
:1025BC0048FA7EE798F804001AF0C8FBD8F8101017
:1025CC0019F0FAFED8F8141019F0F6FE98F8040079
:1025DC0018F0B2FB98F804001AF0BAFB1AF0A1FA42
:1025EC000020C4F8E000D4F8C0000068B0F5806F9B
:1025FC0001D91AF096FA94F802010028B6D12846AF
:10260C0017F0D7FF94F8FD000028AFD1D8F80000E0
:10261C00D8E90412D0F8183143F00303C0F818318C
:10262C0042EA0100D4F8CC104968096888629DE739
:10263C0097F8FD0020B1D7F8EC0001307FF483AFA0
:10264C0030461AF0CCFAD4F808B0D5E90110BBF139
:10265C00000F029005D0D1F8E800092806D201201D
:10266C0002E001F1F80B0020019004E00422112893
:10267C0038BF022201926668039136B1D1F8E800A6
:10268C00092807D24FF001080AE001F1FA064FF0D1
:10269C00000805E04FF00408112838BF4FF002087D
:1026AC00D4F80090284617F084FF04AD0399CA466D
:1026BC00B9F1000F5ED0D1F8E810082914D80298AF
:1026CC0001210068BAF1000F25D0C90723D0327858
:1026DC001AF08FF918BFC0F8402100291CBF4644DE
:1026EC000121AAEB010AEDE70298112900681AD220
:1026FC000121BAF1000F29D0C90727D032881AF06E
:10270C0078F918BFC0F8402100291CBF46440121AC
:10271C00AAEB010AEDE7294619F0E6FEDDE9031004
:10272C008BF8000021E00121BAF1000F16D0C90787
:10273C0014D032681AF05DF918BFC0F84021002996
:10274C001CBF46440121AAEB010AEDE7294619F00A
:10275C00CBFEDDE90310ABF8000006E0294619F0CA
:10276C00C3FEDDE90310CBF800000198A9F10109C3
:10277C0083449DE7D1F8F00002990968D1F8102143
:10278C000240102802D1002AF8D101E0002AF5D02D
:10279C00606818F089F9D7F8C0100020C7F8C40099
:1027AC00C7F8C0000874EDE6FEFFFF0F2DE9F04FEF
:1027BC008FB0DFF80C83054698F80A00C0001AF0B9
:1027CC00D1FA00280C9000F06F8119F0AFFF009047
:1027DC000DF13A01822004F0C1FEBDF83A004FF62B
:1027EC00FF7988BB00264FF0FF3708AC0020B8F803
:1027FC00041082B2ADF83A008A4220D2ADF8200023
:10280C000020CDE90A77ADF82690ADF8249098F821
:10281C000A10884209D20C9941F830600C9901EBEE
:10282C00C0010130A1F80490F1E7D42021468DF8C5
:10283C00346002F043F9BDF83A000130D7E70DF1EE
:10284C003A01822002F03AF9281D019008A80830BC
:10285C00029005F11500039004AE0020F71CB8F8A7
:10286C000810ADF83A0080B2884280F01F814FF01A
:10287C00000A012498F80BB0DA4527D2BDF83A00CB
:10288C0031468DF812A0ADF81000D02004F066FE91
:10289C00C8B99DF81C40012C07D19DF81B0020B92C
:1028AC00384619F0D5F900286ED1287D844209D11B
:1028BC00002C4FF00902384608BF0522039918F086
:1028CC000FFE40B900240AF1010AD3E7002C5BD1BA
:1028DC00E87F002858D00024B8F80600844251D272
:1028EC00BDF83A003146ADF81240ADF81000D120D9
:1028FC0004F034FE78B9BDF8140048450BD0ADF89F
:10290C002000D42008A904F029FE002840F0BB8048
:10291C001AF074F808B90134DEE728680990DA4532
:10292C002AD2287B98F80AE0BDF83AC00C9A8DF8A8
:10293C0034000020864500F0A680034602EBC00060
:10294C008188494502D0581C6145F3D1286942F869
:10295C0033000C9800EBC300A0F804C0D42008A9E5
:10296C0002F0ACF8A87F9DF81610814208D08DF8C3
:10297C001600D120314601E0D42008A902F09EF8BF
:10298C00B8F80600844203D0BDF83A00013066E77F
:10299C00B8F80400002681B2B4B28C427BD2ADF8F8
:1029AC002060D42008A904F0D9FD00286BD102982E
:1029BC0019F04EF918B91AF021F800285FD02868E0
:1029CC0098F80A300C99039600260990287B8DF80C
:1029DC003400BDF83A00B34260D0324601EBC60673
:1029EC00B7884F4502D0561C8742F4D1DA4534BF24
:1029FC002B69002341F832300C9901EBC2010822FB
:102A0C008880DDE9011019F0F7FC2E48007830B110
:102A1C002C48026D1AB1BDF8201001989047002780
:102A2C00B8F80600BEB2864223D2BDF83A00ADF823
:102A3C001270ADF81000D12004A904F08FFDE82825
:102A4C0005D0BDF81400484501D00137E8E7BDF8C2
:102A5C002000ADF8140000208DF81700A87F8DF829
:102A6C001600D42008A902F029F8D12004A902F0FC
:102A7C0025F8B8F804008642039E02D20BE0B8F8A1
:102A8C000400013687E71AF0C2F80C9808B11AF066
:102A9C0067F9192011E080B2844207D11AF0B7F817
:102AAC000C9808B11AF05CF91A2006E01AF0AFF88D
:102ABC000C9808B11AF054F900200FB0BDE8F08F53
:102ACC00F82C0220742402202DE9F04788B000284D
:102ADC0000F069810446C06B002800F06481B4F8F2
:102AEC004010002900F05F81057804F1300019F0E6
:102AFC00EBFB002800F05781681E092846D8DFE858
:102B0C0010F00A0052016600520152018800520175
:102B1C0052015201A50000200390CDE90100B4F848
:102B2C0040000B2840F0E080E66BDFF898823546D9
:102B3C0015F8070B88F80400701C1AF041F90746C9
:102B4C00F01C1AF03FF9064628461AF03BF90546E8
:102B5C00217A994880F82810022919BFD4E900126B
:102B6C00C0E908122188018407F01900A8F80600B2
:102B7C00ADF80600C01B18BF0120B6F57A7F03D351
:102B8C0091498E4240F2BF800227D0E0102D00F018
:102B9C008880122D00F0A480142D40F00481E26B8B
:102BAC008248834C51785388928803804280A1F1EB
:102BBC000D0200231D2B00F29B800C2B02D88B42A4
:102BCC0003D193E08B4208BF22600133F2E7B4F8E3
:102BDC004000012840F0E78019F0B4FD032804D030
:102BEC0019F0B0FD042840F0DE807348B0F85010A6
:102BFC000131A0F85010204610F0C5FA04202146EF
:102C0C00012201238DF813000DF113000090042014
:102C1C0063E0B4F84000012840F0C58019F092FD43
:102C2C00032804D019F08EFD042840F0BC80072046
:102C3C008DF8130014F0D8FC8DF814000DF113006E
:102C4C002146012202230090072046E05B480078D1
:102C5C00002800F0A880B4F84000032840F0A380BE
:102C6C00E06B01301AF0ACF85349B1F87020013226
:102C7C00A1F87020524A13784BB98B88C31A022BD7
:102C8C0005DBB1F872402344013BA1F872300023FC
:102C9C008880C007137031D108B0BDE8F04716F03A
:102CAC0057BFB4F8400001287DD119F04BFD032823
:102CBC0003D019F047FD042875D10020012203230D
:102CCC008DF8150041F21100ADF813000DF1130051
:102CDC000090394800F12001112009F08DFD62E0CF
:102CEC003448002101705EE0012734E04942216044
:102CFC00006808B0BDE8F04719F0CCBD08B0BDE8DD
:102D0C00F04716F00FBFDFF8C4A04700C8F8086002
:102D1C00D0478146D047000240EA0949D047484491
:102D2C00B0FBF6F101FB16000A3015F06FFFD8F876
:102D3C000800B5F57A7F029003D342F210708542F9
:102D4C0001D9022704E02846C8F80C5019F000FD00
:102D5C00D8F80C00039002258DF805708DF80450FE
:102D6C0001A816F011FC8DF813500DF113059DF808
:102D7C000510681C19F072FFBDF8061019F06EFFF3
:102D8C00029919F06EFF039919F06BFF022021468E
:102D9C0001220D23009509F02FFD0748B0F85610BD
:102DAC000131A0F8561008B0BDE8F087101F0220C2
:102DBC002C2C0220202D022088230220012402200A
:102DCC0000240220782C0220407E050029CD010031
:102DDC002DE9F047AC481D46144690F883000128B5
:102DEC0028D1AA481FFA81FA0121A94EAC4F0170D3
:102DFC000020F0703878832802D1706919F0EAFC51
:102E0C00A8064FF6FE783BD415F0E04F6CD096F93F
:102E1C000600012802DBB0790138B0719E48426887
:102E2C0005F08070002A77D000287AD0002000218D
:102E3C00904772E095480121954E0170002005F0F5
:102E4C00E041F07004F002004018924807682AD064
:102E5C0096F90600012802DBB0790138B07196F9B9
:102E6C000500012802DB7079013870718A484268CC
:102E7C0005F0807022B378B300200021904720E049
:102E8C008848A6F80A80007883281CBF83203870F5
:102E9C008548007820B13169002957D00020884737
:102EAC00A6F80AA052E0600231D4E00300F197804A
:102EBC00A00340F1A0800020387114F0A3F99AE02F
:102ECC0050B196F90700012802DBF0790138F07156
:102EDC000120307119F09AF80020387111F0EEFBD6
:102EEC007079002874D18CE014F4860F00F0A58062
:102EFC0084F48030A6F80AA0C6E90645284325D1FB
:102F0C006A484088B0F5505F00F0AA801EE00020AF
:102F1C00387111F0D3FB6EE018B10120307119F04B
:102F2C0075F8F07E400703D519F070F8C6E9064530
:102F3C007089504508BF11F0C1FBA6F80A8096F9BC
:102F4C000500012802DB707901387071A00733D5B8
:102F5C00DFF8589143F20141B9F80200884209D0D8
:102F6C0043F20441884205D0544940F6090249888D
:102F7C00914251D1707A0130707296F90600012895
:102F8C0002DBB0790138B07111F098FB17F044FDF9
:102F9C000020A6F80A80A9F802004348007810B176
:102FAC004748007808B919F031F896F9050001285E
:102FBC0002DB707901387071B07908B90020B070FB
:102FCC00707900B304F0020005F0E04140181ED007
:102FDC0096F9050000281ADC19F046FE17E02F4878
:102FEC00007820B1052010F08DFD15F047FF002072
:102FFC003871FDF753FCA00648BF19F0FDFE70793F
:10300C0028B90020B070002000210FF0F3FA1F48FF
:10301C0000210170BDE8F08796F90610012902DB4A
:10302C00B1790139B1717189514523D1B07E10F05C
:10303C00410F25D0FDF732FCAAE71F4804423FF4AC
:10304C0085AF84F08060A6F80AA0C6E9064528433F
:10305C007FF47CAF1548408840F002000228ABD1C9
:10306C00144913480022096800684B690FFA8AF169
:10307C009847A1E743F6040188423FF487AF87E7FE
:10308C0011F01CFB84E700BF2C100220202E022024
:10309C00A02B0220701F0220AC1B0200242E022049
:1030AC00AD1F0220B51F0220742402203C190220FF
:1030BC00782D0220401F022000000C8C18060020E6
:1030CC00B01F02202DE9F04F87B00446007D92F826
:1030DC0008A0994693468846352805D004F170001F
:1030EC0059460A2219F088F9E08A0821AD4B01EA09
:1030FC009001DE8C217641076FF07F0158BF1021C3
:10310C006176C10693F8341048BF0021A1764FFABE
:10311C0088F1B1F1FF3FD8BF4FF0FF362021D4F832
:10312C0004E001EA401100F0080041EA4000217D72
:10313C008A1E0A2A0CD80C2908BF00F508500C3935
:10314C00B1FA81F140F0030049094FEA410C0AE061
:10315C000D2905D314BF40F0010040F0020000E03F
:10316C0008434FF0000C94F88C100746002918BF48
:10317C0047F008073A0707D493F83820002A18BFFD
:10318C00384621D1A1B91FE091B193F8380078B13C
:10319C0004F12403204659464A46CDF810C00BF0E2
:1031AC0019F838B105466070F32017F015FAF5E000
:1031BC00DF25F2E0E08AD4F804E07A4BDDF810C0A9
:1031CC0000F0040047EA8000216DCDF818A019B971
:1031DC00A16D002900F0878040F408504FF0020CDC
:1031EC00714908F07F0ACDF81490097851B96F49EC
:1031FC00097839B194F86B10042904BF4FF0020C14
:10320C006CF31F3040EA8839BAF1030F10D0BAF1D1
:10321C00020F11BFAEF1010793F82B000EF8010C51
:10322C0093F82A0004BF0EF8020CAEF103070CE071
:10323C00AEF1080003F144011F466546F04619F053
:10324C0037FD3B46AC46A8F10907109DBCF1020FB7
:10325C0008D1BAF1000F17D00698B0B9B0B24FEA46
:10326C0010282CE0BAF1000F08D0069830B105995F
:10327C00B0B2884202D149F0400905E0BAF1000F22
:10328C001CBF27F8016C023F069849EA8029D0B18F
:10329C00059E03284FEA16280AD002280FD19BF866
:1032AC00010038709BF8000007F8010C023F06E0A3
:1032BC00F81F59469A4619F0FBFC5346083F07F88D
:1032CC00016C07F8028915B149F4807932E0207D50
:1032DC00B0B10D281DBF93F82200411C83F82210B9
:1032EC0019F002FB24E093F85110012910D1218927
:1032FC008908762914D810F008013FF471AF0FE05B
:10330C00206D90B193F83900411C83F839100FE00F
:10331C00020705D402297FF463AF40F4005001E0AA
:10332C0040F480504FF0010C5AE7187D411C197580
:10333C0007F8010927F8019D606821896760C01BA7
:10334C0051FA80F020815FEA097025D5A06D00B19B
:10335C0020621648007810B1207D0D281CD1606ABF
:10336C0010F1150102D119F07FFC606A816A4A1CC8
:10337C008262A162D4E90835208994F88C20FE1A67
:10338C000644B6B28DE8490005F115003B460AF03B
:10339C006BF908B1054600E000256570284607B0BA
:1033AC00BDE8F08F2C100220AA1F022074240220EA
:1033BC002DE9F84FDFF88C828A4683460120A2491A
:1033CC001D46144688F80000002008709F4991F8AB
:1033DC00831001291AD19F4E306808B919F044FCAA
:1033EC009D48076817B1A54819F0DCF9A00731D43E
:1033FC0015F0E24F5FD09A48017801390170A4486A
:10340C000078862823D113F0FDFEDFE09049914E21
:10341C000870306808B919F027FC8F48076817B195
:10342C008E4819F0BFF915F0E24F36D08C48017870
:10343C00013901708948406818B18A48C189013145
:10344C00C181306840680078800600F1B48015F0C6
:10345C00FFFDBBE0DFF80892002199F8000001386D
:10346C0089F800007A480170854843F20A41408887
:10347C0040F002028A4205D0824A528842F002038E
:10348C008B4265D1002009F073FD99F800000028EB
:10349C0000F0A68099F900009DE0200719D46F4830
:1034AC00406818B16F48C1890131C1816C480178FD
:1034BC000139017087E004F4860005F02001401802
:1034CC0000F081805846514622462B46FFF780FC7F
:1034DC007CE0634C42F2054220780138207062484F
:1034EC00418841F00400904218D15C48406818B102
:1034FC005C48C2890132C2815A48428901324281F8
:10350C0042F20542E120914208BF1C2007F022FD47
:10351C002078002864D094F900005CE04F4842F613
:10352C0006024188914226D0B1F5105F45D1406921
:10353C005149086014F098F94C480078002845D09F
:10354C004C480168013138BF0160002101813DE028
:10355C004A4943F604034988994218BF9A4248D114
:10356C004C48007800F0FE0002287FF48BAF00205E
:10357C0007F0F0FC38E0406818B13A48C1890131D5
:10358C00C1813A48007808B33948042100780228F0
:10359C00344808BF0621425A01324252354841682C
:1035AC00013138BF41600189428901318BB20181FF
:1035BC00934288BF4181E92006E0406818B1294850
:1035CC00C1890131C1811D2007F0C4FC2448017858
:1035DC0031B190F90000002806DC19F045FB03E03E
:1035EC00002000210FF006F8002088F80000BDE84C
:1035FC00F88F43F604029042B2D0234840F60902F9
:10360C0040889042ACD0B1F5505F10D11F481A4998
:10361C00006800F5C07008601D48007886280CD141
:10362C005846514622462B4613F03AF907E0080556
:10363C0005D51D2007F08EFC01E014F015F918F0EB
:10364C00E5FCC3E7202E0220A32B02202C10022025
:10365C002E2E02200C2E0220AC1B02007C1D022000
:10366C00A52B0220501E0220341B0220A82B022066
:10367C00A71F0220D41E0220581F0220541B022018
:10368C00D81C0220BC1C0220641D02202801002131
:10369C00B51F0220B81F02202DE9F04F85B0DFF8CE
:1036AC00AC8298F80000012822D1DFF8A4B2D8F837
:1036BC0010609BF82070DBF81C501B2F21D1A54803
:1036CC0019F0A8FAB0B1A44819F0A4FAA0B1A34813
:1036DC0019F0A0FA90B1A24819F09CFA80B1A14857
:1036EC00052117F0CFF9002840F01B811B2708E0BB
:1036FC00012522E1FA2704E0FB2702E0FC2700E089
:10370C00FD2706EB460005EB8009A7F14100C0B28E
:10371C004E461A2838BF203716F8140F34460328A3
:10372C0014F801AF1ED0022840F0AC808E4D19F079
:10373C005BF918F0E9FB4FF0FF300190307802286C
:10374C0040F0A080207820B3F8B21B2837D00D2889
:10375C0048D1D9F8183000202070CBB302A901AAA7
:10376C00FF2034E0804D19F03FF918F0CDFB307894
:10377C00032840F08480207890B1FDB21B2D05D039
:10378C00FD2D51D0FC2D55D07F2D5BD1002020700C
:10379C0075E0F8B20D2875D10120FE27207021E0CC
:1037AC00F8B20D286BD101202070D9F818000368ED
:1037BC00002B5CD0C08802A90022984757E0D9F8AA
:1037CC001830002020701BB102A901AAF9209847DB
:1037DC0000208BF80000002006F06AFB20780028FF
:1037EC0000F09F80D9F818301BB102A9F8B201AAD9
:1037FC009847012006F05CFBBDF806004FF6FF72FF
:10380C0090420DD0BDF80410914209D0ABF80400E1
:10381C000120ABF802108BF8000014F041F980E0A5
:10382C0000208BF800007CE018F0BEFD013991FB04
:10383C00F2F304E018F0B8FD0131B1FBF2F303FB35
:10384C0012110180D9F8180003684BB16FF00C010C
:10385C00C08851FA87F1B1FA81F14A0902A9984757
:10386C00B5F10D0018BF01200D2D207007D009F106
:10387C0010000168049816F0FFFD01204FE020783D
:10388C00824515D16FF0FB00F9B250FA87F002288F
:10389C001AD30D2923D01B290AD07F2941D1DBF85B
:1038AC001C00C16869B1D8F81400CBF81C1033E0C7
:1038BC00BAF1000F01D0207880B3DBF81800CBF8F8
:1038CC001C00007A013827E0DBF81C00007A012884
:1038DC0027D0FD2916D0FC2920D1012114E0D8F8DD
:1038EC001000DBF81C1000EB400201EB82010A7D9A
:1038FC00012A26D092B98969CBF81C100021C8E99D
:10390C0004100BE04FF0FF31D8F8102001441144A3
:10391C00B1FBF0F202FB1010C8F81000002006F00A
:10392C00C7FA0025D8F80800052200234BF8205FC1
:10393C0059468BF8045017F09BF9284605B0BDE8A2
:10394C00F08F89690029E9D08847E7E7542A0220DB
:10395C0048250220502402004C2402005824020066
:10396C005C2402000E240200700400202DE9F041BA
:10397C00A4B0DFF88C82B8F80200C1073DD005A8CE
:10398C0008AC214612F046FB38B3012088F8000041
:10399C0002A816F0F3F848B19A49BDF80800C8809F
:1039AC00DDE90320C1E9022018F0D2FE0220BDF8A7
:1039BC002210221D002388F82800BDF82000A8F84A
:1039CC00201013F021FA18B101468F4816F082FF2F
:1039DC0005A808A90FF05AF908E0002088F80000A3
:1039EC0019F0A8F9C8F8100018F088FB08F10200CB
:1039FC00012118F091F8B8F80200810740F1EA8033
:103A0C00804DA86815F002F919F020F8A8F81A00F2
:103A1C00A8F8180008AC7021204619F0A3F8661C11
:103A2C00E220314619F068F9EF88ADF82A70F807F2
:103A3C001CBFD8F818000B90B80744BF0020ADF895
:103A4C003000780744BF0020CDF83200380706D587
:103A5C0004F1160008F14801302219F0B5F9F80606
:103A6C0044BFD5E90201CDE91A0108A80FF00DF900
:103A7C00BDF82A00C1074FF00F0108BF0B218207C8
:103A8C0048BF0231420748BF0431020748BF3031FA
:103A9C00C00648BF08318CB2204619F07DF90028C9
:103AAC0000F0918005460520287030687168C5F8D3
:103ABC000100C5F8051005F10900BDF82A1019F030
:103ACC00CDF8BDF82A10CA0709D0BDF82C1019F092
:103ADC00C5F8BDF82E1019F0C1F8BDF82A108A07E8
:103AEC0005D5BDF8301019F0B9F8BDF82A104A0701
:103AFC0009D5BDF8321019F0B1F8BDF8341019F031
:103B0C00ADF8BDF82A100A074AD5BDF836103F4E5D
:103B1C00B047BDF83810B047BDF83A10B047BDF803
:103B2C003C10B047BDF83E10B047BDF84010B04750
:103B3C00BDF84210B047BDF84410B047BDF8461070
:103B4C00B047BDF84810B047BDF84A10B047BDF8B3
:103B5C004C10B047BDF84E10B047BDF85010B047F0
:103B6C00BDF85210B047BDF85410B0472849098829
:103B7C00B04728490978B047BDF85A10B047BDF88E
:103B8C005C10B047BDF85E10B047BDF86010B04790
:103B9C00BDF86210B047BDF86410B047BDF82A10EC
:103BAC00C90605D51A9919F05CF81B9919F059F842
:103BBC0008F12001052001222346009508F01CFE87
:103BCC00284618F0C2FF08F10200022117F0A4FFEA
:103BDC00B8F80200400606D514F0FAFE08F102000F
:103BEC00402117F099FF01F07DF80CF001FBB8F8BB
:103BFC00020008B9FDF7FEFE24B0BDE8F08100BF5D
:103C0C0088230220782C02204021020069CC01007C
:103C1C006E280220682802202DE9F04F89B09F4EB3
:103C2C0005469F4F30780328387040F0AB80002059
:103C3C003070387001A818F025FA002840F0A080E8
:103C4C000120019007F1240001A914F05FFD002868
:103C5C0040F09680934C2E21204618F083FF4FF0B5
:103C6C00FF30A0822061E06015F0D8FE00202946CC
:103C7C0012F066FF07F10C01B86018F0BFFFD7E92E
:103C8C000412DFF82482B1FBF2F0C0B2022828BF84
:103C9C000220B2F5006F207088F8000070D1B1EBF3
:103CAC00C02F6DD3B96800296AD04FF6FF71814ED1
:103CBC0000256FF0030B61807C496160854264D202
:103CCC00EFB2002104AA0423384618F045FB05EB9B
:103CDC00450004EB800A0498D14600F47C0129F8D5
:103CEC00160FB1F5402F04D000F07F41B1F1164F03
:103CFC0034D1C0F301418AF819106FF0FD0151FA6B
:103D0C0080F21021022A27D3C2B27E2A24D0384650
:103D1C00002132464FF400634FF4006818F01CFB8E
:103D2C001BFA88F81FFA88F031584A1C01D1032875
:103D3C00F6D801220123D7B2042F06D8CFB2FF2F19
:103D4C0018BF13460132090AF5E7315058FA83F1CE
:103D5C0099F80000DFF85081AAF81C10C0B2702846
:103D6C0007D0782803D0FE2805D07C2804D1E57034
:103D7C0002E0257100E0A57098F8000001359DE780
:103D8C000120307009B0BDE8F08FE178FF2903D035
:103D9C00DFF80C81012527E02179DFF80481FF2968
:103DAC0002D0E17002251FE0A178FF290ED001316D
:103DBC00B1FBF0F202FB101000EB400104EB8101AF
:103DCC00898B09B1E070EDE7FF20A0700025002081
:103DDC00E5700CF0CFFC98F8001008437E2188F8B1
:103DEC000000002014F042FEA078FF2813D12E48CA
:103DFC00E17800780131B1FBF0F202FB1010A070F9
:103E0C000CF0B8FC98F800100843FE2188F800006C
:103E1C00A07814F02BFE2648E278022D057002EBF8
:103E2C004200627004EB8000818BE18028D0012D70
:103E3C002BD104AD002788B2182826D30739D0B26D
:103E4C002A4689B20EF0E4F99DF81B00400717D5FD
:103E5C00E088BDF81E10E6782A4603230097401A26
:103E6C00073881B2304605F0A1F9E27820B9BDF8E7
:103E7C001C1009B196420BD0964206D0E188DAE7C5
:103E8C0001206071002000F05FF998F8000079E7DC
:103E9C009DF8200012F0FAFBF7E700BF1F2E02205E
:103EAC00C02802202C1A0220A21F0220FF000008AA
:103EBC00A51F022050F801202DE9F04F87B00024F7
:103ECC000293002A00F03A81074603A892460E4658
:103EDC004FF0200B10300190504610F8011B252993
:103EEC000CD0002900F02781022EC0F0D680013EB4
:103EFC00002F00F0D18007F8011BCEE09AF80100EA
:103F0C002D2806D19AF802000AF103034FF0010C98
:103F1C0003E00AF102034FF0000C30280CBF13F839
:103F2C00011B01462A2920D1029D2A68111D2960F6
:103F3C00D2F8009013F8011BB9F1FF3FDCBFC9F1B7
:103F4C0000094FF0010C2E291ED11A4612F8011B44
:103F5C002A291CD1029D2A68111D29609D1C1268FA
:103F6C0059782B4622EAE27821E04FF00009A1F1C2
:103F7C003002092AE7D809EB890201EB4201A1F1D1
:103F8C00300913F8011BF2E74FF0FF380FE04FF048
:103F9C000008A1F13003092B08D808EB880301EBCA
:103FAC004301A1F1300812F8011BF2E71346302847
:103FBC004FF0000241F0200008BF4A466C2808BFB1
:103FCC0013F8011B9A46692901D0642909D1029B77
:103FDC001868011D196090456FF00903C8BF42466F
:103FEC001BE075290AD0A1F16F00092858D8DFE829
:103FFC0000F005695F5F835F5F5F5F05029D286866
:10400C00031D2B6090454FF00803C8BF424678292A
:10401C0008BF1023752908BF0A23DDF80480016846
:10402C00404665460FF018FBAC460546A8EB000170
:10403C00A9EB0100BCF1000F0DD109E0022E05D354
:10404C00013E17B107F801BB00E00027013801342D
:10405C000128F3DA01380A465AB1022E06D3013E82
:10406C001FB12B7807F8013B00E00027013A01351E
:10407C00F2E70C44BCF1000F3FF42EAF0128FFF621
:10408C002BAF022E05D3013E17B107F801BB00E0A0
:10409C00002701380134F1E70027013482461BE781
:1040AC00632905D1029A1068011D1160006804E0B3
:1040BC00AAF10100022E3AD300788DF80C000121F0
:1040CC0003ADB5E7029ADDF804801023CDF800C0EB
:1040DC001068011D116010990822002901684046E2
:1040EC000FF0BAFA05464FF04000DDF800C005F8B5
:1040FC00010DA8EB05019BE7029ACDF800C01068F2
:10410C00011D1160109905680E480029002D08BF8B
:10411C000546284618F0CAFA8045014638BF414684
:10412C0018F1010208BF0146DDF800C080E700214C
:10413C0003AD82467CE70FB100203870204607B0F3
:10414C00BDE8F08FF22302002DE9F04F97B08146C5
:10415C009A48406818B18047002800F0CD80984CF0
:10416C0001200021042300256778E073A67809AAB2
:10417C00384618F0F1F8099800F44030B0F5403F9B
:10418C0003D16079002800F0158138460621F82209
:10419C004FF0F80817F096F907EB470504EB85008C
:1041AC0080F818809DF82400702803D038467021C0
:1041BC0014F05CFCCDF81490079709AA3046002146
:1041CC0004234FF0000818F0C7F89DF82400FE28CF
:1041DC0003D03046FE2114F049FC30460621FE2265
:1041EC004FF0FE0917F06EF904F116074FF4006159
:1041FC00069607EB8500C088608206EB46000490AB
:10420C0007EB800000F8029F03906E4818F0AAFCA0
:10421C006A4866780DF1280A80F80080A078029030
:10422C0000EB400007EB800030F8061F019006EB16
:10423C004600089107EB8000B0F806B00FAD1FFAEE
:10424C008BF4172C5AD35D480078002854D1ABF16D
:10425C00070730465246B9B20DF0DAFFBDF836808A
:10426C0008F11000A0420FD89DF8320096280BD10F
:10427C00A7EB08049DF83120414633461FFA84F918
:10428C00484610F075FBF0B1ABF1010B5C46A0B2E7
:10429C00162833D93628A4F1160730462A4688BF8B
:1042AC002027E41BBBB2A1B218F056F83804EED0AC
:1042BC0015FA87F010F8010C962801D0013FF5E7AC
:1042CC0007EB040BBBE79DF83300C10712D1800745
:1042DC0010D5089F3B4908F107081FFA88F3B8B2BC
:1042EC00081A4946C01A00F50062304618F034F836
:1042FC0047440897A346A2E700255BE02F48304EC1
:10430C00DDF81C80DDE9057900250078002851D105
:10431C00089C2C49DDF808A0C4F5006011FA80F265
:10432C00A4F11000102183B2504613F04FFF0199F5
:10433C003482B6F912200123A6F814B00C801F4C5D
:10434C0021780843717B2070504615F051FBB6F96B
:10435C001420B17B5046022315F04AFB002F08BFF6
:10436C001027308A7C21C0F50060B8424846B8BF9F
:10437C00782114F07BFB40460CF0FCF92070484689
:10438C000621FC22FC2417F09DF80398FE2186F8E8
:10439C00028086F8039086F801900470049806EB6E
:1043AC008000808BF080404614F060FBF0887571C3
:1043BC00C0F5006528B217B0BDE8F08FC028022008
:1043CC002C1A022050F801202DE9F0438BB0DFF8B5
:1043DC002082D8F80000416E03A88847864DDFF88C
:1043EC0014922878D9F8044002280FD174B1002017
:1043FC0000240CF067FED8F80010D9F804004968C6
:10440C0088477E480121C9F80440017001202870BA
:10441C00002006907A48806818B18047D9F804408B
:10442C000990002C66D10EF061F9002855D00EF0E1
:10443C005DF9012851D00EF059F905284DD00EF038
:10444C0055F90C2849D00EF051F90A2845D00EF038
:10445C004DF90D2841D00EF049F90B283DD00EF046
:10446C0045F90E2839D00EF041F9172835D00EF049
:10447C003DF9192831D00EF039F91A282DD00EF04B
:10448C0035F91B2829D00EF031F91C2825D00EF057
:10449C002DF9142821D00EF029F915281DD00EF075
:1044AC0025F91E2819D00EF021F9202815D00EF070
:1044BC001DF91F2811D00EF019F924280DD00EF07B
:1044CC0015F9232809D00EF011F9122805D00EF099
:1044DC000DF9132818BF18F0C7FBD8F8000018B94D
:1044EC0018F0C2FBD8F80000464C016A20468847F9
:1044FC004548E06117F0F0F8444F97F8530013F07B
:10450C00FBFB054697F9420012F07EF9411C03D0E3
:10451C003F4940EAE07048833D4C0022D5E9000158
:10452C00626062802A89237B667B013A43F08003B8
:10453C005143237306F0F0034FF47A7600EB5100ED
:10454C000133B0FBF6F06373208418F0BBF9D0B9DB
:10455C00A8893049B6FBF0F00870C0B22E49B6FB02
:10456C00F0F0087097F85300022802D1A82002211D
:10457C0005E011F017FE032805D15C200521274A20
:10458C00107027480170D9F80400F8B100200025FC
:10459C000CF098FD99F8000097F85320D8F800100B
:1045AC0082420CD10E6D0221D9F804000023CDE912
:1045BC00001503AA2146B0471C48046011E0D9F845
:1045CC000400496888470D48012101701548104ABC
:1045DC000C4B0168D8F8000004681348A047C9F8D0
:1045EC00040097F8530089F800000BB0BDE8F08385
:1045FC00401F0220742D0220A01F02202B2E02200F
:10460C00AC1B0200941B022054F100802C100220E1
:10461C0000040020B11F0220B91F02202F2E0220FF
:10462C00302E0220681F0220F0080220AC2B022042
:10463C002DE9F04F8DB004460020794D0F460B90BC
:10464C00CDE90900002FA96800F0E7801646002A82
:10465C0000F0E380387821FA00F0C00727D030460C
:10466C0000219B4618F07AFB6E48C4E9017600687D
:10467C0080B109A800900CA90BAA0AAB304606F031
:10468C009BF80B980B214FF6FF72502316F0B4FBDE
:10469C00FF280CD018F04AF8634F064678780128AA
:1046AC0002D830B1012068E0304618F098FA0020AA
:1046BC00B3E005F0F5FF5D480DF1040928604846AC
:1046CC0017F0EAFEDFF868A15B494A469AF8010048
:1046DC009AF8005003905748283014F0F6F85748D1
:1046EC0057494A4614F0F1F8484617F0CDFDDFF86B
:1046FC005481554A19214B460295404613F02AFA2B
:10470C00524A08F11C001A214B4613F023FA504868
:10471C00504918F00EFA5048504918F00AFA50480F
:10472C00006810F4402F06D04E4A07F128000421EF
:10473C00002316F051F89AF8020010B10D200AF07F
:10474C0017F908F1400017F04BFB08F1380017F08F
:10475C0047FB4549002007223876B8843862386117
:10476C0081F860200521C7E902104049F9613870D1
:10477C000420002116F0E0FB78782E4941F8204007
:10478C0001307870304618F02AFABBF1000F02D0D5
:10479C00DBF8000008E00DF1040B354920225846E7
:1047AC0018F012FB4FF0FF30DBF80420BBF81010B0
:1047BC00DBE90635002AB2FA82F608BF40F6C412CD
:1047CC00206001207609618325636076294826766E
:1047DC004FF4FA766261C4E90362C4E90700C4E9E4
:1047EC000903DBF80C0000B12062DBF8140000B107
:1047FC006062DBF8080000B1E06104F13800C82108
:10480C0018F0B0F904F15000002116F0C5FB1A495C
:10481C0004F1B80018F08DF920460DB0BDE8F08F0A
:10482C00CC2108408C2D0220E0240220110000E055
:10483C00142202005027022005B601006018022045
:10484C0039EA000010280220D5440100812D010016
:10485C001017022009A80100CC160220B1B50100E6
:10486C0004000050D15F0100B810022009C2000002
:10487C007C1C02009B22010051CC010086B014F07C
:10488C0043FF17F053FF04460FF09AF800B1FEE710
:10489C00824E3068006880473068C16802AD284697
:1048AC008847042029468DF80800306842680020AB
:1048BC0090477B490028086000F0EE800FF00AFD5D
:1048CC000FF064FA17F0C1FE204618F088F90FF0CB
:1048DC0061FB744E4FF48041307817F075FFDFF8B0
:1048EC00CC81DFF8C4B1724CDFF8CC910DF1040A25
:1048FC0008F10405307813F0A1FC0146CBF80C004C
:10490C0030780FF019FD12F017F8DBF80C00810667
:10491C0035D5284615F027FE029070B317F006FF28
:10492C0098F80C10013988F80C1018F058F9029806
:10493C000178606042788DF80410A2F1DB03182B2B
:10494C0016D8012707FA03F35A4F3B4210D009F04F
:10495C0011FB9DF80400162806D102A813F080FA6A
:10496C009DF804101629D4D0201D13F079FAD0E745
:10497C00002AF7D110F0ECF8F2E7DBF80C00010498
:10498C001ED5307810F07EFB0290B8B10178D0299A
:10499C000ED30AD18178D0E9022389F80010B0F83F
:1049AC000310CBE90123ABF8001016F0A5FCE8E7E7
:1049BC0018F015F8384613F053FAE2E7DBF80C0060
:1049CC00C10604D52E2017F0F1FFDBF80C00C1074F
:1049DC0004D0252017F0EAFFDBF80C00810704D582
:1049EC00262017F0E3FFDBF80C00410704D5272045
:1049FC0017F0DCFFDBF80C00010704D5292017F0B9
:104A0C00D5FFDBF80C00410604D52D2017F0BAFFBA
:104A1C00DBF80C00010604D5302017F0B3FFDBF8EF
:104A2C000C00C10504D5352017F0ACFFDBF80C00E9
:104A3C00410504D5232017F0A5FFDBF80C008105F8
:104A4C0004D5362017F09EFFDBF80C00010504D5C9
:104A5C00372017F097FFDBF80C00C10404D5382081
:104A6C0017F090FFDBF80C00400448BF14F018F866
:104A7C002068002768B117F059FE21682760029161
:104A8C0018F0ADF8029817F0AAFF3846002713F07B
:104A9C00E7F9CBF80C702DE7FEE700BF341F0220BE
:104AAC00EC08022015060020982C0220841E0220FF
:104ABC00E01E02201F220001A11F0220F8B50C46A7
:104ACC00A0F1D001052920D80FF20400DFE801F095
:104ADC00032E4C6378AC814920880A89904280F07F
:104AEC00C480A278CB7A9A4280F0BF807A4B2C2675
:104AFC005D6A00FB0655561C2E71C97A01FB00201D
:104B0C00996A0A2200EB800041E0842800F0AF8013
:104B1C0072287ED0732800F08180712840F091803B
:104B2C00002C00F0A6806C48243075E06B4920887E
:104B3C000A89904280F09980CB8862889A4280F0F2
:104B4C009480654D2C276E6A00FB076636F80C7F47
:104B5C00974202D8531C3380CB8803FB0020E96AB0
:104B6C0001EB8000211D67E05C492088098988429F
:104B7C007BD2A178012978D8574A2C25536A00FB9F
:104B8C0005334D1C01EB40001D75116B022201EB2E
:104B9C004000E11C51E0514825880089854264D2CF
:104BAC004D4E2C27A11C1022706A05FB07001530F6
:104BBC0017F022FC706A616905FB070081623EE018
:104BCC00464F2088B98888424FD2434DA28800EBCB
:104BDC008006696B21F826200822686BE18800EBBF
:104BEC008600418004F10801686B00EB86000430FC
:104BFC0017F002FC686BBA7A216900EB8600D200D0
:104C0C00C06817F0F9FB686B217D00EB860001741E
:104C1C0015E0A4B13048343021460DE07CB12E486B
:104C2C0021460822383008E0207801281DD82A496E
:104C3C0001EB8000611C3830042217F0DDFB0020F2
:104C4C00F8BD7F30C0B20A2811D8254901EBC00746
:104C5C003B79FA8803B972B39A4204BFFB20F8BDC2
:104C6C0025789D4228BFAA4225D2E820F8BDF42021
:104C7C00F8BD1A49184A0020002300240D89AC42C3
:104C8C00DDD2CD7AD2E90967654305EB850507EBE3
:104C9C004505F550CF88556AD66A67431D440134E3
:104CAC0006EB8706AE60556A166B1D44064404304D
:104CBC002C332E61E2E711F8300007490D1817F07C
:104CCC0035FD7A8806462846214617F095FB304676
:104CDC0017F085FFB3E700BF20180220F82C022044
:104CEC000818020070B58CB0844DE888C10704D058
:104CFC00A81D012116F010FFE888810704D5A81D16
:104D0C00022116F009FFE888C10621D508A9422026
:104D1C0017F0F4FF95F83E000338012802D8686CB0
:104D2C0013F05AFF6C461621A01C17F01BFF022033
:104D3C008DF80800A88CADF80A00288DADF800009D
:104D4C00204617F0E1FFA81D102116F0E5FEE888BB
:104D5C00810624D56C462021204617F003FF022043
:104D6C008DF8160001208DF81F0040F20910ADF8E7
:104D7C000C00A88CADF8180095F826008DF80B00E7
:104D8C00288DADF80E00204617F0B2FF5C48018864
:104D9C0001310180A81D202116F0BEFEE8884106D5
:104DAC0043D500200DF12E01ADF82E00502017F048
:104DBC00A7FFA88CBDF82E10814209D195F83F00B1
:104DCC0003280ED195F83E1005290AD104200BE0DA
:104DDC00032017F07FF9052010F06AF817F099FE00
:104DEC001EE0032874D1032010F062F8686C13F0F5
:104DFC00F3FE17F08EFE434EB0470446B047000258
:104E0C0040EA0444B04720444FF47A71B0FBF1F20D
:104E1C0002FB11000A3013F0F9FE002013F010FF12
:104E2C00A81D402116F078FEE888C10509D595F833
:104E3C00410017F04FF9A81D4FF4807116F06CFE6D
:104E4C00E88801073FD595F84000032836D8DFE8FD
:104E5C0000F00204063201202EE002202CE095F82E
:104E6C003C10472017F0E8F995F83D10542017F046
:104E7C00E3F9298D4B2017F0D7F9A98C502017F0A6
:104E8C00D3F901208DF8030040F20910ADF80100B0
:104E9C0095F826008DF80000684617F03DFF95F850
:104EAC003E0001280AD1E878012807D1A81D20214D
:104EBC0016F03EFE02E0032010F0F8F9A81D0821C0
:104ECC0016F02AFEE88808B117F0A2FC0CB070BDF1
:104EDC00022803D004283FF479AF87E708A8694675
:104EEC0012F0DCFFA86800283FF470AF0268002ABB
:104EFC003FF46CAF08A86946904767E7002402208E
:104F0C00D023022029CD01002DE9F04F93B013F0EE
:104F1C0071FB7149714A0C78AA211268B1FBF4F645
:104F2C004FF47A71A0EB020AB1FBF4F7B91B8A4576
:104F3C0005D96B484FEAA10A428A01324282DFF856
:104F4C00A4B1DBF80000416E0BA88847664D67489A
:104F5C00296990F8839009B100208847AD680DB19C
:104F6C00A8471190DFF8888198F8000038B16148A3
:104F7C0090F90000002802D45F48007858B1002056
:104F8C0088F80000564801890131018117F034FF7F
:104F9C0013B0BDE8F08F5249C8880130B9F1010F48
:104FAC00C88013D10AEB060055490022381A604319
:104FBC008000C1E90120087B4A7B00F0700083303F
:104FCC00087302F0F0000130487307E04B480021F1
:104FDC000E91027B816002F0F002027349480121BC
:104FEC0001704948007818B9012000210DF002FB2E
:104FFC00B9F1010F08BF15F0EFF917F097FB044654
:10500C004248007868B13E48B9F1010F018A3B482B
:10501C00C07B08BF08460EF075FD14F01DFE00287D
:10502C0047D0B9F1010F19D1DBF80000416E03A88C
:10503C0088470DB1A8470990314D002600210696EE
:10504C00288A0AF031F808903148DBF800100F6D0F
:10505C0000680221CDE9001603AA10E0274D0026B6
:10506C000021E87B6E800AF01FF810902848DBF8CE
:10507C0000100F6D08210068CDE900160BAA254B16
:10508C002946B8472449002808801B4918D4832096
:10509C0008701B481949B9F1010F08BF01461F4898
:1050AC0001601F48017801310170204617F097FD0F
:1050BC006EE7002100224FF0805308F023FE67E7D3
:1050CC000020074988F80000088901300881204633
:1050DC0017F085FD5AE700BFB11F0220441F0220C4
:1050EC00001E0220401F0220AC1B02002C100220CC
:1050FC00B01F0220B51F0220A81F02207C1D022019
:10510C00541B02202E2E0220202E0220242E0220A0
:10511C00782D022011DD00009E1F0220AC2B0220F6
:10512C00A52B02202DE9F04F8BB0DFF8C0B1704DEC
:10513C00DBF80C00A84200F09D8017F0F7FA029003
:10514C006C48DFF8B49100266E800778D9F800001F
:10515C00416E03A888470320684CDFF8A8810696A7
:10516C00002F8DF81C00664F08BF202408BF4FF499
:10517C00860798F80000800706D47D20002109F0EE
:10518C0093FF8DF81C600646DFF87CA10896DAF8D0
:10519C00141011B198F800008847DAF80C0008B127
:1051AC00804709905949DBF80C200020A86029623F
:1051BC00297B01F0F001297355498A420BD0554ADD
:1051CC000B8A1268B2F848609E4204D1CB89B2F8BF
:1051DC0046209A4210D0464A012348800D468BF84F
:1051EC000330C1E90120087B4A7B00F0F000087312
:1051FC0002F0F000023048739BF80400002840D005
:10520C004448D9F80010464B0E6D0068CDE9007487
:10521C0003AA2946B04705464248B5F1FF3F058031
:10522C004EDD9BF806000021002401308BF80600AF
:10523C002F48CBF80C009BF8050001308BF80500CB
:10524C0002200DF0F7FB38498BF804403748CA8C24
:10525C000388C2814A8D44318281354A127843EAEF
:10526C00C21220F8032B082217F0C6F8029817F088
:10527C00B6FC33E09BF8060000283FF45EAF00203C
:10528C0031E01C48007818B998F800008006B7D5B2
:10529C00214890F900000028B2D42048007800285A
:1052AC00AED1D9F80000C06B8047297BA860039071
:1052BC0001F0F0010231297301218DF810109FE7E4
:1052CC00029817F08CFCDAF8042012B100200021AF
:1052DC009047022041F288310DF0ACFB0020B5F173
:1052EC00FF3FC8BF01200BB0BDE8F08FA02B022000
:1052FC003C19022074240220401F022020000001CF
:10530C0000004F8CAE1F0220AC1B020000C42264B4
:10531C0018060020782D0220B51F0220A81F02209D
:10532C00DD2D00009C1F02202C100220A41E022048
:10533C00AA1F02202DE9F84F0568834695F8440012
:10534C00022837D18846754875499146D5E91267C8
:10535C00DBF804405A469A4616F02CFD217827209B
:10536C0016F05CF830463946062209F081F9F0B99E
:10537C0027200DF079FFE96B686B6A4E4944814236
:10538C0007D1A86B28B9D6F8800320F00200C6F824
:10539C0080030220C6F8FC02062014F0D1FA70B18A
:1053AC0040203060802030600020C6F8FC024FF0B6
:1053BC00FF3401E06FF006042046BDE8F88F0220B0
:1053CC0014F06AF805F1100016F0DAFA284616F017
:1053DC002BFBAAF1010295F85A1095F85B00B2FA72
:1053EC0082F2520913F0A6FA95F85C1079B140F0EC
:1053FC0080602F46C6F84C0116F0B6FF57E906122E
:10540C00C6F8D411C6F8D801C6F8D02104E0C6F805
:10541C004C012F4616F0A8FF686BE96B00220023A5
:10542C00C6F85801012085F85C0085F8600001EB96
:10543C0009004946E863404613F086FF95F8590089
:10544C000138012818D83868B0B1374815F058F928
:10545C00B0F1FF3F56DD272011F0CCF8296B286CFA
:10546C000123CA6985F85D3010442864D1E9020231
:10547C00C9690B4613F068FF95F85800042802D050
:10548C0027200EF08FF9686BE96B814208D1A86B6D
:10549C00296C884204D15846BDE8F84F0DF074BE13
:1054AC00DBF8005095F85800022822D0042827D1A8
:1054BC001D4815F025F9B0F1FF3FD9BF4FF0FF3073
:1054CC006865584606F0FCF800206C6D85F86000A5
:1054DC0095F85900082808D8012101FA00F010F4B9
:1054EC00C37F1CBF002085F85F00284613F008FA24
:1054FC0062E70E484FF0FF3117F0A3FA6C6D5BE7D3
:10550C00002459E7002085F86000C6F84C012846B5
:10551C0013F0F6F9272011F06DF848E7A01C0220D3
:10552C00A5F900000444025802000080E415022092
:10553C002DE9F04F8DB00746C089144689460730D7
:10554C0086B2304610F0F8FA0546FF280AD13046EC
:10555C00FEF7FAFDB04205DA70480778002F08BF55
:10556C000527A3E06D4E3078C0B91CB1022C15D1C3
:10557C00FF2D13D1387A002203238DF81C00786894
:10558C00009206906648C188C07805AA03F00EFE0A
:10559C009DF824003874BDF82000B881DFF880B184
:1055AC00002104239BF80340BBF806A00CAA20465C
:1055BC0016F0D2FE9DF830007E2805D120467C21C5
:1055CC0013F054FA9DF830007C286BD1FD8905F15D
:1055DC0007081AFA88F0B0F5006F65D8BB88C5F3D8
:1055EC0085120490F88849461FFA88F94FEA850C11
:1055FC008DF82DC042EA83128DF82A00C0F30120E9
:10560C008DF82C209A088DF82B203A7A05EB0A0796
:10561C00B9F10D0F40EA82008DF829004AD23F48BB
:10562C002A460197CDF80CC000F11806304617F049
:10563C00CBFBDDF829007119002200270291705173
:10564C009DF82D000871681D81B2304617F092F854
:10565C00DDF8291032464B46715196212F4D8DF8AD
:10566C002F10039916F0B9FF02998DF82E000B98A4
:10567C00C1F803002046514612F0A8FD04EB44018A
:10568C00049A28700BEB81018A83BBF80610414405
:10569C00ABF8061050B1019881B2204610F0F6FF1D
:1056AC002F7803E0012700E00527377038460DB04E
:1056BC00BDE8F08F894608462946002217F05AF8B3
:1056CC000DF12901052215F0CFFF96214A462B46F4
:1056DC008DF82F109DF82D1016F07FFF51468DF888
:1056EC002E00204612F072FD3070B9B220460DF13A
:1056FC002902072312F06AFD317851EA000737704E
:10570C00D4D104EB4400049900270BEB8000818377
:10571C00BBF806004044ABF80600C7E7C0280220DF
:10572C002C1A02202DE9FC47D0E900588246D8F803
:10573C000000D0F8409019F4F06FC0F8449035D0C8
:10574C005FEA495117D5D5E91401411A504614F0B6
:10575C0041FAD8F800008169C90605D401688DF8B2
:10576C0007109DF80710F6E7296801312960A97B1D
:10577C0009B90121A973696C40684FF0004600F02B
:10578C000F0404EA0100B0FA80F126FA01F101409D
:10579C0005D02F6C1FB12A68AB6C5046B847B4FAD1
:1057AC0084F026FA00F020404042A863D5F8580156
:1057BC00D8F83C1009F0400740680068D0F8042580
:1057CC001140394347D0DAE9006450460FF0CFFB63
:1057DC00D7B1F07C90B90BE0316F69B10068B16E54
:1057EC00B26F8854306FB16F01310138B1673067D7
:1057FC0020688169C906EFD5F07C28B1D6E914017F
:10580C00411A504614F0E6F996F86400E0B130798C
:10581C00022819D017B1B179012901D0316F99B98A
:10582C000024B16E0128346786F86440B46607D151
:10583C00B36CB26FD6F8CC6050460094B04703E01E
:10584C0006F17C0017F0A6FA504607F045F9D5F89A
:10585C0058014068006800F204500068D8F838100D
:10586C00084228D0D5F8F80028B3DAE9007650467B
:10587C000DF0D0F9504609F037F97879012812D19A
:10588C00D7F8F40078B997F8E80060B1002087F8F1
:10589C00E800BB6CD7F8EC10D7F8FC20D7F85041D7
:1058AC0000905046A047D7F8F80020B93068816BBB
:1058BC0041F4006181635FEA095023D5D8F80000F8
:1058CC0081690907FCD4016B21F480710163297A89
:1058DC0091B10020287295F84400800606D52C6CF6
:1058EC0024B1AB6C504620210022A0475046012128
:1058FC0014F03BFBD8F80000816B21F4006181634C
:10590C00687908B1BDE8FC8705F58070BDE8FC47F7
:10591C0017F040BA2DE9FC47DFF8C891DFF8C881D1
:10592C000446002699F8000098F88370B8B1D9F8AD
:10593C003820A2B1D9F8580088B10DF1070142F214
:10594C001A009047D9F858008047002638B19DF8C6
:10595C00070020B1A4F1E100B0FA80F04609012F54
:10596C0004D198F8530012F0C7F902E0002017F0A8
:10597C0009F9C07B0125DFF874A1022808BF0525B1
:10598C00DAF80000002800F0AB80E92C28D01B2CA2
:10599C001BD004B326BB1C2C00F09380E12C6AD1E5
:1059AC0016F0A2FC0146DAF80000002963D0C18A87
:1059BC00490760D498F83410817698F822104A1C64
:1059CC0088F82220406881704EE0017D052905D0C1
:1059DC0098F8821011B9002141704DE0002E4AD088
:1059EC00F12014F0F9FDDAF80000817E51B3012F9B
:1059FC0005D10189406814F078FADAF800004168A2
:105A0C000988090706D599F8001019B112F00AFA9D
:105A1C00DAF80000C18A4A070DD5037E027D03F037
:105A2C007F03032A037643D121F00401C18231495B
:105A3C000A8801320A80817E0139817612F02EFEAD
:105A4C00BDE8FC8716F050FCDAF8001088B1C88A63
:105A5C0040070ED498F83400887698F82200421C3F
:105A6C0088F8222049688870284601F03DFABDE884
:105A7C00FC874C7000E04470DAF800000AF0D2F9B0
:105A8C00DAF80000C08A00060AD599F8000018B9A7
:105A9C0098F8430010F0AEFB98F9420016F0CCF9E0
:105AAC000020CAF80000102016F036FDBDE8FC8777
:105ABC00F02014F091FD0E49DAF8000009688847CF
:105ACC00DEE70D4909680029DAD088470020CAF8BA
